:020000040000FA
:06000000D6EF32F0120001
:020006001200E6
:08000800F2A402D0EEEF23F098
:100010009EA002D065EF24F09EAA02D0C7EF29F07F
:10002000A1A202D0BDEF2FF01200D08EF28EF28C82
:020030001200BC
:0E00320009009D690000B00100000A000000F6
:1000400092690000EC0000000B00000091690000C4
:10005000FF0000000100000050690000AB0000003C
:10006000410000004E690000FB000000020000009B
:10007000326900008A0100001C000000F1680000E5
:100080000001000041000000A668000060000000C0
:100090004B000000F865000000030000AE02000005
:1000A000D9CFE6FFE1CFD9FFE652FE0EDBCFE6FF68
:1000B000010EF36EFD0EDB5004E0D890F336E80637
:1000C000FCE1F350E552E71402E0010E01D0000E0E
:1000D000DF6EDF5000D0E552E552E7CFD9FF1200C6
:1000E000D9CFE6FFE1CFD9FF010EF36EFC0EDB5056
:1000F00004E0D890F336E806FCE1F350146EFD0EF0
:10010000DBCFE9FFFE0EDBCFEAFF1450EF12E55222
:10011000E7CFD9FF1200D9CFE6FFE1CFD9FF010E1B
:10012000F36EFC0EDB5004E0D890F336E806FCE1F9
:10013000F350E81C146EFD0EDBCFE9FFFE0EDBCFA3
:10014000EAFF1450EF16E552E7CFD9FF1200D9CFDE
:10015000E6FFE1CFD9FF030EE126DF6A010EDF5C87
:1001600001E3C3D1DF28E66EDF50E96EEA6AAD0E27
:10017000EA02F3CFEAFF020EE902F350EA26AD0EDF
:10018000E902F3CFE9FFF450EA26000EE926030E58
:10019000EA22E552E750EF6EDF50E96EEA6AAD0EF3
:1001A000EA02F3CFEAFF020EE902F350EA26AD0EAF
:1001B000E902F3CFE9FFF450EA26000EE926030E28
:1001C000EA22EE52EF6ADF50E96EEA6AAD0EEA0209
:1001D000F3CFEAFF020EE902F350EA26AD0EE90280
:1001E000F3CFE9FFF450EA26000EE926030EEA22D7
:1001F000030EE926000EEA22EE6AED6ADF50E96E90
:10020000EA6AAD0EEA02F3CFEAFF020EE902F3500A
:10021000EA26AD0EE902F3CFE9FFF450EA26000E1C
:10022000E926030EEA22050EE926000EEA22EF6A0D
:10023000DF50E96EEA6AAD0EEA02F3CFEAFF020E82
:10024000E902F350EA26AD0EE902F3CFE9FFF450DC
:10025000EA26000EE926030EEA22060EE926000E23
:10026000EA22EF6ADF50E96EEA6AAD0EEA02F3CFE6
:10027000EAFF020EE902F350EA26AD0EE902F3CFDF
:10028000E9FFF450EA26000EE926030EEA22090EE1
:10029000E926000EEA22EF6ADF50E96EEA6AAD0E47
:1002A000EA02F3CFEAFF020EE902F350EA26AD0EAE
:1002B000E902F3CFE9FFF450EA26000EE926030E27
:1002C000EA220A0EE926000EEA22EF6ADF50E96E02
:1002D000EA6AAD0EEA02F3CFEAFF020EE902F3503A
:1002E000EA26AD0EE902F3CFE9FFF450EA26000E4C
:1002F000E926030EEA22070EE926000EEA22EF6A3B
:10030000DF50E96EEA6AAD0EEA02F3CFEAFF020EB1
:10031000E902F350EA26AD0EE902F3CFE9FFF4500B
:10032000EA26000EE926030EEA220B0EE926000E4D
:10033000EA22EF6ADF50E96EEA6AAD0EEA02F3CF15
:10034000EAFF020EE902F350EA26AD0EE902F3CF0E
:10035000E9FFF450EA26000EE926030EEA220C0E0D
:10036000E926000EEA22EF6ADF50E96EEA6AAD0E76
:10037000EA02F3CFEAFF020EE902F350EA26AD0EDD
:10038000E902F3CFE9FFF450EA26000EE926030E56
:10039000EA22080EE926000EEA22EF6ADF50E96E33
:1003A000EA6AAD0EEA02F3CFEAFF020EE902F35069
:1003B000EA26AD0EE902F3CFE9FFF450EA26000E7B
:1003C000E926030EEA22020EE926000EEA22EF6A6F
:1003D000DE52E00EDD6E010EDBCFE6FFE66AE66A76
:1003E000DF50E96EEA6AAD0EEA02F3CFEAFF020ED1
:1003F000E902F350EA26AD0EE902F3CFE9FFF4502B
:10040000EA26000EE926030EEA22CD0EE926010EA9
:10041000EA22E9CF14F0EACF15F014C0E6FF15C0C8
:10042000E6FFA4EC30F0166E050EE15E1650010EEC
:10043000DBCFE6FFE66AE66ADF50E96EEA6AAD0EF8
:10044000EA02F3CFEAFF020EE902F350EA26AD0E0C
:10045000E902F3CFE9FFF450EA26000EE926030E85
:10046000EA220D0EE926000EEA22E9CF14F0EACFC7
:1004700015F014C0E6FF15C0E6FFA4EC30F0166ED0
:10048000050EE15E1650010EDBCFE6FFE66AE66A76
:10049000DF50E96EEA6AAD0EEA02F3CFEAFF020E20
:1004A000E902F350EA26AD0EE902F3CFE9FFF4507A
:1004B000EA26000EE926030EEA220D0EE926000EBA
:1004C000EA22E9CF14F0EACF15F0E00E1426000E70
:1004D000152214C0E6FF15C0E6FFA4EC30F0166E3E
:1004E000050EE15E1650DF2A39D6030EE15C02E20A
:1004F000E16AE552E16EE552E7CFD9FF1200D9CFAC
:10050000E6FFE1CFD9FF070EE126010EF36EFE0EE6
:10051000DBCFF4FFF350F45C1EE2FC0EDBCFE9FF0F
:10052000FD0EDBCFEAFFEF50146E156AD890155020
:1005300004E6800E145C000E15580DE2FC0EDBCFB5
:10054000E9FFFD0EDBCFEAFF020EE926000EEA22EC
:10055000EE50ED1003E1000EF7EF07F0FE0EDB505A
:10056000E96EEA6AAD0EEA02F3CFEAFF020EE90293
:10057000F350EA26AD0EE902F3CFE9FFF450EA2684
:10058000000EE926030EEA22EE52E9CF14F0EACF7C
:1005900015F0050E14C0DBFF060E15C0DBFFFC0EC8
:1005A000DBCFE9FFFD0EDBCFEAFFEECF14F0EECF9D
:1005B00015F0EECF16F0EECF17F0EECF18F0EFCF2C
:1005C00019F0050EDBCFE9FF060EDBCFEAFF14C002
:1005D000EEFF15C0EEFF16C0EEFF17C0EEFF18C00D
:1005E000EEFF19C0EEFFFE0EDB50E96EEA6AAD0EBB
:1005F000EA02F3CFEAFF020EE902F350EA26AD0E5B
:10060000E902F3CFE9FFF450EA26000EE926030ED3
:10061000EA22060EE926000EEA22EF50E66EFE0EF2
:10062000DB50E96EEA6AAD0EEA02F3CFEAFF020E92
:10063000E902F350EA26AD0EE902F3CFE9FFF450E8
:10064000EA26000EE926030EEA22070EE926000E2E
:10065000EA22E552E750EF6EE00EDF6EDFCFE6FFF5
:10066000E66AE66AFE0EDB50E96EEA6AAD0EEA0261
:10067000F3CFEAFF020EE902F350EA26AD0EE902DB
:10068000F3CFE9FFF450EA26000EE926030EEA2232
:10069000CD0EE926010EEA22E9CF14F0EACF15F0DB
:1006A00014C0E6FF15C0E6FFA4EC30F0166E050E90
:1006B000E15E1650DFCFE6FFE66AE66AFE0EDB502B
:1006C000E96EEA6AAD0EEA02F3CFEAFF020EE90232
:1006D000F350EA26AD0EE902F3CFE9FFF450EA2623
:1006E000000EE926030EEA220D0EE926000EEA228C
:1006F000E9CF14F0EACF15F014C0E6FF15C0E6FF0D
:10070000A4EC30F0166E050EE15E1650DFCFE6FF6A
:10071000E66AE66AFE0EDB50E96EEA6AAD0EEA02B0
:10072000F3CFEAFF020EE902F350EA26AD0EE9022A
:10073000F3CFE9FFF450EA26000EE926030EEA2281
:100740000D0EE926000EEA22E9CF14F0EACF15F0EB
:10075000E00E1426000E152214C0E6FF15C0E6FFB9
:10076000A4EC30F0166E050EE15E1650FE0EDB5066
:10077000E96EEA6AAD0EEA02F3CFEAFF020EE90281
:10078000F350EA26AD0EE902F3CFE9FFF450EA2672
:10079000000EE926030EEA22060EE926000EEA22E2
:1007A000EF5001E004D2FE0EDB50E96EEA6AAD0EB6
:1007B000EA02F3CFEAFF020EE902F350EA26AD0E99
:1007C000E902F3CFE9FFF450EA26000EE926030E12
:1007D000EA22080EE926000EEA22EF6ADF6AFE0E20
:1007E000DB50E96EEA6AAD0EEA02F3CFEAFF020ED1
:1007F000E902F350EA26AD0EE902F3CFE9FFF45027
:10080000EA26000EE926030EEA22020EE926000E71
:10081000EA22EF50DF5C01E3C9D1FE0EDB50E96E46
:10082000EA6AAD0EEA02F3CFEAFF020EE902F350E4
:10083000EA26AD0EE902F3CFE9FFF450EA26000EF6
:10084000E926030EEA22080EE926000EEA22EF50FE
:10085000EF2A146E156AFE0EDB50E96EEA6AAD0EE1
:10086000EA02F3CFEAFF020EE902F350EA26AD0EE8
:10087000E902F3CFE9FFF450EA26000EE926030E61
:10088000EA22030EE926000EEA221450EE24E76E57
:100890001550EE20EA6EE7CFE9FFEF50E00FE76E6C
:1008A000040EE7CFDBFFDBCF14F014340EE2040EAE
:1008B000DBCF15F0630EE76E1518E8AE02D01534E5
:1008C00003D0E750D880155402E2040EDB6AFE0E16
:1008D000DB50E96EEA6AAD0EEA02F3CFEAFF020EE0
:1008E000E902F350EA26AD0EE902F3CFE9FFF45036
:1008F000EA26000EE926030EEA22080EE926000E7B
:10090000EA22EFCF14F0FE0EDB50E96EEA6AAD0E7C
:10091000EA02F3CFEAFF020EE902F350EA26AD0E37
:10092000E902F3CFE9FFF450EA26000EE926030EB0
:10093000EA22050EE926000EEA22EF50145C1BE3C2
:10094000FE0EDB50E96EEA6AAD0EEA02F3CFEAFF73
:10095000020EE902F350EA26AD0EE902F3CFE9FFF9
:10096000F450EA26000EE926030EEA22080EE926D4
:10097000000EEA22EF6A010EDB6A070EF36E010E2B
:10098000DBCFF4FFF350F45C01E30ED1040EDBCFB8
:1009900018F0196A18BE1968030ED890183619365F
:1009A000E806FBE1620E18264B0E1922010EDB5001
:1009B0000F011824F66E000E1920F76E0800F5508E
:1009C000E66EFE0EDB50E96EEA6AAD0EEA02F3CF88
:1009D000EAFF020EE902F350EA26AD0EE902F3CF78
:1009E000E9FFF450EA26000EE926030EEA22CD0EB6
:1009F000E926010EEA22E9CF16F0EACF17F0DB5024
:100A0000200D1650F324146E1750F420156EDF508D
:100A10000F011424E96E000E1520EA6EE552E7502E
:100A2000EF6EFE0EDB50E96EEA6AAD0EEA02F3CF1E
:100A3000EAFF020EE902F350EA26AD0EE902F3CF17
:100A4000E9FFF450EA26000EE926030EEA22CD0E55
:100A5000E926010EEA22E9CF1AF0EACF1BF0DB50BB
:100A6000200D1A50F324186E1B50F420196EDF501D
:100A70001824E96E000E1920EA6EEF50E66EFE0EA5
:100A8000DB50E96EEA6AAD0EEA02F3CFEAFF020E2E
:100A9000E902F350EA26AD0EE902F3CFE9FFF45084
:100AA000EA26000EE926030EEA220D0EE926000EC4
:100AB000EA22E9CF16F0EACF17F0010EDB50200D45
:100AC0001650F324146E1750F420156EDF501424C2
:100AD000E96E000E1520EA6EE552E750EF6EFE0E4D
:100AE000DB50E96EEA6AAD0EEA02F3CFEAFF020ECE
:100AF000E902F350EA26AD0EE902F3CFE9FFF45024
:100B0000EA26000EE926030EEA22CD0EE926010EA2
:100B1000EA22E9CF1AF0EACF1BF0DB50200D1A5081
:100B2000F324186E1B50F420196EDF501824E96E60
:100B3000000E1920EA6EEF50E66EFE0EDB50E96EF5
:100B4000EA6AAD0EEA02F3CFEAFF020EE902F350C1
:100B5000EA26AD0EE902F3CFE9FFF450EA26000ED3
:100B6000E926030EEA220D0EE926000EEA22E9CF5D
:100B700016F0EACF17F0E00E1626000E1722010E2F
:100B8000DB50200D1650F324146E1750F420156E10
:100B9000DF501424E96E000E1520EA6EE552E7508E
:100BA000EF6E010EDB2AE9D6DF2A19D603D2FE0E3C
:100BB000DB50E96EEA6AAD0EEA02F3CFEAFF020EFD
:100BC000E902F350EA26AD0EE902F3CFE9FFF45053
:100BD000EA26000EE926030EEA22080EE926000E98
:100BE000EA22EF6ADF6AFE0EDB50E96EEA6AAD0EBA
:100BF000EA02F3CFEAFF020EE902F350EA26AD0E55
:100C0000E902F3CFE9FFF450EA26000EE926030ECD
:100C1000EA22020EE926000EEA22EF50DF5C01E331
:100C2000C9D1FE0EDB50E96EEA6AAD0EEA02F3CFDF
:100C3000EAFF020EE902F350EA26AD0EE902F3CF15
:100C4000E9FFF450EA26000EE926030EEA22080E18
:100C5000E926000EEA22EF50EF2A146E156AFE0E06
:100C6000DB50E96EEA6AAD0EEA02F3CFEAFF020E4C
:100C7000E902F350EA26AD0EE902F3CFE9FFF450A2
:100C8000EA26000EE926030EEA22030EE926000EEC
:100C9000EA221450EE24E76E1550EE20EA6EE7CFFC
:100CA000E9FFEF50E00FE76E040EE7CFDBFFDBCF8D
:100CB00014F014340EE2040EDBCF15F0630EE76E71
:100CC0001518E8AE02D0153403D0E750D88015547B
:100CD00002E2040EDB6AFE0EDB50E96EEA6AAD0E3C
:100CE000EA02F3CFEAFF020EE902F350EA26AD0E64
:100CF000E902F3CFE9FFF450EA26000EE926030EDD
:100D0000EA22080EE926000EEA22EFCF14F0FE0ECA
:100D1000DB50E96EEA6AAD0EEA02F3CFEAFF020E9B
:100D2000E902F350EA26AD0EE902F3CFE9FFF450F1
:100D3000EA26000EE926030EEA22050EE926000E39
:100D4000EA22EF50145C1BE3FE0EDB50E96EEA6A08
:100D5000AD0EEA02F3CFEAFF020EE902F350EA26F3
:100D6000AD0EE902F3CFE9FFF450EA26000EE926C2
:100D7000030EEA22080EE926000EEA22EF6A010EAF
:100D8000DB6A070EF36E010EDBCFF4FFF350F45C69
:100D900001E30ED1040EDBCF18F0196A18BE1968F2
:100DA000030ED89018361936E806FBE1620E1826B5
:100DB0004B0E1922010EDB500F011824F66E000EA7
:100DC0001920F76E0800F550E66EFE0EDB50E96E56
:100DD000EA6AAD0EEA02F3CFEAFF020EE902F3502F
:100DE000EA26AD0EE902F3CFE9FFF450EA26000E41
:100DF000E926030EEA22CD0EE926010EEA22E9CF0A
:100E000016F0EACF17F0DB50200D1650F324146EC5
:100E10001750F420156EDF500F011424E96E000EF8
:100E20001520EA6EE552E750EF6EFE0EDB50E96EDC
:100E3000EA6AAD0EEA02F3CFEAFF020EE902F350CE
:100E4000EA26AD0EE902F3CFE9FFF450EA26000EE0
:100E5000E926030EEA22CD0EE926010EEA22E9CFA9
:100E60001AF0EACF1BF0DB50200D1A50F324186E55
:100E70001B50F420196EDF501824E96E000E192063
:100E8000EA6EEF50E66EFE0EDB50E96EEA6AAD0EDA
:100E9000EA02F3CFEAFF020EE902F350EA26AD0EB2
:100EA000E902F3CFE9FFF450EA26000EE926030E2B
:100EB000EA220D0EE926000EEA22E9CF16F0EACF6B
:100EC00017F0010EDB50200D1650F324146E17504E
:100ED000F420156EDF501424E96E000E1520EA6E22
:100EE000E552E750EF6EFE0EDB50E96EEA6AAD0E9A
:100EF000EA02F3CFEAFF020EE902F350EA26AD0E52
:100F0000E902F3CFE9FFF450EA26000EE926030ECA
:100F1000EA22CD0EE926010EEA22E9CF1AF0EACF45
:100F20001BF0DB50200D1A50F324186E1B50F420D8
:100F3000196EDF501824E96E000E1920EA6EEF508A
:100F4000E66EFE0EDB50E96EEA6AAD0EEA02F3CF02
:100F5000EAFF020EE902F350EA26AD0EE902F3CFF2
:100F6000E9FFF450EA26000EE926030EEA220D0EF0
:100F7000E926000EEA22E9CF16F0EACF17F0E00EDC
:100F80001626000E1722010EDB50200D1650F324FA
:100F9000146E1750F420156EDF501424E96E000E05
:100FA0001520EA6EE552E750EF6E010EDB2AE9D616
:100FB000DF2A19D6FE0EDB50E96EEA6AAD0EEA02B0
:100FC000F3CFEAFF020EE902F350EA26AD0EE90282
:100FD000F3CFE9FFF450EA26000EE926030EEA22D9
:100FE000080EE926000EEA22EF6A010E00D0146E08
:100FF000070EE15C02E2E16AE552E16E1450E5524F
:10100000E7CFD9FF1200D9CFE6FFE1CFD9FFFE0E1F
:10101000DB50E96EEA6AAD0EEA02F3CFEAFF020E98
:10102000E902F350EA26AD0EE902F3CFE9FFF450EE
:10103000EA26000EE926030EEA22060EE926000E35
:10104000EA22FD0EDBCFEFFFFE0EDB50E96EEA6A0F
:10105000AD0EEA02F3CFEAFF020EE902F350EA26F0
:10106000AD0EE902F3CFE9FFF450EA26000EE926BF
:10107000030EEA22070EE926000EEA22FD0EDBCF60
:10108000EFFFE552E7CFD9FF1200D9CFE6FFE1CF5E
:10109000D9FF020EE126FD0EDB50146E156AFE0E1E
:1010A000DB50E96EEA6AAD0EEA02F3CFEAFF020E08
:1010B000E902F350EA26AD0EE902F3CFE9FFF4505E
:1010C000EA26000EE926030EEA22030EE926000EA8
:1010D000EA221450EE24E76E1550EE20EA6EE7CFB8
:1010E000E9FFEF50E00FE76E010EE7CFDBFFDF6AAD
:1010F000070EDF5C01E3D2D0010EDB50080DF3CF09
:1011000018F0F4CF19F0620E18264B0E1922DF509A
:101110000F011824F66E000E1920F76E0800F55026
:10112000E66EFE0EDB50E96EEA6AAD0EEA02F3CF20
:10113000EAFF020EE902F350EA26AD0EE902F3CF10
:10114000E9FFF450EA26000EE926030EEA22CD0E4E
:10115000E926010EEA22E9CF16F0EACF17F0DF50B8
:10116000200D1650F324146E1750F420156EFD0E4A
:10117000DB500F011424E96E000E1520EA6EE552D3
:10118000E750EF6EDF50200DF3CF18F0F4CF19F0D9
:10119000CD0E1826040E1922FD0EDB501824E96E20
:1011A000000E1920EA6EEF50E66EFE0EDB50E96E7F
:1011B000EA6AAD0EEA02F3CFEAFF020EE902F3504B
:1011C000EA26AD0EE902F3CFE9FFF450EA26000E5D
:1011D000E926030EEA220D0EE926000EEA22E9CFE7
:1011E00016F0EACF17F0DF50200D1650F324146EDE
:1011F0001750F420156EFD0EDB501424E96E000E1E
:101200001520EA6EE552E750EF6EDF50200DF3CF68
:1012100018F0F4CF19F0CD0E1826040E1922FD0E89
:10122000DB501824E96E000E1920EA6EEF50E66ECE
:10123000FE0EDB50E96EEA6AAD0EEA02F3CFEAFF7A
:10124000020EE902F350EA26AD0EE902F3CFE9FF00
:10125000F450EA26000EE926030EEA220D0EE926D6
:10126000000EEA22E9CF16F0EACF17F0E00E1626BC
:10127000000E1722DF50200D1650F324146E175065
:10128000F420156EFD0EDB501424E96E000E1520BF
:10129000EA6EE552E750EF6EDF2A2AD7020EE15CD4
:1012A00002E2E16AE552E16EE552E7CFD9FF1200B2
:1012B000D9CFE6FFE1CFD9FFE652FE0EDB50E96E53
:1012C000EA6AAD0EEA02F3CFEAFF020EE902F3503A
:1012D000EA26AD0EE902F3CFE9FFF450EA26000E4C
:1012E000E926030EEA22EE52EF6AFE0EDB50E96EAB
:1012F000EA6AAD0EEA02F3CFEAFF020EE902F3500A
:10130000EA26AD0EE902F3CFE9FFF450EA26000E1B
:10131000E926030EEA22030EE926000EEA22EE6A0F
:10132000ED6AFE0EDB50E96EEA6AAD0EEA02F3CF1B
:10133000EAFF020EE902F350EA26AD0EE902F3CF0E
:10134000E9FFF450EA26000EE926030EEA22050E14
:10135000E926000EEA22EF6AFE0EDB50E96EEA6A29
:10136000AD0EEA02F3CFEAFF020EE902F350EA26DD
:10137000AD0EE902F3CFE9FFF450EA26000EE926AC
:10138000030EEA22060EE926000EEA22EF6AFE0E9E
:10139000DB50E96EEA6AAD0EEA02F3CFEAFF020E15
:1013A000E902F350EA26AD0EE902F3CFE9FFF4506B
:1013B000EA26000EE926030EEA22090EE926000EAF
:1013C000EA22EF6AFE0EDB50E96EEA6AAD0EEA022F
:1013D000F3CFEAFF020EE902F350EA26AD0EE9026E
:1013E000F3CFE9FFF450EA26000EE926030EEA22C5
:1013F0000A0EE926000EEA22EF6AFE0EDB50E96EC5
:10140000EA6AAD0EEA02F3CFEAFF020EE902F350F8
:10141000EA26AD0EE902F3CFE9FFF450EA26000E0A
:10142000E926030EEA22070EE926000EEA22EF6AF9
:10143000FE0EDB50E96EEA6AAD0EEA02F3CFEAFF78
:10144000020EE902F350EA26AD0EE902F3CFE9FFFE
:10145000F450EA26000EE926030EEA220B0EE926D6
:10146000000EEA22EF6AFE0EDB50E96EEA6AAD0E6C
:10147000EA02F3CFEAFF020EE902F350EA26AD0ECC
:10148000E902F3CFE9FFF450EA26000EE926030E45
:10149000EA220C0EE926000EEA22EF6AFE0EDB506D
:1014A000E96EEA6AAD0EEA02F3CFEAFF020EE90244
:1014B000F350EA26AD0EE902F3CFE9FFF450EA2635
:1014C000000EE926030EEA22080EE926000EEA22A3
:1014D000EF6AFE0EDB50E96EEA6AAD0EEA02F3CF68
:1014E000EAFF020EE902F350EA26AD0EE902F3CF5D
:1014F000E9FFF450EA26000EE926030EEA22020E66
:10150000E926000EEA22EF6AE00EDF6EDFCFE6FF8B
:10151000E66AE66AFE0EDB50E96EEA6AAD0EEA02A2
:10152000F3CFEAFF020EE902F350EA26AD0EE9021C
:10153000F3CFE9FFF450EA26000EE926030EEA2273
:10154000CD0EE926010EEA22E9CF14F0EACF15F01C
:1015500014C0E6FF15C0E6FFA4EC30F0166E050ED1
:10156000E15E1650DFCFE6FFE66AE66AFE0EDB506C
:10157000E96EEA6AAD0EEA02F3CFEAFF020EE90273
:10158000F350EA26AD0EE902F3CFE9FFF450EA2664
:10159000000EE926030EEA220D0EE926000EEA22CD
:1015A000E9CF14F0EACF15F014C0E6FF15C0E6FF4E
:1015B000A4EC30F0166E050EE15E1650DFCFE6FFAC
:1015C000E66AE66AFE0EDB50E96EEA6AAD0EEA02F2
:1015D000F3CFEAFF020EE902F350EA26AD0EE9026C
:1015E000F3CFE9FFF450EA26000EE926030EEA22C3
:1015F0000D0EE926000EEA22E9CF14F0EACF15F02D
:10160000E00E1426000E152214C0E6FF15C0E6FFFA
:10161000A4EC30F0166E050EE15E1650E552E55270
:10162000E7CFD9FF1200D9CFE6FFE1CFD9FF050EF2
:10163000E126DF6A010EDF5C02E357EF10F0DF50B6
:10164000E96EEA6AAD0EEA02F3CFEAFF020EE902A2
:10165000F350EA26AD0EE902F3CFE9FFF450EA2693
:10166000000EE926030EEA22060EE926000EEA2203
:10167000EF5038E0DF50E96EEA6AAD0EEA02F3CFD0
:10168000EAFF020EE902F350EA26AD0EE902F3CFBB
:10169000E9FFF450EA26000EE926030EEA22070EBF
:1016A000E926000EEA22EF06DF50E96EEA6AAD0E87
:1016B000EA02F3CFEAFF020EE902F350EA26AD0E8A
:1016C000E902F3CFE9FFF450EA26000EE926030E03
:1016D000EA22070EE926000EEA22EF50000802E295
:1016E00054EF10F0DF50E96EEA6AAD0EEA02F3CF74
:1016F000EAFF020EE902F350EA26AD0EE902F3CF4B
:10170000E9FFF450EA26000EE926030EEA22060E4F
:10171000E926000EEA22EF50E66EDF50E96EEA6A33
:10172000AD0EEA02F3CFEAFF020EE902F350EA2619
:10173000AD0EE902F3CFE9FFF450EA26000EE926E8
:10174000030EEA22070EE926000EEA22E552E750D0
:10175000EF6E9D90DF50E96EEA6AAD0EEA02F3CFBC
:10176000EAFF020EE902F350EA26AD0EE902F3CFDA
:10177000E9FFF450EA26000EE926030EEA22090EDC
:10178000E926000EEA22EF503BE1DF50E96EEA6AFB
:10179000AD0EEA02F3CFEAFF020EE902F350EA26A9
:1017A000AD0EE902F3CFE9FFF450EA26000EE92678
:1017B000030EEA220C0EE926000EEA22EF5002E1A7
:1017C000010E01D0000EE66EDF50E96EEA6AAD0E42
:1017D000EA02F3CFEAFF020EE902F350EA26AD0E69
:1017E000E902F3CFE9FFF450EA26000EE926030EE2
:1017F000EA220B0EE926000EEA22E552E750EF6ED0
:10180000DF50E96EEA6AAD0EEA02F3CFEAFF020E9C
:10181000E902F350EA26AD0EE902F3CFE9FFF450F6
:10182000EA26000EE926030EEA22090EE926000E3A
:10183000EA22EF0403E19D8054EF10F09D80DF5019
:10184000E96EEA6AAD0EEA02F3CFEAFF020EE902A0
:10185000F350EA26AD0EE902F3CFE9FFF450EA2691
:10186000000EE926030EEA22060EE926000EEA2201
:10187000EF5002E137EF10F0010EDB6A070EF36E56
:10188000010EDBCFF4FFF350F45C01E332D3010E21
:10189000F36E020EF3CFDBFFDF50E96EEA6AAD0EA6
:1018A000EA02F3CFEAFF020EE902F350EA26AD0E98
:1018B000E902F3CFE9FFF450EA26000EE926030E11
:1018C000EA22020EE926000EEA22EF50F36E020E23
:1018D000DBCFF4FFF350F45C01E359D1DF50E96E44
:1018E000EA6AAD0EEA02F3CFEAFF020EE902F35014
:1018F000EA26AD0EE902F3CFE9FFF450EA26000E26
:10190000E926030EEA22CD0EE926010EEA22E9CFEE
:1019100016F0EACF17F0DB50200D1650F324146EAA
:101920001750F420156E020EDB040F011424E96E2B
:10193000000E1520EA6EEF9EEF46070EE66EDF50B2
:10194000E96EEA6AAD0EEA02F3CFEAFF020EE9029F
:10195000F350EA26AD0EE902F3CFE9FFF450EA2690
:10196000000EE926030EEA22CD0EE926010EEA2238
:10197000E9CF16F0EACF17F0DB50200D1650F32414
:10198000146E1750F420156E020EDB501424E96E0D
:10199000000E1520EA6EEF50E66E50EC00F0E552B6
:1019A000E552010839E1030EE66EDF50E96EEA6A9E
:1019B000AD0EEA02F3CFEAFF020EE902F350EA2687
:1019C000AD0EE902F3CFE9FFF450EA26000EE92656
:1019D000030EEA22CD0EE926010EEA22E9CF18F025
:1019E000EACF19F0DB50200D1850F324166E195071
:1019F000F420176E020EDB0400011624146E000E94
:101A00001720156E14C0E6FF15C0E6FF70EC00F05D
:101A1000E552E552E55238D0030EE66EDF50E96E2E
:101A2000EA6AAD0EEA02F3CFEAFF020EE902F350D2
:101A3000EA26AD0EE902F3CFE9FFF450EA26000EE4
:101A4000E926030EEA22CD0EE926010EEA22E9CFAD
:101A500018F0EACF19F0DB50200D1850F324166E61
:101A60001950F420176E020EDB0400011624146EC8
:101A7000000E1720156E14C0E6FF15C0E6FF8BECB4
:101A800000F0E552E552E552DF50E96EEA6AAD0E2C
:101A9000EA02F3CFEAFF020EE902F350EA26AD0EA6
:101AA000E902F3CFE9FFF450EA26000EE926030E1F
:101AB000EA22CD0EE926010EEA22E9CF1CF0EACF98
:101AC0001DF0DB50200D1C50F3241A6E1D50F42025
:101AD0001B6E020EDB040F011A24E96E000E1B20A0
:101AE000EA6EEF50E66EDF50E96EEA6AAD0EEA028A
:101AF000F3CFEAFF020EE902F350EA26AD0EE90247
:101B0000F3CFE9FFF450EA26000EE926030EEA229D
:101B10000D0EE926000EEA22E9CF18F0EACF19F0FF
:101B2000DF50E96EEA6AAD0EEA02F3CFEAFF020E79
:101B3000E902F350EA26AD0EE902F3CFE9FFF450D3
:101B4000EA26000EE926030EEA220B0EE926000E15
:101B5000EA22EF50E00D1850F324166E1950F420CD
:101B6000176E010EDB50200D1650F324146E175023
:101B7000F420156E020EDB041424E96E000E15200D
:101B8000EA6EE552E750EF6E020EDB2A85D6DF5093
:101B9000E96EEA6AAD0EEA02F3CFEAFF020EE9024D
:101BA000F350EA26AD0EE902F3CFE9FFF450EA263E
:101BB000000EE926030EEA22CD0EE926010EEA22E6
:101BC000E9CF16F0EACF17F0DB50200D1650F324C2
:101BD000146E1750F420156E020EDB040F0114244E
:101BE000E96E000E1520EA6EEF9EEF46DF50E96EBB
:101BF000EA6AAD0EEA02F3CFEAFF020EE902F35001
:101C0000EA26AD0EE902F3CFE9FFF450EA26000E12
:101C1000E926030EEA22080EE926000EEA22EF501A
:101C2000146E156ADF50E96EEA6AAD0EEA02F3CF70
:101C3000EAFF020EE902F350EA26AD0EE902F3CF05
:101C4000E9FFF450EA26000EE926030EEA22030E0D
:101C5000E926000EEA221450EE24E76E1550EE201D
:101C6000EA6EE7CFE9FFEF50E00FE76E030EE7CF34
:101C7000DBFF000EF36E030EDBCFF4FFF350F45CDA
:101C800004E3030EDB50630802E2030EDB6A030E7B
:101C9000DB50080DF3CF14F0F4CF15F0620E1426CC
:101CA0004B0E1522010EDB500F011424F66E000EB0
:101CB0001520F76E0800040EF5CFDBFF070E146E3B
:101CC000DF50E96EEA6AAD0EEA02F3CFEAFF020ED8
:101CD000E902F350EA26AD0EE902F3CFE9FFF45032
:101CE000EA26000EE926030EEA220A0EE926000E75
:101CF000EA22EF50145CE66E040EDBCFE6FF50ECF8
:101D000000F0E552E552010839E1030EE66EDF50BE
:101D1000E96EEA6AAD0EEA02F3CFEAFF020EE902CB
:101D2000F350EA26AD0EE902F3CFE9FFF450EA26BC
:101D3000000EE926030EEA22CD0EE926010EEA2264
:101D4000E9CF18F0EACF19F0DB50200D1850F3243A
:101D5000166E1950F420176E020EDB0400011624D3
:101D6000146E000E1720156E14C0E6FF15C0E6FFB6
:101D700070EC00F0E552E552E55238D0030EE66E05
:101D8000DF50E96EEA6AAD0EEA02F3CFEAFF020E17
:101D9000E902F350EA26AD0EE902F3CFE9FFF45071
:101DA000EA26000EE926030EEA22CD0EE926010EF0
:101DB000EA22E9CF18F0EACF19F0DB50200D1850D5
:101DC000F324166E1950F420176E020EDB04000186
:101DD0001624146E000E1720156E14C0E6FF15C0F1
:101DE000E6FF8BEC00F0E552E552E552DF50E96E7C
:101DF000EA6AAD0EEA02F3CFEAFF020EE902F350FF
:101E0000EA26AD0EE902F3CFE9FFF450EA26000E10
:101E1000E926030EEA22CD0EE926010EEA22E9CFD9
:101E20001CF0EACF1DF0DB50200D1C50F3241A6E7D
:101E30001D50F4201B6E020EDB040F011A24E96E04
:101E4000000E1B20EA6EEF50E66EDF50E96EEA6A84
:101E5000AD0EEA02F3CFEAFF020EE902F350EA26E2
:101E6000AD0EE902F3CFE9FFF450EA26000EE926B1
:101E7000030EEA220D0EE926000EEA22E9CF18F041
:101E8000EACF19F0DF50E96EEA6AAD0EEA02F3CF4D
:101E9000EAFF020EE902F350EA26AD0EE902F3CFA3
:101EA000E9FFF450EA26000EE926030EEA220B0EA3
:101EB000E926000EEA22EF50E00D1850F324166ECA
:101EC0001950F420176E010EDB50200D1650F3242C
:101ED000146E1750F420156E020EDB041424E96E04
:101EE000000E1520EA6EE552E750EF6E010EDB2A78
:101EF000C5D4DF50E96EEA6AAD0EEA02F3CFEAFF1D
:101F0000020EE902F350EA26AD0EE902F3CFE9FF33
:101F1000F450EA26000EE926030EEA220A0EE9260C
:101F2000000EEA22EF2ADF50E96EEA6AAD0EEA02FD
:101F3000F3CFEAFF020EE902F350EA26AD0EE90202
:101F4000F3CFE9FFF450EA26000EE926030EEA2259
:101F50000A0EE926000EEA22EFCF14F0050E145CFB
:101F600001E285D0DF50E96EEA6AAD0EEA02F3CFF6
:101F7000EAFF020EE902F350EA26AD0EE902F3CFC2
:101F8000E9FFF450EA26000EE926030EEA22080EC5
:101F9000E926000EEA22EF2ADF50E96EEA6AAD0E6A
:101FA000EA02F3CFEAFF020EE902F350EA26AD0E91
:101FB000E902F3CFE9FFF450EA26000EE926030E0A
:101FC000EA22080EE926000EEA22EFCF14F0DF50D5
:101FD000E96EEA6AAD0EEA02F3CFEAFF020EE90209
:101FE000F350EA26AD0EE902F3CFE9FFF450EA26FA
:101FF000000EE926030EEA22050EE926000EEA226B
:10200000EF50145C1AE3DF50E96EEA6AAD0EEA02A3
:10201000F3CFEAFF020EE902F350EA26AD0EE90221
:10202000F3CFE9FFF450EA26000EE926030EEA2278
:10203000080EE926000EEA22EF6ADF50E96EEA6A2E
:10204000AD0EEA02F3CFEAFF020EE902F350EA26F0
:10205000AD0EE902F3CFE9FFF450EA26000EE926BF
:10206000030EEA220A0EE926000EEA22EF6A9D908C
:10207000DF50E96EEA6AAD0EEA02F3CFEAFF020E24
:10208000E902F350EA26AD0EE902F3CFE9FFF4507E
:10209000EA26000EE926030EEA22090EE926000EC2
:1020A000EA22010EEF6E9D80DF2A1AEF0BF0050E7B
:1020B000E15C02E2E16AE552E16EE552E7CFD9FF69
:1020C0001200D9CFE6FFE1CFD9FF040EE1268390BD
:1020D0008392839483968398839A839C839E020E33
:1020E000DB6A010EF36E020EDBCFF4FFF350F45CFB
:1020F00001E3BDD0030EDB6A020EDB50E96EEA6A33
:10210000AD0EEA02F3CFEAFF020EE902F350EA262F
:10211000AD0EE902F3CFE9FFF450EA26000EE926FE
:10212000030EEA22020EE926000EEA22EF50F36EB9
:10213000030EDBCFF4FFF350F45C01E395D0020E05
:10214000DB50E96EEA6AAD0EEA02F3CFEAFF020E57
:10215000E902F350EA26AD0EE902F3CFE9FFF450AD
:10216000EA26000EE926030EEA220D0EE926000EED
:10217000EA22E9CF18F0EACF19F0020EDB50E96E3F
:10218000EA6AAD0EEA02F3CFEAFF020EE902F3506B
:10219000EA26AD0EE902F3CFE9FFF450EA26000E7D
:1021A000E926030EEA220C0EE926000EEA22EF5081
:1021B000E00D1850F324166E1950F420176E050127
:1021C000AD51200D1650F324146E1750F420156EE7
:1021D000030EDB500F011424E96E000E1520EA6E89
:1021E000EFCFDFFF030EDBCFE6FF020EDB50E96E21
:1021F000EA6AAD0EEA02F3CFEAFF020EE902F350FB
:10220000EA26AD0EE902F3CFE9FFF450EA26000E0C
:10221000E926030EEA22EE52EF50E552E724E76E7C
:10222000010EE7CFDBFF400EF36E010EDBCFF4FFB4
:10223000F350F45C0AE3800E146E010EDBCFE7FF6F
:102240001450E726010EE7CFDBFF010EDB50846E52
:10225000DF1C856E8696080EE66EF1EC32F0E552D4
:102260008686030EDB2A48D7020EDB2A3AD7050101
:10227000AD51070A4EE0010A43E0030A38E0010AC3
:102280002DE0070A22E0010A17E0030A0CE0010A28
:1022900001E048D083808392839483968398839AC5
:1022A000839C839E3FD0839083828394839683987C
:1022B000839A839C839E36D0839083928384839673
:1022C0008398839A839C839E2DD08390839283945A
:1022D00083868398839A839C839E24D08390839261
:1022E000839483968388839A839C839E1BD0839058
:1022F0008392839483968398838A839C839E12D04F
:1023000083908392839483968398839A838C839E0D
:1023100009D083908392839483968398839A839C35
:10232000838E00D0AD2BAD51070801E2AD6B040EDA
:10233000E15C02E2E16AE552E16EE552E7CFD9FFE6
:102340001200D9CFE6FFE1CFD9FF400EF36EFE0EAB
:10235000DBCFF4FFF350F45C0AE3800E146EFE0E44
:10236000DBCFE7FF1450E726FE0EE7CFDBFF8686C4
:10237000FE0EDB50846EFD0EDB50856E8696500E91
:10238000E66EF1EC32F0E5528686E552E7CFD9FFF2
:02239000120039
:0E239200D9CFE6FFE1CFD9FF040EE126020EFF
:1023A000DB6AFB0EDBCFE9FFFC0EDBCFEAFF050E9D
:1023B000EE1801E1ED5051E1010EE76EFD0EDBCFAD
:1023C000E9FFFE0EDBCFEAFFE750E926000EEA2226
:1023D000EF50000EF350DE6EDD6A020EE76EFD0E6A
:1023E000DBCFE9FFFE0EDBCFEAFFE750E926000E68
:1023F000EA22EF50DF12DF2A010E01E3DB2AE66E4C
:10240000E66EE66ADECFE6FFDDCFE6FF030EE76E9F
:10241000FD0EDBCF14F0FE0EDBCF15F0E7501426D7
:10242000000E152214C0E6FF15C0E6FF9BEC27F056
:10243000166E070EE15E1650E76E030EE7CFDBFF68
:10244000DB500AE0030EDBCFE6FFCFEC23F0E552D2
:10245000E76E020EE7CFDBFF05D0030EF36E020E30
:10246000F3CFDBFF020EDB50146E040EE15C03E2DF
:1024700000D0E16AE552E16E1450E552E7CFD9FF92
:102480001200D9CFE6FFE1CFD9FF070EE126050EF6
:10249000DB6AFB0EDBCFE9FFFC0EDBCFEAFFEECF02
:1024A00014F0EFCF15F0060E145C000E155801E283
:1024B000D7D0010EE76EFD0EDBCFE9FFFE0EDBCFBE
:1024C000EAFFE750E926000EEA22EF50DE6EDD6AF1
:1024D000D9CFE9FFDACFEAFFEE50ED6EEF6A020ED8
:1024E000E76EFD0EDBCFE9FFFE0EDBCFEAFFE75024
:1024F000E926000EEA22EF50DF12DF2A010E01E387
:10250000DB2A030EE76EFD0EDBCFE9FFFE0EDBCF0D
:10251000EAFFE750E926000EEA22EF50E66ED950B6
:10252000020FE96EDACFEAFFE552E750EE6EED6A90
:10253000D950020FE96EDACFEAFFEE50ED6EEF6A86
:10254000040EE76EFD0EDBCFE9FFFE0EDBCFEAFFE8
:10255000E750E926000EEA22EF50146E156AD950B2
:10256000020FE96EDACFEAFF1450EE121550ED12A9
:10257000050EE76EFD0EDBCFE9FFFE0EDBCFEAFFB7
:10258000E750E926000EEA22040EEFCFDBFF020E31
:10259000DBCF14F0030EDBCF15F0010E145C000E40
:1025A000155858E3D950020FE96EDACFEAFF780EDA
:1025B000D880EE54000EED544DE3020E086E096A09
:1025C000DBCF0DF0030EDBCF0EF012EC32F0065035
:1025D000F36E040EDB50F35C3DE1010EE66E020E7D
:1025E000DBCFE6FF030EDBCFE6FFDECFE6FFDDCF7E
:1025F000E6FF060EE76EFD0EDBCF14F0FE0EDBCF1E
:1026000015F0E7501426000E152214C0E6FF15C081
:10261000E6FF9BEC27F0166E070EE15E1650E76EA4
:10262000060EE7CFDBFFDB500BE0060EDBCFE6FF4D
:10263000CFEC23F0E552E76E050EE7CFDBFF09D0C4
:10264000FB0EDBCFE9FFFC0EDBCFEAFF050EEE6EE3
:10265000ED6A05D0030EF36E050EF3CFDBFF05D058
:10266000030EF36E050EF3CFDBFFDB50146E070E87
:10267000E15C03E200D0E16AE552E16E1450E552FC
:10268000E7CFD9FF1200D9CFE6FFE1CFD9FF080E7F
:10269000E126060EDB6AFB0EDBCFE9FFFC0EDBCF8B
:1026A000EAFF050EEE1801E1ED5001E004D1010E44
:1026B000E76EFD0EDBCFE9FFFE0EDBCFEAFFE75052
:1026C000E926000EEA22EF50DE6EDD6AD9CFE9FF7F
:1026D000DACFEAFFEE50ED6EEF6A020EE76EFD0E06
:1026E000DBCFE9FFFE0EDBCFEAFFE750E926000E65
:1026F000EA22EF50DF12DF2A010E01E3DB2A030E8C
:10270000E76EFD0EDBCFE9FFFE0EDBCFEAFFE75001
:10271000E926000EEA22EF50E66ED950020FE96E6C
:10272000DACFEAFFE552E750EE6EED6AD950020FBC
:10273000E96EDACFEAFFEE50ED6EEF6A040EE76E57
:10274000FD0EDBCFE9FFFE0EDBCFEAFFE750E92607
:10275000000EEA22EF50E66ED950020FE96EDACF92
:10276000EAFFE552E750EE6EED6A020EDBCF14F0A1
:10277000030EDBCF15F0010E145C000E155801E2BC
:1027800094D0D950020FE96EDACFEAFF7D0ED880DF
:10279000EE54000EED5401E288D0FD0EDBCF08F0C0
:1027A000FE0EDBCF09F0040E08C0DBFF050E09C0EA
:1027B000DBFFFB0EDBCFE9FFFC0EDBCFEAFFEE6AAF
:1027C000ED6A040EDBCFE9FFDB2A050EDBCFEAFF63
:1027D00001E3DB2A030EEF6EFB0EDBCFE9FFFC0EFD
:1027E000DBCFEAFFEE2A000EED22020E086E096A28
:1027F000DBCF0DF0030EDBCF0EF012EC32F0065003
:10280000E66E040EDBCFE9FFDB2A050EDBCFEAFF25
:1028100001E3DB2AE552E750EF6EFB0EDBCFE9FF69
:10282000FC0EDBCFEAFFEE2A000EED22E66A020E76
:10283000DBCFE6FF030EDBCFE6FFDECFE6FFDDCF2B
:10284000E6FF040EDBCFE6FF050EDBCFE6FF9BECD9
:1028500027F0146E070EE15E1450E76E070EE7CF07
:10286000DBFFDB500BE0070EDBCFE6FFCFEC23F006
:10287000E552E76E060EE7CFDBFF16D0020EDBCF88
:1028800014F0030EDBCF15F0010ED8901436153678
:10289000E806FBE1FB0EDBCFE9FFFC0EDBCFEAFF36
:1028A0001450EE261550ED2205D0030EF36E060EE1
:1028B000F3CFDBFF05D0030EF36E060EF3CFDBFF85
:1028C000060EDB50146E080EE15C03E200D0E16AF4
:1028D000E552E16E1450E552E7CFD9FF1200D9CF8F
:1028E000E6FFE1CFD9FF0D0EE1260B0EDB6AFB0EF2
:1028F000DBCFE9FFFC0EDBCFEAFFEECF14F0EFCF2A
:1029000015F00A0E145C000E155801E2D0D1010E2C
:10291000E76EFD0EDBCFE9FFFE0EDBCFEAFFE750EF
:10292000E926000EEA22EF50000EF350DE6EDD6A5B
:10293000020EE76EFD0EDBCFE9FFFE0EDBCFEAFFF6
:10294000E750E926000EEA22EF50DF12DF2A010EDF
:1029500001E3DB2A030EE76EFD0EDBCFE9FFFE0E7F
:10296000DBCFEAFFE750E926000EEA22EF50000E27
:10297000F350E66ED950020FE96EDACFEAFFE55266
:10298000E750EE6EED6A040EE76EFD0EDBCFE9FF59
:10299000FE0EDBCFEAFFE750E926000EEA22EF50F9
:1029A000146E156AD950020FE96EDACFEAFF14509F
:1029B000EE121550ED12050EE76EFD0EDBCFE9FFAE
:1029C000FE0EDBCFEAFFE750E926000EEA22EF50C9
:1029D000000EF350E66ED950040FE96EDACFEAFF2D
:1029E000E552E750EE6EED6A060EE76EFD0EDBCFA8
:1029F000E9FFFE0EDBCFEAFFE750E926000EEA22F0
:102A0000EF50146E156AD950040FE96EDACFEAFF61
:102A10001450EE121550ED12040EDB2A050E01E3E0
:102A2000DB2A070EE76EFD0EDBCFE9FFFE0EDBCFE4
:102A3000EAFFE750E926000EEA22EF50000EF350BD
:102A4000E66ED950060FE96EDACFEAFFE552E7509D
:102A5000EE6EED6A080EE76EFD0EDBCFE9FFFE0EAF
:102A6000DBCFEAFFE750E926000EEA22EF50146EB2
:102A7000156AD950060FE96EDACFEAFF1450EE124C
:102A80001550ED12090EE76EFD0EDBCFE9FFFE0ECD
:102A9000DBCFEAFFE750E926000EEA22080EEFCF6F
:102AA000DBFF020EDBCF14F0030EDBCF15F0010EBF
:102AB000145C000E155801E2F5D0D950020FE96EF2
:102AC000DACFEAFF7D0ED880EE54000EED5401E21D
:102AD000E9D0060EDBCF16F0070EDBCF17F0010EA4
:102AE000165C000E175801E2DDD0D950060FE96ED2
:102AF000DACFEAFF790ED880EE54000EED5401E2F1
:102B0000D1D0020E086E096A060EDBCF0DF0070E5B
:102B1000DBCF0EF012EC32F006C018F007C019F04F
:102B2000080EDB501A6E1B6A1A50181802E11B506F
:102B3000191801E0B7D0010EE66E060EDBCFE6FFF6
:102B4000070EDBCFE6FF040EDBCFE6FF050EDBCF83
:102B5000E6FF0A0EE76EFD0EDBCF14F0FE0EDBCFB4
:102B600015F0E7501426000E152214C0E6FF15C01C
:102B7000E6FF9BEC27F0166E070EE15E1650E76E3F
:102B80000C0EE7CFDBFFDB5001E07ED0FD0EDBCF8C
:102B900008F0FE0EDBCF09F0090E08C0DBFF0A0EBD
:102BA00009C0DBFFFB0EDBCFE9FFFC0EDBCFEAFF4A
:102BB000EE6AED6A090EDBCFE9FFDB2A0A0EDBCFF6
:102BC000EAFF01E3DB2A170EEF6EFB0EDBCFE9FF16
:102BD000FC0EDBCFEAFFEE2A000EED22020E086E9D
:102BE000096ADBCF0DF0030EDBCF0EF012EC32F0F2
:102BF0000650E66E090EDBCFE9FFDB2A0A0EDBCFBB
:102C0000EAFF01E3DB2AE552E750EF6EFB0EDBCF74
:102C1000E9FFFC0EDBCFEAFFEE2A000EED22E66AAA
:102C2000020EDBCFE6FF030EDBCFE6FFDECFE6FFD3
:102C3000DDCFE6FF090EDBCFE6FF0A0EDBCFE6FFB6
:102C40009BEC27F0146E070EE15E1450E76E0C0E3D
:102C5000E7CFDBFFDB5018E1020E086E096ADBCF1D
:102C60000DF0030EDBCF0EF012EC32F006C014F0C4
:102C700007C015F0FB0EDBCFE9FFFC0EDBCFEAFF50
:102C80001450EE261550ED220C0EDB500AE00C0E0F
:102C9000DBCFE6FFCFEC23F0E552E76E0B0EE7CF7C
:102CA000DBFF05D0030EF36E0B0EF3CFDBFF0B0E35
:102CB000DB50146E0D0EE15C03E200D0E16AE552D8
:0C2CC000E16E1450E552E7CFD9FF12007E
:042CCC00D9CFE6FF77
:102CD000E1CFD9FF030EE126FE0EDB50200802E211
:102CE000000E39D0FE0EDBCFA1F0DF6A0001A1514A
:102CF000DF5C0AE2DF50EA6A810FE96E000EEA2229
:102D0000F6C0EFFFDF2AF2D7610EA76F000EA86FA3
:102D1000010EDB6A200EF36E010EDBCFF4FFF350E1
:102D2000F45C16E2DF6A0B0EDF5C0DE2DF50EA6A4C
:102D3000EC0FE96E000EEA22EF508009E66E4ED9E4
:102D4000E552DF2AF0D70001A22B010EDB2AE2D7E1
:102D5000A26B010E00D0146E030EE15C02E2E16A88
:102D6000E552E16E1450E552E7CFD9FF12000001A1
:102D70006051010A14E0010A01E03BD0A251EA6A65
:102D8000A725E96EA851EA22EF50E66E27D9E55251
:102D90000001A22B200EA25D01E3A26B2AD0A2515A
:102DA000EA6AA725E96EA851EA22EF50E66E16D925
:102DB000E5520001A22B0C0EA25D01E3A26BA32B36
:102DC000000EA423A551A35DA651A45911E3A36B42
:102DD000A46B610EA71902E1000EA81905E1810E8E
:102DE000A76F000EA86F04D0610EA76F000EA86F2A
:102DF00000D01200D9CFE6FFE1CFD9FFE652DF6A5B
:102E0000DF6A0001A151DF5C38E2DF50E76EFD0EA2
:102E1000DBCFE9FFFE0EDBCFEAFFE750E926000E2D
:102E2000EA22EF50200809E1DF50EA6A610FE96EFB
:102E3000000EEA22F6C0EFFF1ED0DF50E76EFD0E57
:102E4000DBCFE9FFFE0EDBCFEAFFE750E926000EFD
:102E5000EA22EF50D00FEA6AEC0FE96E000EEA2288
:102E6000EF50E66EDF50EA6A610FE96E000EEA226B
:102E7000E552E750EF6EDF2AC4D7A26B010E00D0F7
:102E8000E552E552E7CFD9FF1200D9CFE6FFE1CFF7
:102E9000D9FFE652DF6ADF6A0001A151DF5C19E267
:102EA000DF50E76EFD0EDBCFE9FFFE0EDBCFEAFF62
:102EB000E750E926000EEA22EF50E66EDF50EA6A9C
:102EC000610FE96E000EEA22E552E750EF6EDF2A4D
:102ED000E3D7A26BE552E552E7CFD9FF1200D9CF75
:102EE000E6FFE1CFD9FFE652DF6AFE0EDBCF14F03A
:102EF0000001A151D880145402E2000E2DD0FD0E25
:102F0000DBCFE6FFCED8E552000902E1000E24D067
:102F1000FD0EDB5020080AE1FE0EDB50EA6A610F6D
:102F2000E96E000EEA22F6C0EFFF14D0FD0EDB5072
:102F3000D00FEA6AEC0FE96E000EEA22EF50E66E5F
:102F4000FE0EDB50EA6A610FE96E000EEA22E552DE
:102F5000E750EF6E010E00D0E552E552E7CFD9FF02
:102F60001200D9CFE6FFE1CFD9FFFD0EDBCFA5F0F0
:102F7000FE0EDBCFA6F0010E0F0B000105E0D8908E
:102F8000A633A533E806FBE10001A36BA46B010E99
:102F9000606FE552E7CFD9FF12000001610EA76F05
:102FA000000EA86F606B1200D9CFE6FFE1CFD9FF0A
:102FB000E652DF6A0001A151DF5C0AE2DF50EA6AF3
:102FC000610FE96E000EEA22F6C0EFFFDF2AF2D7AA
:102FD000A26BE552E552E7CFD9FF1200D9CFE6FF49
:102FE000E1CFD9FFE652010EDF6E806A816A826A04
:102FF000876A080EE66EF1EC32F0E552FE0EDB5009
:10300000886E080E0001A25D0FE2A251070B04E0DA
:10301000DF46DF90E806FCE1DF50806EDF50816E16
:10302000DF50826EDF50876E080EE66EF1EC32F0F4
:10303000E552E552E552E7CFD9FF1200D9CFE6FFBE
:10304000E1CFD9FF020EE126FE0EDB50DF6EFE0E51
:10305000DBCFE6FFFD0EDB50E552E724DF5C17E235
:10306000DF50EA6A610FE96E000EEA22010EEFCF2F
:10307000DBFFDB508009E66EDF50EA6A610FE96E24
:10308000000EEA22E552E750EF6EDF2AE0D7020E8B
:10309000E15C02E2E16AE552E16EE552E7CFD9FF79
:1030A0001200D9CFE6FFE1CFD9FFE652DF6AFE0E6C
:1030B000DB50200803E1010EDF6E0ED0300EF36E00
:1030C000FE0EDBCFF4FFF350F45C06E3FE0EDB50A4
:1030D000390802E3010EDF6EDF5000D0E552E55201
:1030E000E7CFD9FF1200D9CFE6FFE1CFD9FF020E1B
:1030F000E126DF6A010EDB6ADF6AFB0EDB50DF5C74
:1031000002E2DF2AFAD7FC0EDB50DF6EFB0EDBCFCC
:10311000E6FFFC0EDB50E552E724DF5C3BE2DF50CC
:10312000E76EFD0EDBCFE9FFFE0EDBCFEAFFE750D7
:10313000E926000EEA22EF50200809E1DF50EA6A92
:10314000610FE96E000EEA22F6C0EFFF1FD0010EFC
:10315000DB50E76EFD0EDBCFE9FFFE0EDBCFEAFFB3
:10316000E750E926000EEA22EF50D00FEA6AEC0F92
:10317000E96E000EEA22EF50E66EDF50EA6A610F58
:10318000E96E000EEA22E552E750EF6EDF2A010EEB
:10319000DB2ABCD70001A26B010E146E020EE15CAB
:1031A00003E200D0E16AE552E16E1450E552E7CF48
:1031B000D9FF1200D9CFE6FFE1CFD9FF020EE126F9
:1031C000DF6A010EDB6ADF6AFB0EDB50DF5C02E2C6
:1031D000DF2AFAD7DF6AFB0EDB50DF5C3EE2DF500E
:1031E000E76EFD0EDBCFE9FFFE0EDBCFEAFFE75017
:1031F000E926000EEA22EF5020080BE1FC0EDB501E
:10320000DF24EA6A610FE96E000EEA22F6C0EFFFE2
:1032100020D0DF50E76EFD0EDBCFE9FFFE0EDBCFE7
:10322000EAFFE750E926000EEA22EF50D00FEA6AE3
:10323000EC0FE96E000EEA22EF50E66EFC0EDB505A
:10324000DF24EA6A610FE96E000EEA22E552E750D8
:10325000EF6EDF2A010EDB2ABED70001A26B010E42
:10326000146E020EE15C03E200D0E16AE552E16E09
:103270001450E552E7CFD9FF1200D9CFE6FFE1CFD6
:10328000D9FFE652FD0EDBCFA5F0FE0EDBCFA6F098
:10329000010E0F0B000105E0D890A633A533E80618
:1032A000FBE10001A36BA46BFC0EDB50A96FAA6BC2
:1032B000DF6AA151DF5C1CE2DF50146E156AA95170
:1032C000141802E1AA51151811E0DF50EA6A610FE3
:1032D000E96E000EEA22EF50E66EDF50EA6A810FD7
:1032E000E96E000EEA22E552E750EF6EDF2AE1D7E1
:1032F000810EA925E96E000EAA21EA6EEF6A010E81
:0C330000606FE552E552E7CFD9FF1200E4
:04330C00D9CFE6FF30
:10331000E1CFD9FF090EE126070EDB6AFB0EDBCFFA
:10332000E9FFFC0EDBCFEAFF050EEE1801E1ED50E0
:1033300001E011D1010EE76EFD0EDBCFE9FFFE0EBD
:10334000DBCFEAFFE750E926000EEA22EF50000E3D
:10335000F350DE6EDD6A020EE76EFD0EDBCFE9FF95
:10336000FE0EDBCFEAFFE750E926000EEA22EF501F
:10337000DF12DF2A010E01E3DB2A030EE76EFD0EEA
:10338000DBCFE9FFFE0EDBCFEAFFE750E926000EB8
:10339000EA22EF50000EF350E66ED950020FE96EAC
:1033A000DACFEAFFE552E750EE6EED6A040EE76E03
:1033B000FD0EDBCFE9FFFE0EDBCFEAFFE750E9268B
:1033C000000EEA22EF50146E156AD950020FE96E12
:1033D000DACFEAFF1450EE121550ED12020EDBCFD9
:1033E00014F0030EDBCF15F0010E145C000E15581F
:1033F00001E2ABD0020EDBCF16F0030EDBCF17F0ED
:10340000D00E165C070E175801E39FD0FD0EDBCFE0
:1034100008F0FE0EDBCF09F0050E08C0DBFF060E3C
:1034200009C0DBFFFB0EDBCFE9FFFC0EDBCFEAFFC1
:10343000EE6AED6A050EDBCFE9FFDB2A060EDBCF75
:10344000EAFF01E3DB2A010EEF6EFB0EDBCFE9FFA3
:10345000FC0EDBCFEAFFEE2A000EED22020EDB505F
:10346000070B15E0020EDBCF14F0030EDBCF15F0D7
:103470000F0B05E0D89015321432E806FBE1010E7F
:103480001426000E1522040E14C0DBFF12D0080E05
:10349000146E156A020EDBCF08F0030EDBCF09F0C5
:1034A00014C00DF015C00EF0A0EC32F0040E08C0F0
:1034B000DBFF050EDBCFE9FFDB2A060EDBCFEAFFE1
:1034C00001E3DB2A040EDBCFEFFFFB0EDBCFE9FFCE
:1034D000FC0EDBCFEAFFEE2A000EED22E66A020EBA
:1034E000DBCFE6FF030EDBCFE6FFDECFE6FFDDCF6F
:1034F000E6FF050EDBCFE6FF060EDBCFE6FF26EC90
:1035000028F0146E070EE15E1450E76E080EE7CF48
:10351000DBFFDB500BE0080EDBCFE6FFCFEC23F048
:10352000E552E76E070EE7CFDBFF0ED0040EDB504F
:10353000146E156AFB0EDBCFE9FFFC0EDBCFEAFF52
:103540001450EE261550ED2205D0030EF36E070E33
:10355000F3CFDBFF05D0030EF36E070EF3CFDBFFD7
:10356000070EDB50146E090EE15C03E200D0E16A45
:10357000E552E16E1450E552E7CFD9FF1200D9CFE2
:10358000E6FFE1CFD9FF060EE126040EDB6AFB0E53
:10359000DBCFE9FFFC0EDBCFEAFF050EEE1801E101
:1035A000ED5001E091D0010EE76EFD0EDBCFE9FF9B
:1035B000FE0EDBCFEAFFE750E926000EEA22EF50CD
:1035C000000EF350DE6EDD6A020EE76EFD0EDBCFFD
:1035D000E9FFFE0EDBCFEAFFE750E926000EEA2204
:1035E000EF50DF12DF2A010E01E3DB2A040EE76E43
:1035F000FD0EDBCFE9FFFE0EDBCFEAFFE750E92649
:10360000000EEA22EF505AE1030EE76EFD0EDBCF0B
:10361000E9FFFE0EDBCFEAFFE750E926000EEA22C3
:10362000EF50FF080EE0030EE76EFD0EDBCFE9FF63
:10363000FE0EDBCFEAFFE750E926000EEA22EF504C
:103640003DE1030EDB6AE76EFD0EDBCFE9FFFE0E08
:10365000DBCFEAFFE750E926000EEA22EF50FF0831
:1036600006E1010EF36E020EF3CFDBFF02D0020E75
:10367000DB6A010EE66EE66EE66ADECFE6FFDDCFC0
:10368000E6FFD950020FE66E000EDA20E66E26EC59
:1036900028F0146E070EE15E1450E76E050EE7CFBA
:1036A000DBFFDB500AE0050EDBCFE6FFCFEC23F0BB
:1036B000E552E76E040EE7CFDBFF05D0030EF36E95
:1036C000040EF3CFDBFF05D0030EF36E040EF3CF31
:1036D000DBFF040EDB50146E060EE15C03E200D04B
:1036E000E16AE552E16E1450E552E7CFD9FF1200CE
:1036F000D9CFE6FFE1CFD9FF080EE126060EDB6A3F
:10370000FB0EDBCFE9FFFC0EDBCFEAFF050ED88016
:10371000EE54000EED5401E3EED0010EE76EFD0E07
:10372000DBCFE9FFFE0EDBCFEAFFE750E926000E14
:10373000EA22EF50000EF350DE6EDD6A020EE76EF5
:10374000FD0EDBCFE9FFFE0EDBCFEAFFE750E926F7
:10375000000EEA22EF50DF12DF2A010E01E3DB2A1E
:10376000030EE76EFD0EDBCFE9FFFE0EDBCFEAFFB7
:10377000E750E926000EEA22EF50000EF350E66E05
:10378000D950020FE96EDACFEAFFE552E750EE6E4C
:10379000ED6A040EE76EFD0EDBCFE9FFFE0EDBCF18
:1037A000EAFFE750E926000EEA22EF50146E156A90
:1037B000D950020FE96EDACFEAFF1450EE1215501D
:1037C000ED12050EE76EFD0EDBCFE9FFFE0EDBCF3F
:1037D000EAFFE750E926000EEA22040EEFCFDBFFF6
:1037E000020EDB50070B15E0020EDBCF14F0030EC8
:1037F000DBCF15F00F0B05E0D89015321432E80638
:10380000FBE1010E1426000E1522050E14C0DBFF8D
:1038100012D0080E146E156A020EDBCF08F0030EEC
:10382000DBCF09F014C00DF015C00EF0A0EC32F0A3
:10383000050E08C0DBFF020EDBCF14F0030EDBCF5A
:1038400015F0010E145C000E15584FE3D950020F0D
:10385000E96EDACFEAFFB00ED880EE54070EED54D1
:1038600044E3040EDB50F36E050EDB50F35C3DE1E8
:10387000010EE66E020EDBCFE6FF030EDBCFE6FFA6
:10388000DECFE6FFDDCFE6FF060EE76EFD0EDBCFF7
:1038900014F0FE0EDBCF15F0E7501426000E1522B3
:1038A00014C0E6FF15C0E6FF26EC28F0166E070EE2
:1038B000E15E1650E76E070EE7CFDBFFDB500BE053
:1038C000070EDBCFE6FFCFEC23F0E552E76E060EE6
:1038D000E7CFDBFF09D0FB0EDBCFE9FFFC0EDBCF30
:1038E000EAFF050EEE6EED6A05D0030EF36E060ECE
:1038F000F3CFDBFF05D0030EF36E060EF3CFDBFF35
:10390000060EDB50146E080EE15C03E200D0E16AA3
:0E391000E552E16E1450E552E7CFD9FF1200E8
:02391E00D9CFFF
:10392000E6FFE1CFD9FFE652DF6AFD0EDB5013E080
:10393000010EF36EFD0EDBCFF4FFF350F45C0BE3EE
:10394000FD0EDB50146E156A153404E21450F708AE
:10395000000E155403E2020EDF6E5DD0FD0EDBCFCC
:1039600041F1FE0EDB5001E045D00101680E466FCB
:10397000400E476F486B840E496F400E4A6F4B6B89
:103980007A0E436F410E446F456B9A0E4C6F400E9A
:103990004D6F4E6B4F6B506B516B8A0E526F420ED8
:1039A000536F546B580E556F430E566F576BE60EA0
:1039B000586F430E596F5A6BF70EDBCFE6FFD950A5
:1039C000F80FE96EFF0EDA20EA6EEECFE6FFEECFDB
:1039D000E6FFEECFE6FFEFCFE6FFFC0EDBCFE6FF24
:1039E00041C1E6FF92EC1FF0146E070EE15E145029
:1039F000DF6E02D0020EDF6EDF500DE15DEC31F0C4
:103A0000000903E1030EDF6E06D0FE0EDBCF42F1AC
:103A10000001010EAB6FDF5000D0E552E552E7CF59
:103A2000D9FF1200D9CFE6FFE1CFD9FF030EE1267F
:103A3000146AFE0EDB50145C01E3ECD0FE0EDB508A
:103A40007F0801E2E7D0F29EFB0EDBCF14F0FC0E04
:103A5000DBCF15F0FD0EDBCF16F01450151016104D
:103A600001E18BD0DE6ADD6ADECF14F0DDCF15F028
:103A7000D890155004E6100E145C000E15586CE238
:103A8000DECFE9FFDDCFEAFFD890E936EA36D890FD
:103A9000E936EA36AC0EE926000EEA22EECF14F043
:103AA000EECF15F0EECF16F0EFCF17F00001155066
:103AB0001610171022E0FB0EDBCF18F0FC0EDBCF48
:103AC00019F0FD0EDBCF1AF0DECFE9FFDDCFEAFF04
:103AD000D890E936EA36D890E936EA36AC0EE926CF
:103AE000000EEA22EE52EE50181806E1EE501918B8
:103AF00003E1EE501A1800E12AE1DECFE9FFDDCF45
:103B0000EAFFD890E936EA36D890E936EA36AC0EC4
:103B1000E926000EEA22FE0EDBCFEFFFDECFE9FF43
:103B2000DDCFEAFFD890E936EA36D890E936EA36B2
:103B3000AC0EE926000EEA22EE52FB0EDBCFEEFFC2
:103B4000FC0EDBCFEEFFFD0EDBCFEEFF05D0DF2A54
:103B5000010E01E3DB2A88D7D9CFE9FFDACFEAFFEC
:103B6000100EEE1801E1ED5002E0000E01D0040E3F
:103B7000E76E020EE7CFDBFF4BD0DE6ADD6ADECFF9
:103B800014F0DDCF15F0D890155004E6100E145C3B
:103B9000000E15583BE2DECFE9FFDDCFEAFFD890FB
:103BA000E936EA36D890E936EA36AC0EE926000E58
:103BB000EA22EFCF14F0FE0EDB50145C22E1DECFE0
:103BC000E9FFDDCFEAFFD890E936EA36D890E9364A
:103BD000EA36AC0EE926000EEA22EF6ADECFE9FFF4
:103BE000DDCFEAFFD890E936EA36D890E936EA36F2
:103BF000AC0EE926000EEA22EE52EE6AEE6AEE6A9A
:103C000005D0DF2A010E01E3DB2AB9D7020EDB6AF9
:103C1000F28E04D0020EF36EF3CFDBFFDB50146E96
:103C2000030EE15C03E200D0E16AE552E16E14505C
:103C3000E552E7CFD9FF1200D9CFE6FFE1CFD9FF98
:103C4000E652DF6A0001AB050FE101014F5150114F
:103C5000511109E007D051C1FBFF50C1FAFF01012A
:103C60004F51F96EF8DF02D0060EDF6EDF5000D044
:103C7000E552E552E7CFD9FF1200D9CFE6FFE1CFF9
:103C8000D9FFE652DF6A0001AB050CE107D048C15D
:103C9000FBFF47C1FAFF01014651F96EF8DF000151
:103CA000AB6B02D0060EDF6EDF5000D0E552E5525E
:103CB000E7CFD9FF1200D9CFE6FFE1CFD9FFE65217
:103CC0000001AB510EE107D04BC1FBFF4AC1FAFF27
:103CD00001014951F96EF8DF0001010EAB6FDF6A97
:103CE00006D0AB0502E1DF6A02D0060EDF6EDF50C0
:103CF00000D0E552E552E7CFD9FF1200D9CFE6FF59
:103D0000E1CFD9FF040EE126020EDB6A0001AB51C0
:103D100002E0060EFBD0D950030FE66E000EDA204B
:103D2000E66E72EC31F0E552E552010801E0ECD0AC
:103D3000030EDB50030A01E1E6D0010A31E0030A79
:103D400004E0010A01E0E0D0DFD0650EE66E010E6E
:103D5000E66E610EE66E010EE66E630EE66E010E15
:103D6000E66E07D04EC1FBFF4DC1FAFF01014C5179
:103D7000F96EF8DF146E060EE15E1450E76E020E67
:103D8000E7CFDBFFDB500BE101014151635D02E056
:103D9000635105E1020EE66E62EC31F0E552B4D0FB
:103DA00061C1E9FF62C1EAFFEFCF64F10101010ED9
:103DB000676FDE6ADD6ADECF14F0DDCF15F0D890D4
:103DC000155004E6100E145C000E155857E2DECFB5
:103DD000E9FFDDCFEAFFD890E936EA36D890E93638
:103DE000EA36AC0EE926000EEA22EF5002E146D098
:103DF00040D0DECFE9FFDDCFEAFFD890E936EA36E2
:103E0000D890E936EA36AC0EE926000EEA22EF50E9
:103E10000101645D2EE1DECFE9FFDDCFEAFFD8903E
:103E2000E936EA36D890E936EA36AC0EE926000ED5
:103E3000EA22EECF14F0EECF15F0EECF16F0EFCF72
:103E400017F0650EE66E010EE66E61C1E6FF62C117
:103E5000E6FF07D017C0FBFF16C0FAFF00011550A0
:103E6000F96EF8DFE552E552E552E5520101676F60
:103E700005D0DF2A010E01E3DB2A9DD70101635142
:103E800041E0675124E0656B666B800E6411E66E5D
:103E900065C114F066C115F0652B000E66236151F3
:103EA0001424E96E62511520EA6EE552E750EF6E78
:103EB00065C114F066C115F0652B000E66236151D3
:103EC0001424E96E62511520EA6E67C1EFFF65C1E7
:103ED000E6FF66C1E6FF61C1E6FF62C1E6FF41C1E0
:103EE000E6FF07D045C1FBFF44C1FAFF0101435182
:103EF000F96EF8DF146E050EE15E1450E76E020EE7
:103F0000E7CFDBFF01D000D0000E00D0146E040E0E
:103F1000E15C02E2E16AE552E16E1450E552E7CF5E
:043F2000D9FF1200B3
:0C3F2400D9CFE6FFE1CFD9FF050EE12662
:103F3000DF6A9D9AF80EDBCFE6FF080EE66ED950D9
:103F4000F90FE96EFF0EDA20EA6EEECFE6FFEECF54
:103F5000E6FFEECFE6FFEFCFE6FFFD0EDBCFE6FF9D
:103F6000D4EC28F0146E070EE15E1450010803E053
:103F7000030EDF6E6AD0D950F90FE96EFF0EDA201A
:103F8000EA6ED880800EEE54250EEE54000EEE54EC
:103F9000000EEE540FE2A30EF36E010EF3CFDBFF23
:103FA000BB0EF36E020EF3CFDBFF030EDB6A040ED3
:103FB000DB6A3DD0D950F90FE96EFF0EDA20EA6EC8
:103FC000600EEE1806E1090EEE1803E1EE5001E175
:103FD000EE500FE1CF0EF36E010EF3CFDBFF710E4B
:103FE000F36E020EF3CFDBFF030EDB6A040EDB6A17
:103FF0001ED0D950F90FE96EFF0EDA20EA6E800E5E
:10400000EE1806E1250EEE1803E1EE5001E1EE5048
:104010000EE1E70EF36E010EF3CFDBFFB80EF36E89
:10402000020EF3CFDBFF030EDB6A040EDB6A010E28
:10403000DBCFE6FF020EDBCFE6FF99EC2FF0E55277
:10404000E552010802E0030EDF6E9D8ADF50146E18
:10405000050EE15C03E200D0E16AE552E16E145026
:10406000E552E7CFD9FF12009D9A0001FC6BE66A8A
:10407000010EE66EB9EC28F0E552E552B0EC2FF0F7
:104080009D8A12009D9AE66AE66AB9EC28F0E5522C
:10409000E552BBEC2FF09D8A1200D9CFE6FFE1CFAD
:1040A000D9FF040EE126DF6A010EDB6A9D9A020148
:1040B000FA0EFE5D000EFF5902E3050E52D0040E0B
:1040C000FE5D000EFF5946E3FEC2E6FFFFC2E6FFBB
:1040D000000EE66E020EE66E1BEC2FF0E552E55286
:1040E000E552E552020EF3CFDBFF030EF4CFDBFF08
:1040F000D950020FE96EDACFEAFFEE50ED1029E158
:10410000FD0EDBCFE9FFFE0EDBCFEAFF00C2EFFFC3
:10411000FEC214F0FFC215F01406000E155A020E6E
:10412000145E000E155AF90EDBCFE9FFFA0EDBCF55
:10413000EAFF14C0EEFF15C0EDFFFB0EDBCFE9FF79
:10414000FC0EDBCFEAFF010EEE6E020EED6E010EED
:10415000DF6E03D0DE52050EDD6E9D8A010EDB5050
:1041600000D0146E040EE15C02E2E16AE552E16EF9
:104170001450E552E7CFD9FF1200D9CFE6FFE1CFC7
:10418000D9FF030EE126DF6A9D9A0001FC056CE170
:10419000FC0EDBCFFAF2FD0EDBCFFBF20201010ECB
:1041A000FA5F000EFB5B010EFC6FFD6BFE0EDB5039
:1041B000FAC2E9FFFBC2EAFFEF6EFA0EDBCF08F0AE
:1041C000FB0EDBCF09F00850FC270950FD23FCC291
:1041D000E6FFFDC2E6FFFAC2E6FFFBC2E6FF1BEC0C
:1041E0002FF0E552E552E552E552DE52F3CFDEFF05
:1041F000F4CFDDFFDD52FF0EE76E010EDBCF14F0D2
:10420000020EDBCF15F0E7501416156A0201FCC24E
:10421000E9FFFDC2EAFFFC2B000EFD23000EE9269C
:10422000020EEA2214C0EFFF010EDBCF14F0020EE3
:10423000DBCF15F015C014F0156AFCC2E9FFFDC212
:10424000EAFFFC2B000EFD23000EE926020EEA22F7
:1042500014C0EFFF0001010EFB6FE66EE66AB9ECD9
:1042600028F0E552E55202D0050EDF6E9D8ADF5040
:10427000146E030EE15C03E200D0E16AE552E16EE8
:104280001450E552E7CFD9FF1200D9CFE6FFE1CFB6
:10429000D9FF020EE126DF6A0001FB5102E0000EA9
:1042A0004FD0D950010FE66E000EDA20E66E59ECC1
:1042B00029F0E552E5520001FC51020A24E0030A0C
:1042C0000BE0020A06E0030A01E038D0B0EC2FF060
:1042D00035D0B0EC2FF032D00201FE6BFF6BFEC286
:1042E000E9FFFFC2EAFFFE2B000EFF23000EE926C6
:1042F000020EEA22010EDBCFEFFF0001020EFC6F7F
:10430000B0EC2FF01BD00201FA0EFE5D000EFF593B
:104310000FE2FEC2E9FFFFC2EAFFFE2B000EFF2301
:10432000000EE926020EEA22010EDBCFEFFF03D0DA
:104330000001030EFC6FB0EC2FF000D0DF5000D076
:10434000146E020EE15C02E2E16AE552E16E145085
:10435000E552E7CFD9FF1200D9CFE6FFE1CFD9FF71
:10436000E652DF6A0001FC0502E0000E37D0FB5187
:10437000010A0BE0010A01E02FD0E66A010EE66EA9
:10438000B9EC28F0E552E55227D00201000ED880A2
:10439000FC55000EFD5510E2FAC2E9FFFBC2EAFF30
:1043A000EF50E66E3EEC29F0E5520201FA2B000ECA
:1043B000FB23FC07FD5BE9D7030EE66E62EC31F0F0
:1043C000E552DF6EE66A010EE66EB9EC28F0E552C2
:1043D000E5520001FB6B00D0DF5000D0E552E55202
:1043E000E7CFD9FF1200D9CFE6FFE1CFD9FFE652E0
:1043F000DF6A0001FC51030A12E0010A09E0020A27
:1044000001E00ED0E66A62EC31F0E552DF6E08D0D2
:10441000010EE66E62EC31F0E552DF6E01D000D0A5
:10442000BBEC2FF00001010EFC6FDF5000D0E55215
:08443000E552E7CFD9FF1200AD
:08443800D9CFE6FFE1CFD9FF67
:104440000A0EE126F90EDB50E66ED950080FE96E30
:10445000DACFEAFFE552E750EE6EED6AFA0EDB5076
:10446000080801E2F1D0080E146E156AFB0EDBCFCE
:1044700008F0FC0EDBCF09F014C00DF015C00EF0F3
:10448000A0EC32F0040E08C0DBFF050E09C0DBFF14
:10449000FB0EDBCF16F0FC0EDBCF17F0080E086E1C
:1044A000096A040EDBCF0DF0050EDBCF0EF012EC27
:1044B00032F00650165C146E07501758156E060E33
:1044C00014C0DBFF070E15C0DBFF060EDBCF14F0B8
:1044D000D950080FE96EDACFEAFF1450E85005E032
:1044E000D890EE36ED36E806FBE1FA0EDB50166E9C
:1044F000010E165204E0E846FE0B1606FCE1FF0F23
:10450000146E156A14BE1568020E14C0DBFF030E8C
:1045100015C0DBFFFB0EDBCF16F0FC0EDBCF17F078
:10452000080E086E096A040EDBCF0DF0050EDBCF16
:104530000EF012EC32F00650165C146E075017584D
:10454000156ED950020FE96EDACFEAFF1450E85029
:1045500005E0D890EE36ED36E806FBE1040EDBCF41
:1045600014F0050EDBCF15F0FD0EDB501424E96EC0
:10457000FE0EDB501520EA6EEF50DE6EDD6A010E96
:10458000E76E040EDBCF14F0050EDBCF15F0E7501D
:104590001426000E1522FD0EDB501424E96EFE0ECB
:1045A000DB501520EA6EEF50000EF350DF12020EC2
:1045B000DB1C186E030EDB1C196EDE501814166E11
:1045C000DD501914176E080EDB501610146E090E0C
:1045D000DB501710156E14C0DEFF15C0DDFFDECFF7
:1045E00016F0DDCF17F0FF0E1616000E1716040E8C
:1045F000DBCF14F0050EDBCF15F0FD0EDB501424DD
:10460000E96EFE0EDB501520EA6E16C0EFFFDECF1E
:1046100016F0DDCF17F017C016F0176A010EE76E1F
:10462000040EDBCF14F0050EDBCF15F0E750142697
:10463000000E1522FD0EDB501424E96EFE0EDB5039
:104640001520EA6E16C0EFFF0A0EE15C02E2E16A95
:10465000E552E16EE552E7CFD9FF1200D9CFE6FF70
:10466000E1CFD9FF080EE126146E156AFB0EDBCFF1
:1046700008F0FC0EDBCF09F014C00DF015C00EF0F1
:10468000A0EC32F0040E08C0DBFF050E09C0DBFF12
:10469000FB0EDBCF16F0FC0EDBCF17F0080E086E1A
:1046A000096A040EDBCF0DF0050EDBCF0EF012EC25
:1046B00032F00650165C146E07501758156E060E31
:1046C00014C0DBFF070E15C0DBFFFA0EDB50166EC1
:1046D000010E165204E0E846FE0B1606FCE1FF0F41
:1046E000146E156A14BE1568020E14C0DBFF030EAB
:1046F00015C0DBFF040EDBCF14F0050EDBCF15F089
:10470000FD0EDB501424E96EFE0EDB501520EA6E20
:10471000EF50DE6EDD6A010EE76E040EDBCF14F0A3
:10472000050EDBCF15F0E7501426000E1522FD0E06
:10473000DB501424E96EFE0EDB501520EA6EEF50BC
:10474000000EF350DF12060EDBCF14F0D9CFE9FFD5
:10475000DACFEAFF14500F0B06E0EC52D890ED329E
:10476000EF32E806FAE1020EDBCF14F0030EDBCFE6
:1047700015F0D9CFE9FFDACFEAFF1450EE16155045
:10478000ED16DF50146E080EE15C03E200D0E16A22
:10479000E552E16E1450E552E7CFD9FF1200D9CFB0
:1047A000E6FFE1CFD9FFE652FE0EDB50070A0CE030
:1047B000060A07E0010A03E0040EDF6E08D0DF6A94
:1047C00006D0020EDF6E03D0060EDF6E00D0DF5083
:0C47D00000D0E552E552E7CFD9FF1200FF
:0447DC00DACFE4FF4D
:1047E000E2CFDAFFE9CFE4FFEACFE4FFF6CFE4FF60
:1047F000F7CFE4FFF5CFE4FFF3CFE4FFF4CFE4FF1E
:10480000FACFE4FF00EE00F0140EE80403E3EECF6D
:10481000E4FFFBD700EE14F00A0EE80403E3EECF4A
:10482000E4FFFBD7E652F2940101982B000E992386
:104830009A2B9B239C2B9D239E2B9F23A007A15B40
:10484000A13504E2A0510008000EA15508E3A22BF7
:10485000000EA323A423A523C80EA06FA16B8C5127
:104860008D1107E005D08DC1FAFF01018C51F96E61
:10487000FADF8AC1E6FF8BC1E6FF68EC32F0E55251
:10488000E552E55200EE1DF00A0EE80403E3E5CF21
:10489000EDFFFBD700EE13F0140EE80403E3E5CFC1
:1048A000EDFFFBD7E5CFFAFFE5CFF4FFE5CFF3FF50
:1048B000E5CFF5FFE5CFF7FFE5CFF6FFE5CFEAFF60
:1048C000E5CFE9FFE5CFDAFF1100DACFE4FFE2CF71
:1048D000DAFFE9CFE4FFEACFE4FFF6CFE4FFF7CF5A
:1048E000E4FFF5CFE4FFF3CFE4FFF4CFE4FFFACF2A
:1048F000E4FF00EE00F0140EE80403E3EECFE4FF63
:10490000FBD700EE14F00A0EE80403E3EECFE4FF59
:10491000FBD7E6529E908EC1E6FF8FC1E6FF4CECBE
:1049200032F0E552E55201019051911107E005D0B6
:1049300091C1FAFF01019051F96EFADFE55200EEE4
:104940001DF00A0EE80403E3E5CFEDFFFBD700EE10
:1049500013F0140EE80403E3E5CFEDFFFBD7E5CF3A
:10496000FAFFE5CFF4FFE5CFF3FFE5CFF5FFE5CFA5
:10497000F7FFE5CFF6FFE5CFEAFFE5CFE9FFE5CFAB
:10498000DAFF1100DACFE4FFE2CFDAFFE9CFE4FF8C
:10499000EACFE4FFF6CFE4FFF7CFE4FFF5CFE4FF83
:1049A000F3CFE4FFF4CFE4FFFACFE4FF00EE00F032
:1049B000140EE80403E3EECFE4FFFBD700EE14F09F
:1049C0000A0EE80403E3EECFE4FFFBD7E652A19220
:1049D00092C1E6FF93C1E6FF4CEC32F0E552E5529E
:1049E00001019451951107E005D095C1FAFF01012D
:1049F0009451F96EFADFE55200EE1DF00A0EE8045C
:104A000003E3E5CFEDFFFBD700EE13F0140EE8044F
:104A100003E3E5CFEDFFFBD7E5CFFAFFE5CFF4FFEA
:104A2000E5CFF3FFE5CFF5FFE5CFF7FFE5CFF6FFE5
:104A3000E5CFEAFFE5CFE9FFE5CFDAFF1100D9CFF7
:104A4000E6FFE1CFD9FF9F0EE66E84EC32F0E5522F
:104A5000FD0EDBCF8AF1FE0EDBCF8BF1FB0EDBCF41
:104A60008CF1FC0EDBCF8DF1FD0EDBCFE6FFFE0EF1
:104A7000DBCFE6FF68EC32F0E552E552E552E7CFD6
:104A8000D9FF1200D9CFE6FFE1CFD9FFC50EE66E00
:104A9000D2EC31F0E552FD0EDBCFE6FFFE0EDBCFB0
:104AA000E6FF4CEC32F0E552E5529F80FD0EDBCF85
:104AB0008EF1FE0EDBCF8FF1FB0EDBCF90F1FC0E03
:104AC000DBCF91F1E552E7CFD9FF1200D9CFE6FF56
:104AD000E1CFD9FFCD0EE66EB1EC31F0E552FD0E1F
:104AE000DBCFE6FFFE0EDBCFE6FF30EC32F0E55227
:104AF000E552FD0EDBCF92F1FE0EDBCF93F1FB0E04
:104B0000DBCF94F1FC0EDBCF95F1E552E7CFD9FF77
:104B10001200D9CFE6FFE1CFD9FF040EE126F29AC9
:104B2000A2C1DFFF010EA3C1DBFF020EA4C1DBFFA8
:104B3000030EA5C1DBFFF28ADECF06F0DECF07F061
:104B4000DECF08F0DDCF09F0DD52DD52040EE15C6E
:104B500003E200D0E16AE552E16EE552E7CFD9FF0A
:024B6000120041
:0E4B62000000000000000000202020200000C5
:104B7000200050505000000000005050F850F850F5
:104B800050002078A07028F02000C0C81020409865
:104B900018006090A040A8906800602040000000CD
:104BA0000000102040404020100040201010102035
:104BB00040000020A870A8200000002020F820203D
:104BC000000000000000301020000000007C000009
:104BD000000000000000006060000008102040801D
:104BE000000030486878584830002060A02020201D
:104BF000F8003048080810207800700808300808CD
:104C0000700010305090F810100078404070080884
:104C100070003048407048483000F808102040408C
:104C2000400030484830484830003048483808484C
:104C30003000006060006060000000606000602084
:104C4000400008102040201008000000F800F80084
:104C5000000040201008102040007088081020003C
:104C6000200070880868A8A8700030484878484834
:104C70004800704848704848700038404040404004
:104C800038007048484848487000784040704040BC
:104C900078007840407040404000304840584848D4
:104CA000300048484878484848007020202020209C
:104CB00070007020202020A06000485060406050AC
:104CC0004800404040404040700088D8A8A88888EC
:104CD000880048486878584848003048484848485C
:104CE00030007048487040404000304848486850A4
:104CF000280070484870484848003048403008480C
:104D00003000F8202020202020004848484848480B
:104D100030008888888888502000888888A8A8A8BB
:104D200050004848483048484800505050502020D3
:104D300020007808183060407800704040404040C3
:104D400070008850F820F82020007010101010100B
:104D500070002050880000000000000000000000EB
:104D6000F800402010000000000000007008788863
:104D700078008080B0C88888F0000000708080884B
:104D80007000080868988888780000007088F880AB
:104D90007000304840E04040400000788888780843
:104DA00070008080B0C888888800200060202020A3
:104DB0007000080008080848300040404850605023
:104DC000480060202020202070000000D0A8A88883
:104DD00088000000B0C88888880000007088888833
:104DE00070000000F088F08080000000689878086B
:104DF00008000000B0C8808080000000708070084B
:104E0000F0004040E040404830000000888888982A
:104E10006800000088888850200000008888A8A8C2
:104E200050000000885020508800000088887808D2
:104E300070000000F8102040F800102020402020D2
:104E4000100020202020202020002010100810100A
:104E50002000002010F810200000002040F8402022
:104E60000000304848300000000030484830000062
:104E70000000081838783818080000008005C004C1
:104E8000E003F002F801000008041803380278017A
:024E9000F80028
:0E4E9200D9CFE6FFE1CFD9FF070EE126020ED1
:104EA000DB6A4B0EF36E030EF3CFDBFF010EF36EE6
:104EB000040EF3CFDBFF050EDB6AE66A020EDBCFE2
:104EC00014F0030EDBCF15F0166A176A14C0E6FF64
:104ED00015C0E6FF16C0E6FF17C0E6FFE66A040E3F
:104EE000DBCFE6FFE66A8FEC1CF0186E080EE15E81
:104EF0001850E76E060EE7CFDBFF3DEC1EF0E76EC5
:104F0000060EE7CFDBFF070EE15C02E2E16AE55245
:104F1000E16EE552E7CFD9FF12001200D9CFE6FFCC
:104F2000E1CFD9FFE652DF6ADF5000D0E552E5520B
:104F3000E7CFD9FF1200D9CFE6FFE1CFD9FF040EAA
:104F4000E126FB0EDB50DF6E020E086E096AF90ED9
:104F5000DBCF0DF0FA0EDBCF0EF012EC32F0010ECB
:104F600006C0DBFF020EDB6A030EDB6AF80EDB50C5
:104F700029E0010A01E05BD0010EDB5000081CE2D1
:104F8000FD0EDBCFE9FFDB2AFE0EDBCFEAFF01E3FC
:104F9000DB2AEF50E66E030EDBCFF3FFDB2AF35084
:104FA000EA6A1D0FE96E010EEA22E552E750EF6E44
:104FB000DF2A010EDB06E0D79D9A0101010E086F82
:104FC0009D8A35D0010EDB50000830E2FD0EDBCFAC
:104FD000E9FFDB2AFE0EDBCFEAFF01E3DB2A410E0D
:104FE000EF6EFD0EDBCFE9FFDB2AFE0EDBCFEAFF23
:104FF00001E3DB2A420EEF6EFD0EDBCFE9FFDB2A79
:10500000FE0EDBCFEAFF01E3DB2A430EEF6EFD0E5F
:10501000DBCFE9FFDB2AFE0EDBCFEAFF01E3DB2A71
:10502000440EEF6EDF2A010EDB06CCD700D0020E55
:10503000DB50146E040EE15C03E200D0E16AE5523D
:10504000E16E1450E552E7CFD9FF1200D9CFE6FF49
:10505000E1CFD9FF010E00D0E552E7CFD9FF120012
:10506000D9CFE6FFE1CFD9FF010E00D0E552E7CF5F
:10507000D9FF1200080EE66E0C0EE66E0B0EE66E01
:10508000010EE66EDAEC18F0E552E552E552E55213
:10509000030EE66EE66A130EE66E010EE66EDAECBD
:1050A00018F0E552E552E552E552030EE66EE66E63
:1050B000160EE66E010EE66EDAEC18F0E552E552D9
:1050C000E552E552020EE66E060EE66E090EE66E3B
:1050D000010EE66EDAEC18F0E552E552E552E552C3
:1050E000040EE66E080EE66E190EE66E010EE66E12
:1050F000DAEC18F0E552E552E552E552010EE66EA3
:10510000E66E1EEC18F0E552E552010EE66E040E56
:10511000E66E1EEC18F0E552E552010EE66E0A0E40
:10512000E66E1EEC18F0E552E5521200E66A58EC05
:1051300009F0E55201013B6B200E3C6F000EE66E5C
:10514000010EE66EBEEC30F0E552E552F3CF3FF1D2
:105150000101000E3D6F010E3E6F406B3B0EE66E8F
:10516000010EE66EE66A7FEC02F0E552E552E5528A
:0251700012002B
:0E517200D9CFE6FFE1CFD9FFFE0EDB5002E100
:10518000AB9801D0AB88FD0EDB5001E109D007D010
:1051900057C1FBFF56C1FAFF01015551F96EF8DF07
:1051A000E552E7CFD9FF1200D9CFE6FFE1CFD9FF13
:1051B000050EE1263C0EDF6ED950FA0FE96EFF0EA8
:1051C000DA20EA6EEE2A000EEE22EE22EE22D9500E
:1051D000FA0FE96EFF0EDA20EA6E040EE76ED89041
:1051E000EF36010EEB36020EEB36030EEB36E7061A
:1051F000F6E1146A480E156EE80E166E010E176E73
:1052000014C006F015C007F016C008F017C009F06A
:10521000FA0EDBCF0BF0FB0EDBCF0CF0FC0EDBCF7E
:105220000DF0FD0EDBCF0EF08DEC31F0010E06C05F
:10523000DBFF020E07C0DBFF030E08C0DBFF040E1E
:1052400009C0DBFF010EDBCFE6FF020EDBCFE6FF7E
:10525000DFCFE6FF1BEC31F0E552E552E5529F8AC5
:10526000010E146E050EE15C03E200D0E16AE55226
:10527000E16E1450E552E7CFD9FF1200D9CFE6FF17
:10528000E1CFD9FF8688500EE66EF1EC32F0E552A0
:10529000FE0EDB50AD6E6CA2FED78698500EE66E09
:1052A000F1EC32F0E552010E00D0E552E7CFD9FF24
:1052B0001200D9CFE6FFE1CFD9FFE652F3EC31F08F
:1052C000DF6EFD0EDBCFE9FFFE0EDBCFEAFFDFCFA7
:1052D000EFFF9E9A010E00D0E552E552E7CFD9FFCD
:1052E0001200DACFE4FFE2CFDAFFE9CFE4FFEACF42
:1052F000E4FFF6CFE4FFF7CFE4FFF5CFE4FFF3CF11
:10530000E4FFF4CFE4FFFACFE4FFFBCFE4FF00EECD
:1053100000F0140EE80403E3EECFE4FFFBD700EE49
:1053200014F00A0EE80403E3EECFE4FFFBD7E652E5
:1053300007D057C1FBFF56C1FAFF01015551F96E65
:10534000F8DFE55200EE1DF00A0EE80403E3E5CFB6
:10535000EDFFFBD700EE13F0140EE80403E3E5CFF6
:10536000EDFFFBD7E5CFFBFFE5CFFAFFE5CFF4FF7D
:10537000E5CFF3FFE5CFF5FFE5CFF7FFE5CFF6FF8C
:10538000E5CFEAFFE5CFE9FFE5CFDAFF1100DACF9D
:10539000E4FFE2CFDAFFE9CFE4FFEACFE4FFF6CFA4
:1053A000E4FFF7CFE4FFF5CFE4FFF3CFE4FFF4CF62
:1053B000E4FFFACFE4FFFBCFE4FF00EE00F0140EB1
:1053C000E80403E3EECFE4FFFBD700EE14F00A0E8F
:1053D000E80403E3EECFE4FFFBD7E65207D054C165
:1053E000FBFF53C1FAFF01015251F96EF8DFE5529C
:1053F00000EE1DF00A0EE80403E3E5CFEDFFFBD756
:1054000000EE13F0140EE80403E3E5CFEDFFFBD745
:10541000E5CFFBFFE5CFFAFFE5CFF4FFE5CFF3FFE4
:10542000E5CFF5FFE5CFF7FFE5CFF6FFE5CFEAFFE4
:0A543000E5CFE9FFE5CFDAFF110038
:06543A00D9CFE6FFE1CF2F
:10544000D9FF090EE126070EDB6AFB0EDBCFE9FF71
:10545000FC0EDBCFEAFF050EEE1801E1ED5001E096
:1054600010D1010EE76EFD0EDBCFE9FFFE0EDBCFA4
:10547000EAFFE750E926000EEA22EF50000EF35053
:10548000DE6EDD6A020EE76EFD0EDBCFE9FFFE0E7B
:10549000DBCFEAFFE750E926000EEA22EF50DF12E9
:1054A000DF2A010E01E3DB2A030EE76EFD0EDBCFE0
:1054B000E9FFFE0EDBCFEAFFE750E926000EEA2205
:1054C000EF50000EF350E66ED950020FE96EDACFBE
:1054D000EAFFE552E750EE6EED6A040EE76EFD0E50
:1054E000DBCFE9FFFE0EDBCFEAFFE750E926000E37
:1054F000EA22EF50146E156AD950020FE96EDACF26
:10550000EAFF1450EE121550ED12020EDBCF14F02C
:10551000030EDBCF15F0010E145C000E155801E2EE
:10552000AAD0020EDBCF16F0030EDBCF17F0D00EA1
:10553000165C070E175801E39ED0FD0EDBCF08F076
:10554000FE0EDBCF09F0050E08C0DBFF060E09C01A
:10555000DBFFFB0EDBCFE9FFFC0EDBCFEAFFEE6AE1
:10556000ED6A050EDBCFE9FFDB2A060EDBCFEAFF93
:1055700001E3DB2A020EEF6EFB0EDBCFE9FFFC0E30
:10558000DBCFEAFFEE2A000EED22020EDB50070B06
:1055900015E0020EDBCF14F0030EDBCF15F00F0B7E
:1055A00005E0D89015321432E806FBE1010E14260E
:1055B000000E1522040E14C0DBFF12D0080E146E6C
:1055C000156A020EDBCF08F0030EDBCF09F014C022
:1055D0000DF015C00EF0A0EC32F0040E08C0DBFF99
:1055E000050EDBCFE9FFDB2A060EDBCFEAFF01E386
:1055F000DB2A040EDBCFEFFFFB0EDBCFE9FFFC0E57
:10560000DBCFEAFFEE2A000EED22020EDBCFE6FF33
:10561000030EDBCFE6FFDECFE6FFDDCFE6FF050EB4
:10562000DBCFE6FF060EDBCFE6FF30EC28F0146E92
:10563000060EE15E1450E76E080EE7CFDBFFDB508D
:105640000BE0080EDBCFE6FFCFEC23F0E552E76E70
:10565000070EE7CFDBFF0ED0040EDB50146E156A89
:10566000FB0EDBCFE9FFFC0EDBCFEAFF1450EE268A
:105670001550ED2205D0030EF36E070EF3CFDBFFBE
:1056800005D0030EF36E070EF3CFDBFF070EDB50E2
:10569000146E090EE15C03E200D0E16AE552E16EAE
:0A56A0001450E552E7CFD9FF1200C5
:0656AA00D9CFE6FFE1CFBD
:1056B000D9FF0A0EE126060EDB6AFB0EDBCFE9FFFF
:1056C000FC0EDBCFEAFF050EEE1801E1ED5001E024
:1056D00004D1010EE76EFD0EDBCFE9FFFE0EDBCF3E
:1056E000EAFFE750E926000EEA22EF50DE6EDD6A9F
:1056F000D9CFE9FFDACFEAFFEE50ED6EEF6A020E86
:10570000E76EFD0EDBCFE9FFFE0EDBCFEAFFE750D1
:10571000E926000EEA22EF50DF12DF2A010E01E334
:10572000DB2A030EE76EFD0EDBCFE9FFFE0EDBCFBB
:10573000EAFFE750E926000EEA22EF50E66ED95064
:10574000020FE96EDACFEAFFE552E750EE6EED6A3E
:10575000D950020FE96EDACFEAFFEE50ED6EEF6A34
:10576000040EE76EFD0EDBCFE9FFFE0EDBCFEAFF96
:10577000E750E926000EEA22EF50146E156AD95060
:10578000020FE96EDACFEAFF1450EE121550ED1257
:10579000020EDBCF14F0030EDBCF15F0010E145C0C
:1057A000000E155801E293D0020EDBCF16F0030E67
:1057B000DBCF17F07D0E165C000E175801E387D083
:1057C000FD0EDBCF08F0FE0EDBCF09F0040E08C0A3
:1057D000DBFF050E09C0DBFFFB0EDBCFE9FFFC0E94
:1057E000DBCFEAFFEE6AED6A040EDBCFE9FFDB2ACE
:1057F000050EDBCFEAFF01E3DB2A040EEF6EFB0EA2
:10580000DBCFE9FFFC0EDBCFEAFFEE2A000EED2234
:10581000020E086E096ADBCF0DF0030EDBCF0EF02F
:1058200012EC32F00650E66E040EDBCFE9FFDB2A05
:10583000050EDBCFEAFF01E3DB2AE552E750EF6E0E
:10584000FB0EDBCFE9FFFC0EDBCFEAFFEE2A000EFA
:10585000ED22020EDBCFE6FF030EDBCFE6FFDECF4D
:10586000E6FFDDCFE6FF040EDBCFE6FF050EDBCF64
:10587000E6FF8EEC27F0146E060EE15E1450E76E24
:10588000070EE7CFDBFFDB500BE0070EDBCFE6FFB9
:10589000CFEC23F0E552E76E060EE7CFDBFF16D024
:1058A000020EDBCF14F0030EDBCF15F0010ED89003
:1058B00014361536E806FBE1FB0EDBCFE9FFFC0EE4
:1058C000DBCFEAFF1450EE261550ED2205D0030E73
:1058D000F36E060EF3CFDBFF05D0030EF36E060E5C
:1058E000F3CFDBFF060EDB50146E0A0EE15C03E221
:1058F00000D0E16AE552E16E1450E552E7CFD9FFDE
:02590000120093
:0E59020000C1814001C0804101C0804100C150
:10591000814001C0804100C1814000C1814001C07F
:10592000804101C0804100C1814000C1814001C06F
:10593000804100C1814001C0804101C0804100C15F
:10594000814001C0804100C1814000C1814001C04F
:10595000804100C1814001C0804101C0804100C13F
:10596000814000C1814001C0804101C0804100C12F
:10597000814001C0804100C1814000C1814001C01F
:10598000804101C0804100C1814000C1814001C00F
:10599000804100C1814001C0804101C0804100C1FF
:1059A000814000C1814001C0804101C0804100C1EF
:1059B000814001C0804100C1814000C1814001C0DF
:1059C000804100C1814001C0804101C0804100C1CF
:1059D000814001C0804100C1814000C1814001C0BF
:1059E000804101C0804100C1814000C1814001C0AF
:1059F000804100C1814001C0804101C0804100C19F
:105A0000814000C0C101C30302C2C60607C705C565
:105A1000C404CC0C0DCD0FCFCE0E0ACACB0BC909D6
:105A200008C8D81819D91BDBDA1A1EDEDF1FDD1DE6
:105A30001CDC14D4D515D71716D6D21213D311D116
:105A4000D010F03031F133F3F23236F6F737F53566
:105A500034F43CFCFD3DFF3F3EFEFA3A3BFB39F996
:105A6000F83828E8E929EB2B2AEAEE2E2FEF2DED66
:105A7000EC2CE42425E527E7E62622E2E323E121D6
:105A800020E0A06061A163A3A26266A6A767A565E6
