:020000040000FA
:0600000081EF1CF012006C
:020006001200E6
:08000800F2A402D063EF15F031
:100010009EA002D0E6EF15F09EAA02D01EEF19F0C6
:0A0020001200D08EF28EF28C120056
:06002A000800343B000059
:10003000B402000002000000323B0000B2020000E7
:1000400002000000313B0000B90200000100000086
:10005000153B00008C0200001C000000FA3A000072
:10006000000100001B0000006E3A000000020000CA
:100070008C00000072390000000B0000FC00000042
:0C0080003A3900000003000038000000C6
:04008C00D9CFE6FFE3
:10009000E1CFD9FFE652FE0EDBCFE6FF010EF36E95
:1000A000FD0EDB5004E0D890F336E806FCE1F35097
:1000B000E552E71402E0010E01D0000EDF6EDF50C2
:1000C00000D0E552E552E7CFD9FF1200D9CFE6FFC5
:1000D000E1CFD9FF010EF36EFC0EDB5004E0D890A7
:1000E000F336E806FCE1F350106EFD0EDBCFE9FFBE
:1000F000FE0EDBCFEAFF1050EF12E552E7CFD9FF3B
:100100001200D9CFE6FFE1CFD9FF010EF36EFC0E4E
:10011000DB5004E0D890F336E806FCE1F350E81C2D
:10012000106EFD0EDBCFE9FFFE0EDBCFEAFF1050B5
:10013000EF16E552E7CFD9FF1200D9CFE6FFE1CFA6
:10014000D9FF030EE126DF6A010EDF5C01E31ED159
:10015000DF28E66EDF50370DF3CFE9FFF4CFEAFF7B
:10016000000EE926030EEA22E552E750EF6EDF505B
:10017000370DF3CFE9FFF4CFEAFF000EE926030EB7
:10018000EA22EE52EF6ADF50370DF3CFE9FFF4CFEA
:10019000EAFF000EE926030EEA22030EE926000E0E
:1001A000EA22EE6AED6ADF50370DF3CFE9FFF4CFB4
:1001B000EAFF000EE926030EEA22050EE926000EEC
:1001C000EA22EF6ADF50370DF3CFE9FFF4CFEAFF01
:1001D000000EE926030EEA22060EE926000EEA22A8
:1001E000EF6ADF50370DF3CFE9FFF4CFEAFF000EDF
:1001F000E926030EEA22090EE926000EEA22EF6A3A
:10020000DF50370DF3CFE9FFF4CFEAFF000EE92608
:10021000030EEA220A0EE926000EEA22EF6ADF50F8
:10022000370DF3CFE9FFF4CFEAFF000EE926030E06
:10023000EA22070EE926000EEA22EF6ADF50370DA8
:10024000F3CFE9FFF4CFEAFF000EE926030EEA221E
:100250000B0EE926000EEA22EF6ADF50370DF3CFCE
:10026000E9FFF4CFEAFF000EE926030EEA220C0EA6
:10027000E926000EEA22EF6ADF50370DF3CFE9FFDF
:10028000F4CFEAFF000EE926030EEA22080EE92663
:10029000000EEA22EF6ADF50370DF3CFE9FFF4CF0B
:1002A000EAFF000EE926030EEA22020EE926000EFE
:1002B000EA22EF6ADE520E0EDD6E010EDBCFE6FFA4
:1002C000E66AE66ADF50370DF3CFE9FFF4CFEAFFC5
:1002D000000EE926030EEA22290EE926000EEA2284
:1002E000E9CF10F0EACF11F010C0E6FF11C0E6FF31
:1002F000D5EC19F0126E050EE15E1250010EDBCF47
:10030000E6FFE66AE66ADF50370DF3CFE9FFF4CF88
:10031000EAFF000EE926030EEA220D0EE926000E82
:10032000EA22E9CF10F0EACF11F010C0E6FF11C0C9
:10033000E6FFD5EC19F0126E050EE15E1250010ECB
:10034000DBCFE6FFE66AE66ADF50370DF3CFE9FF61
:10035000F4CFEAFF000EE926030EEA220D0EE9268D
:10036000000EEA22E9CF10F0EACF11F00E0E1026AF
:10037000000E112210C0E6FF11C0E6FFD5EC19F007
:10038000126E050EE15E1250DF2ADED6030EE15C2E
:1003900002E2E16AE552E16EE552E7CFD9FF1200D1
:1003A000D9CFE6FFE1CFD9FF070EE126010EF36EAC
:1003B000FE0EDBCFF4FFF350F45C1EE2FC0EDBCF4D
:1003C000E9FFFD0EDBCFEAFFEF50106E116AD89007
:1003D000115004E6800E105C000E11580DE2FC0E68
:1003E000DBCFE9FFFD0EDBCFEAFF020EE926000EB0
:1003F000EA22EE50ED1003E1000EF8EF05F0FE0EDC
:10040000DB50370DF3CFE9FFF4CFEAFF000EE9260A
:10041000030EEA22EE52E9CF10F0EACF11F0050EFA
:1004200010C0DBFF060E11C0DBFFFC0EDBCFE9FFC7
:10043000FD0EDBCFEAFFEECF10F0EECF11F0EECFE6
:1004400012F0EECF13F0EECF14F0EFCF15F0050E53
:10045000DBCFE9FF060EDBCFEAFF10C0EEFF11C0D5
:10046000EEFF12C0EEFF13C0EEFF14C0EEFF15C08A
:10047000EEFFFE0EDB50370DF3CFE9FFF4CFEAFFBE
:10048000000EE926030EEA22060EE926000EEA22F5
:10049000EF50E66EFE0EDB50370DF3CFE9FFF4CFE1
:1004A000EAFF000EE926030EEA22070EE926000EF7
:1004B000EA22E552E750EF6E0E0EDF6EDFCFE6FF69
:1004C000E66AE66AFE0EDB50370DF3CFE9FFF4CFA4
:1004D000EAFF000EE926030EEA22290EE926000EA5
:1004E000EA22E9CF10F0EACF11F010C0E6FF11C008
:1004F000E6FFD5EC19F0126E050EE15E1250DFCF6B
:10050000E6FFE66AE66AFE0EDB50370DF3CFE9FF41
:10051000F4CFEAFF000EE926030EEA220D0EE926CB
:10052000000EEA22E9CF10F0EACF11F010C0E6FF8A
:1005300011C0E6FFD5EC19F0126E050EE15E125007
:10054000DFCFE6FFE66AE66AFE0EDB50370DF3CF3B
:10055000E9FFF4CFEAFF000EE926030EEA220D0EB2
:10056000E926000EEA22E9CF10F0EACF11F00E0ED4
:100570001026000E112210C0E6FF11C0E6FFD5ECD8
:1005800019F0126E050EE15E1250FE0EDB50370DB3
:10059000F3CFE9FFF4CFEAFF000EE926030EEA22CB
:1005A000060EE926000EEA22EF5001E088D1FE0E89
:1005B000DB50370DF3CFE9FFF4CFEAFF000EE92659
:1005C000030EEA22080EE926000EEA22EF6ADF6A2D
:1005D000FE0EDB50370DF3CFE9FFF4CFEAFF000E3C
:1005E000E926030EEA22020EE926000EEA22EF5067
:1005F000DF5C01E363D1FE0EDB50370DF3CFE9FF83
:10060000F4CFEAFF000EE926030EEA22080EE926DF
:10061000000EEA22EF50EF2A106E116AFE0EDB5038
:10062000370DF3CFE9FFF4CFEAFF000EE926030E02
:10063000EA22030EE926000EEA221050EE24E76EAD
:100640001150EE20EA6EE7CFE9FFEF50E00FE76EC2
:10065000040EE7CFDBFF040EDBCF10F010340EE208
:10066000040EDBCF11F0630EE76E1118E8AE02D076
:10067000113403D0E750D880115402E2040EDB6A33
:10068000FE0EDB50370DF3CFE9FFF4CFEAFF000E8B
:10069000E926030EEA22080EE926000EEA22EFCF31
:1006A00010F0FE0EDB50370DF3CFE9FFF4CFEAFF79
:1006B000000EE926030EEA22050EE926000EEA22C4
:1006C000EF50105C10E3FE0EDB50370DF3CFE9FF67
:1006D000F4CFEAFF000EE926030EEA22080EE9260F
:1006E000000EEA22EF6A010EDB6A070EF36E010EBE
:1006F000DBCFF4FFF350F45C01E3DED0040EDBCF7C
:1007000014F0156A14BE1568030ED8901436153609
:10071000E806FBE10E0E1426270E1522010EDB5013
:100720000F011424F66E000E1520F76E0800F55028
:10073000E66EFE0EDB50370DF3CFE9FFF4CFEAFF94
:10074000000EE926030EEA22290EE926000EEA220F
:10075000E9CF12F0EACF13F0010EDB50020D125078
:10076000F324106E1350F420116EDF500F0110248B
:10077000E96E000E1120EA6EE552E750EF6EFE0EB4
:10078000DB50370DF3CFE9FFF4CFEAFF000EE92687
:10079000030EEA22290EE926000EEA22E9CF16F01E
:1007A000EACF17F0010EDB50020D1650F324146E41
:1007B0001750F420156EDF500F011424E96E000E5F
:1007C0001520EA6EEF50E66EFE0EDB50370DF3CFCC
:1007D000E9FFF4CFEAFF000EE926030EEA220D0E30
:1007E000E926000EEA22E9CF12F0EACF13F0010E5B
:1007F000DB50020D1250F324106E1350F420116ED2
:10080000DF500F011024E96E000E1120EA6EE55250
:10081000E750EF6EFE0EDB50370DF3CFE9FFF4CF5C
:10082000EAFF000EE926030EEA22290EE926000E51
:10083000EA22E9CF16F0EACF17F0010EDB50020DE5
:100840001650F324146E1750F420156EDF500F016C
:100850001424E96E000E1520EA6EEF50E66EFE0ECF
:10086000DB50370DF3CFE9FFF4CFEAFF000EE926A6
:10087000030EEA220D0EE926000EEA22E9CF12F05D
:10088000EACF13F00E0E1226000E1322010EDB50DB
:10089000020D1250F324106E1350F420116EDF502D
:1008A0000F011024E96E000E1120EA6EE552E750A8
:1008B000EF6E010EDB2A19D7DF2A8AD687D1FE0E0A
:1008C000DB50370DF3CFE9FFF4CFEAFF000EE92646
:1008D000030EEA22080EE926000EEA22EF6ADF6A1A
:1008E000FE0EDB50370DF3CFE9FFF4CFEAFF000E29
:1008F000E926030EEA22020EE926000EEA22EF5054
:10090000DF5C01E363D1FE0EDB50370DF3CFE9FF6F
:10091000F4CFEAFF000EE926030EEA22080EE926CC
:10092000000EEA22EF50EF2A106E116AFE0EDB5025
:10093000370DF3CFE9FFF4CFEAFF000EE926030EEF
:10094000EA22030EE926000EEA221050EE24E76E9A
:100950001150EE20EA6EE7CFE9FFEF50E00FE76EAF
:10096000040EE7CFDBFF040EDBCF10F010340EE2F5
:10097000040EDBCF11F0630EE76E1118E8AE02D063
:10098000113403D0E750D880115402E2040EDB6A20
:10099000FE0EDB50370DF3CFE9FFF4CFEAFF000E78
:1009A000E926030EEA22080EE926000EEA22EFCF1E
:1009B00010F0FE0EDB50370DF3CFE9FFF4CFEAFF66
:1009C000000EE926030EEA22050EE926000EEA22B1
:1009D000EF50105C10E3FE0EDB50370DF3CFE9FF54
:1009E000F4CFEAFF000EE926030EEA22080EE926FC
:1009F000000EEA22EF6A010EDB6A070EF36E010EAB
:100A0000DBCFF4FFF350F45C01E3DED0040EDBCF68
:100A100014F0156A14BE1568030ED89014361536F6
:100A2000E806FBE10E0E1426270E1522010EDB5000
:100A30000F011424F66E000E1520F76E0800F55015
:100A4000E66EFE0EDB50370DF3CFE9FFF4CFEAFF81
:100A5000000EE926030EEA22290EE926000EEA22FC
:100A6000E9CF12F0EACF13F0010EDB50020D125065
:100A7000F324106E1350F420116EDF500F01102478
:100A8000E96E000E1120EA6EE552E750EF6EFE0EA1
:100A9000DB50370DF3CFE9FFF4CFEAFF000EE92674
:100AA000030EEA22290EE926000EEA22E9CF16F00B
:100AB000EACF17F0010EDB50020D1650F324146E2E
:100AC0001750F420156EDF500F011424E96E000E4C
:100AD0001520EA6EEF50E66EFE0EDB50370DF3CFB9
:100AE000E9FFF4CFEAFF000EE926030EEA220D0E1D
:100AF000E926000EEA22E9CF12F0EACF13F0010E48
:100B0000DB50020D1250F324106E1350F420116EBE
:100B1000DF500F011024E96E000E1120EA6EE5523D
:100B2000E750EF6EFE0EDB50370DF3CFE9FFF4CF49
:100B3000EAFF000EE926030EEA22290EE926000E3E
:100B4000EA22E9CF16F0EACF17F0010EDB50020DD2
:100B50001650F324146E1750F420156EDF500F0159
:100B60001424E96E000E1520EA6EEF50E66EFE0EBC
:100B7000DB50370DF3CFE9FFF4CFEAFF000EE92693
:100B8000030EEA220D0EE926000EEA22E9CF12F04A
:100B9000EACF13F00E0E1226000E1322010EDB50C8
:100BA000020D1250F324106E1350F420116EDF501A
:100BB0000F011024E96E000E1120EA6EE552E75095
:100BC000EF6E010EDB2A19D7DF2A8AD6FE0EDB5024
:100BD000370DF3CFE9FFF4CFEAFF000EE926030E4D
:100BE000EA22080EE926000EEA22EF6A010E00D082
:100BF000106E070EE15C02E2E16AE552E16E105010
:100C0000E552E7CFD9FF1200D9CFE6FFE1CFD9FFF8
:100C1000FE0EDB50370DF3CFE9FFF4CFEAFF000EF5
:100C2000E926030EEA22060EE926000EEA22FD0E50
:100C3000DBCFEFFFFE0EDB50370DF3CFE9FFF4CF34
:100C4000EAFF000EE926030EEA22070EE926000E4F
:100C5000EA22FD0EDBCFEFFFE552E7CFD9FF12000E
:100C6000D9CFE6FFE1CFD9FF020EE126FD0EDB5022
:100C7000106E116AFE0EDB50370DF3CFE9FFF4CF93
:100C8000EAFF000EE926030EEA22030EE926000E13
:100C9000EA221050EE24E76E1150EE20EA6EE7CF04
:100CA000E9FFEF50E00FE76E010EE7CFDBFFDF6AF1
:100CB000070EDF5C01E3B3D0010EDB50080DF3CF6C
:100CC00014F0F4CF15F00E0E1426270E1522DF5067
:100CD0000F011424F66E000E1520F76E0800F55073
:100CE000E66EFE0EDB50370DF3CFE9FFF4CFEAFFDF
:100CF000000EE926030EEA22290EE926000EEA225A
:100D0000E9CF12F0EACF13F0DF50020D1250F324B6
:100D1000106E1350F420116EFD0EDB500F011024E5
:100D2000E96E000E1120EA6EE552E750EF6E156A8B
:100D3000DF34FE0B1536146E290E1426030E152211
:100D4000FD0EDB500F011424E96E000E1520EA6E33
:100D5000EF50E66EFE0EDB50370DF3CFE9FFF4CF18
:100D6000EAFF000EE926030EEA220D0EE926000E28
:100D7000EA22E9CF12F0EACF13F0DF50020D125051
:100D8000F324106E1350F420116EFD0EDB500F0192
:100D90001024E96E000E1120EA6EE552E750EF6E66
:100DA000156ADF34FE0B1536146E290E1426030E59
:100DB0001522FD0EDB500F011424E96E000E1520E4
:100DC000EA6EEF50E66EFE0EDB50370DF3CFE9FF13
:100DD000F4CFEAFF000EE926030EEA220D0EE92603
:100DE000000EEA22E9CF12F0EACF13F00E0E12261F
:100DF000000E1322DF50020D1250F324106E135018
:100E0000F420116EFD0EDB500F011024E96E000E70
:100E10001120EA6EE552E750EF6EDF2A49D7020E45
:100E2000E15C02E2E16AE552E16EE552E7CFD9FF0B
:100E30001200D9CFE6FFE1CFD9FFE652FE0EDB501C
:100E4000370DF3CFE9FFF4CFEAFF000EE926030EDA
:100E5000EA22EE52EF6AFE0EDB50370DF3CFE9FFC8
:100E6000F4CFEAFF000EE926030EEA22030EE9267C
:100E7000000EEA22EE6AED6AFE0EDB50370DF3CF6C
:100E8000E9FFF4CFEAFF000EE926030EEA22050E81
:100E9000E926000EEA22EF6AFE0EDB50370DF3CF93
:100EA000E9FFF4CFEAFF000EE926030EEA22060E60
:100EB000E926000EEA22EF6AFE0EDB50370DF3CF73
:100EC000E9FFF4CFEAFF000EE926030EEA22090E3D
:100ED000E926000EEA22EF6AFE0EDB50370DF3CF53
:100EE000E9FFF4CFEAFF000EE926030EEA220A0E1C
:100EF000E926000EEA22EF6AFE0EDB50370DF3CF33
:100F0000E9FFF4CFEAFF000EE926030EEA22070EFE
:100F1000E926000EEA22EF6AFE0EDB50370DF3CF12
:100F2000E9FFF4CFEAFF000EE926030EEA220B0EDA
:100F3000E926000EEA22EF6AFE0EDB50370DF3CFF2
:100F4000E9FFF4CFEAFF000EE926030EEA220C0EB9
:100F5000E926000EEA22EF6AFE0EDB50370DF3CFD2
:100F6000E9FFF4CFEAFF000EE926030EEA22080E9D
:100F7000E926000EEA22EF6AFE0EDB50370DF3CFB2
:100F8000E9FFF4CFEAFF000EE926030EEA22020E83
:100F9000E926000EEA22EF6A0E0EDF6EDFCFE6FFD3
:100FA000E66AE66AFE0EDB50370DF3CFE9FFF4CFB9
:100FB000EAFF000EE926030EEA22290EE926000EBA
:100FC000EA22E9CF10F0EACF11F010C0E6FF11C01D
:100FD000E6FFD5EC19F0126E050EE15E1250DFCF80
:100FE000E6FFE66AE66AFE0EDB50370DF3CFE9FF57
:100FF000F4CFEAFF000EE926030EEA220D0EE926E1
:10100000000EEA22E9CF10F0EACF11F010C0E6FF9F
:1010100011C0E6FFD5EC19F0126E050EE15E12501C
:10102000DFCFE6FFE66AE66AFE0EDB50370DF3CF50
:10103000E9FFF4CFEAFF000EE926030EEA220D0EC7
:10104000E926000EEA22E9CF10F0EACF11F00E0EE9
:101050001026000E112210C0E6FF11C0E6FFD5ECED
:1010600019F0126E050EE15E1250E552E552E7CF1F
:10107000D9FF1200D9CFE6FFE1CFD9FF050EE12657
:10108000DF6A010EDF5C01E3BED3DF50370DF3CF23
:10109000E9FFF4CFEAFF000EE926030EEA22060E6E
:1010A000E926000EEA22EF5021E0DF50370DF3CFA2
:1010B000E9FFF4CFEAFF000EE926030EEA22070E4D
:1010C000E926000EEA22EF06DF50370DF3CFE9FFE5
:1010D000F4CFEAFF000EE926030EEA22070EE92606
:1010E000000EEA22EF50000801E28BD3DF50370DEB
:1010F000F3CFE9FFF4CFEAFF000EE926030EEA2260
:10110000060EE926000EEA22EF50E66EDF50370D9C
:10111000F3CFE9FFF4CFEAFF000EE926030EEA223F
:10112000070EE926000EEA22E552E750EF6E9D9089
:10113000DF50370DF3CFE9FFF4CFEAFF000EE926C9
:10114000030EEA22090EE926000EEA22EF5025E1FD
:10115000DF50370DF3CFE9FFF4CFEAFF000EE926A9
:10116000030EEA220C0EE926000EEA22EF5002E1FD
:10117000010E01D0000EE66EDF50370DF3CFE9FF10
:10118000F4CFEAFF000EE926030EEA220B0EE92651
:10119000000EEA22E552E750EF6EDF50370DF3CF35
:1011A000E9FFF4CFEAFF000EE926030EEA22090E5A
:1011B000E926000EEA22EF0402E19D8022D39D8001
:1011C000DF50370DF3CFE9FFF4CFEAFF000EE92639
:1011D000030EEA22060EE926000EEA22EF5001E194
:1011E000FED2010EDB6A070EF36E010EDBCFF4FFB9
:1011F000F350F45C01E383D2010EF36E020EF3CFE1
:10120000DBFFDF50370DF3CFE9FFF4CFEAFF000E2D
:10121000E926030EEA22020EE926000EEA22EF502A
:10122000F36E020EDBCFF4FFF350F45C01E313D155
:10123000DF50370DF3CFE9FFF4CFEAFF000EE926C8
:10124000030EEA22290EE926000EEA22E9CF12F067
:10125000EACF13F0010EDB50020D1250F324106E92
:101260001350F420116E020EDB040F011024E96EFE
:10127000000E1120EA6EEF9EEF46070EE66EDF507D
:10128000370DF3CFE9FFF4CFEAFF000EE926030E96
:10129000EA22290EE926000EEA22E9CF12F0EACF6F
:1012A00013F0010EDB50020D1250F324106E135098
:1012B000F420116E020EDB500F011024E96E000EB7
:1012C0001120EA6EEF50E66E46EC00F0E552E55272
:1012D00001082FE1020EE66EDF50370DF3CFE9FF74
:1012E000F4CFEAFF000EE926030EEA22290EE926D2
:1012F000000EEA22E9CF14F0EACF15F0010EDB5020
:10130000020D1450F324126E1550F420136E020EC9
:10131000DB0400011224106E000E1320116E10C0A9
:10132000E6FF11C0E6FF66EC00F0E552E552E5523B
:101330002ED0020EE66EDF50370DF3CFE9FFF4CF6B
:10134000EAFF000EE926030EEA22290EE926000E26
:10135000EA22E9CF14F0EACF15F0010EDB50020DBE
:101360001450F324126E1550F420136E020EDB0499
:1013700000011224106E000E1320116E10C0E6FF43
:1013800011C0E6FF81EC00F0E552E552E552DF5076
:10139000370DF3CFE9FFF4CFEAFF000EE926030E85
:1013A000EA22290EE926000EEA22E9CF18F0EACF58
:1013B00019F0010EDB50020D1850F324166E19506F
:1013C000F420176E020EDB040F011624E96E000EE6
:1013D0001720EA6EEF50E66EDF50370DF3CFE9FFCE
:1013E000F4CFEAFF000EE926030EEA220D0EE926ED
:1013F000000EEA22E9CF14F0EACF15F0DF50370DE6
:10140000F3CFE9FFF4CFEAFF000EE926030EEA224C
:101410000B0EE926000EEA22EF500E0D1450F324B5
:10142000126E1550F420136E010EDB50020D125097
:10143000F324106E1350F420116E020EDB040F0122
:101440001024E96E000E1120EA6EE552E750EF6EAF
:10145000020EDB2AD6D6DF50370DF3CFE9FFF4CFEB
:10146000EAFF000EE926030EEA22290EE926000E05
:10147000EA22E9CF12F0EACF13F0010EDB50020DA1
:101480001250F324106E1350F420116E020EDB0480
:101490000F011024E96E000E1120EA6EEF9EEF4658
:1014A000DF50370DF3CFE9FFF4CFEAFF000EE92656
:1014B000030EEA22080EE926000EEA22EF50106E13
:1014C000116ADF50370DF3CFE9FFF4CFEAFF000ECA
:1014D000E926030EEA22030EE926000EEA22105046
:1014E000EE24E76E1150EE20EA6EE7CFE9FFEF50F1
:1014F000E00FE76E030EE7CFDBFF000EF36E030E87
:10150000DBCFF4FFF350F45C04E3030EDB5063081D
:1015100002E2030EDB6A030EDB50080DF3CF10F07E
:10152000F4CF11F00E0E1026270E1122010EDB5003
:101530000F011024F66E000E1120F76E0800040E45
:10154000F5CFDBFF070E106EDF50370DF3CFE9FF4D
:10155000F4CFEAFF000EE926030EEA220A0EE9267E
:10156000000EEA22EF50105CE66E040EDBCFE6FFC1
:1015700046EC00F0E552E55201082FE1020EE66E5E
:10158000DF50370DF3CFE9FFF4CFEAFF000EE92675
:10159000030EEA22290EE926000EEA22E9CF14F012
:1015A000EACF15F0010EDB50020D1450F324126E39
:1015B0001550F420136E020EDB0400011224106E8D
:1015C000000E1320116E10C0E6FF11C0E6FF66EC9E
:1015D00000F0E552E552E5522ED0020EE66EDF50E5
:1015E000370DF3CFE9FFF4CFEAFF000EE926030E33
:1015F000EA22290EE926000EEA22E9CF14F0EACF0A
:1016000015F0010EDB50020D1450F324126E15502C
:10161000F420136E020EDB0400011224106E000E83
:101620001320116E10C0E6FF11C0E6FF81EC00F040
:10163000E552E552E552DF50370DF3CFE9FFF4CF25
:10164000EAFF000EE926030EEA22290EE926000E23
:10165000EA22E9CF18F0EACF19F0010EDB50020DB3
:101660001850F324166E1950F420176E020EDB0486
:101670000F011624E96E000E1720EA6EEF50E66E99
:10168000DF50370DF3CFE9FFF4CFEAFF000EE92674
:10169000030EEA220D0EE926000EEA22E9CF14F02D
:1016A000EACF15F0DF50370DF3CFE9FFF4CFEAFFB3
:1016B000000EE926030EEA220B0EE926000EEA22AE
:1016C000EF500E0D1450F324126E1550F420136ECB
:1016D000010EDB50020D1250F324106E1350F42053
:1016E000116E020EDB040F011024E96E000E1120B2
:1016F000EA6EE552E750EF6E010EDB2A74D5DF503B
:10170000370DF3CFE9FFF4CFEAFF000EE926030E11
:10171000EA220A0EE926000EEA22EF2ADF50370DF0
:10172000F3CFE9FFF4CFEAFF000EE926030EEA2229
:101730000A0EE926000EEA22EFCF10F0060E105C2A
:101740004EE3DF50370DF3CFE9FFF4CFEAFF000E91
:10175000E926030EEA22080EE926000EEA22EF2A05
:10176000DF50370DF3CFE9FFF4CFEAFF000EE92693
:10177000030EEA22080EE926000EEA22EFCF10F04F
:10178000DF50370DF3CFE9FFF4CFEAFF000EE92673
:10179000030EEA22050EE926000EEA22EF50105C45
:1017A0000FE3DF50370DF3CFE9FFF4CFEAFF000E70
:1017B000E926030EEA22080EE926000EEA22EF6A65
:1017C000DF50370DF3CFE9FFF4CFEAFF000EE92633
:1017D000030EEA220A0EE926000EEA22EF6A9D9025
:1017E000DF50370DF3CFE9FFF4CFEAFF000EE92613
:1017F000030EEA22090EE926000EEA22010EEF6E20
:101800009D80DF2A3ED4050EE15C02E2E16AE552EA
:10181000E16EE552E7CFD9FF1200D9CFE6FFE1CF65
:10182000D9FF040EE1268392839483968398839A4A
:10183000839C839E020EDB6A010EF36E020EDBCFE9
:10184000F4FFF350F45C01E390D0030EDB6A020E68
:10185000DB50370DF3CFE9FFF4CFEAFF000EE926A6
:10186000030EEA22020EE926000EEA22EF50F36E82
:10187000030EDBCFF4FFF350F45C74E2020EDB5096
:10188000370DF3CFE9FFF4CFEAFF000EE926030E90
:10189000EA220D0EE926000EEA22E9CF14F0EACF83
:1018A00015F0020EDB50370DF3CFE9FFF4CFEAFF5E
:1018B000000EE926030EEA220C0EE926000EEA22AB
:1018C000EF500E0D1450F324126E1550F420136EC9
:1018D00003013751020D1250F324106E1350F420FF
:1018E000116E030EDB500F011024E96E000E112063
:1018F000EA6EEFCFDFFF030EDBCFE6FF020EDB5019
:10190000370DF3CFE9FFF4CFEAFF000EE926030E0F
:10191000EA22EE52EF50E552E724E76E010EE7CFE0
:10192000DBFF400EF36E010EDBCFF4FFF350F45CEF
:101930000AE3800E106E010EDBCFE7FF1050E726A2
:10194000010EE7CFDBFF010EDB50846EDF1C806EE3
:101950008590080EE66E8FEC1CF0E5528580030E34
:10196000DB2A75D7020EDB2A67D703013751060A37
:101970003DE0030A33E0010A29E0070A1FE0010AFB
:1019800015E0030A0BE0010A01E038D0838283945A
:1019900083968398839A839C839E31D08392838499
:1019A00083968398839A839C839E29D08392839481
:1019B00083868398839A839C839E21D08392839489
:1019C00083968388839A839C839E19D08392839481
:1019D00083968398838A839C839E11D08392839479
:1019E00083968398839A838C839E09D08392839471
:1019F00083968398839A839C838E01D000D00301C1
:101A0000372B070E0301375D57E30301376B020ED7
:101A1000DB6A010EF36E020EDBCFF4FFF350F45CD1
:101A20004BE2020EDB50370DF3CFE9FFF4CFEAFFB4
:101A3000000EE926030EEA22090EE926000EEA222C
:101A4000EF0437E1020EDB50370DF3CFE9FFF4CF9F
:101A5000EAFF000EE926030EEA220C0EE926000E2C
:101A6000EA22EF5002E1010E01D0000EE66E020EF6
:101A7000DB50370DF3CFE9FFF4CFEAFF000EE92684
:101A8000030EEA220C0EE926000EEA22E552E75088
:101A9000EF6E020EDB50370DF3CFE9FFF4CFEAFF14
:101AA000000EE926030EEA22090EE926000EEA22BC
:101AB000EF6A020EDB2AADD7040EE15C02E2E16AB6
:101AC000E552E16EE552E7CFD9FF1200D9CFE6FF2C
:101AD000E1CFD9FF400EF36EFE0EDBCFF4FFF350E3
:101AE000F45C0AE3800E106EFE0EDBCFE7FF1050B1
:101AF000E726FE0EE7CFDBFF8580FE0EDB50846E0F
:101B0000FD0EDB50806E8590500EE66E8FEC1CF063
:0C1B1000E5528580E552E7CFD9FF1200B6
:041B1C00DACFE4FF39
:101B2000E2CFDAFFE9CFE4FFEACFE4FFF6CFE4FF4C
:101B3000F7CFE4FFF5CFE4FFF3CFE4FFF4CFE4FF0A
:101B4000FACFE4FF00EE00F0100EE80403E3EECF5E
:101B5000E4FFFBD700EE10F00A0EE80403E3EECF3B
:101B6000E4FFFBD7E652D9CFE6FFE1CFD9FFE6523B
:101B7000A4EC1BF0DF6E0B01BD51BD2BEA6AC00F58
:101B8000E96E0B0EEA22DFCFEFFF3C0E0B01BD5DCD
:101B900002E30B01BD6B0B01BF2BA49AE552E5528A
:101BA000E7CFD9FFE55200EE19F00A0EE80403E38F
:101BB000E5CFEDFFFBD700EE0FF0100EE80403E3D6
:101BC000E5CFEDFFFBD7E5CFFAFFE5CFF4FFE5CF9B
:101BD000F3FFE5CFF5FFE5CFF7FFE5CFF6FFE5CF64
:101BE000EAFFE5CFE9FFE5CFDAFF1100DACFE4FF46
:101BF000E2CFDAFFE9CFE4FFEACFE4FFE652D9CF44
:101C0000E6FFE1CFD9FFE6520B01025104E1ACA29D
:101C1000FED7AC9A21D00B010151EA6A030FE96E9D
:101C20000B0EEA22EFCFDFFFDF50AD6E0B01012B71
:101C30003C0E0B01015D02E30B01016B000E0B0179
:101C4000E76E0219E8AE02D0023503D0E750D88023
:101C5000025502E20B010207E552E552E7CFD9FF38
:101C6000E552E5CFEAFFE5CFE9FFE5CFDAFF110066
:101C7000DACFE4FFE2CFDAFFE9CFE4FFEACFE4FF17
:101C8000E652D9CFE6FFE1CFD9FFE6520B018051F2
:101C900004E16CA2FED76C9A21D00B017F51EA6A55
:101CA000810FE96E0B0EEA22EFCFDFFFDF506D6E82
:101CB0000B017F2B3C0E0B017F5D02E30B017F6B61
:101CC000000E0B01E76E8019E8AE02D0803503D01C
:101CD000E750D880805502E20B018007E552E552BB
:101CE000E7CFD9FFE552E5CFEAFFE5CFE9FFE5CF42
:101CF000DAFF1100D9CFE6FFE1CFD9FFE6527C0E23
:101D0000DF6ED950FB0FE96EFF0EDA20EA6EEE2A85
:101D1000000EEE22000EEE22000EEE22D950FB0F36
:101D2000E96EFF0EDA20EA6E040EE76ED890EF3609
:101D3000010EEB36020EEB36030EEB36E706F6E14C
:101D4000106A480E116EE80E126E010E136E10C06E
:101D500004F011C005F012C006F013C007F0FB0E2E
:101D6000DBCF09F0FC0EDBCF0AF0FD0EDBCF0BF072
:101D7000FE0EDBCF0CF03EEC1BF0FB0E04C0DBFFD5
:101D8000FC0E05C0DBFFFD0E06C0DBFFFE0E07C02C
:101D9000DBFFFB0EDBCFE6FFFC0EDBCFE6FFDFCF8A
:101DA000E6FF63EC1AF0E552E552E552AC8AAC9ED0
:101DB0009D8A9F88E552E552E7CFD9FF1200D9CF1F
:101DC000E6FFE1CFD9FFE6527C0EDF6ED950FB0F64
:101DD000E96EFF0EDA20EA6EEE2A000EEE22000E09
:101DE000EE22000EEE22D950FB0FE96EFF0EDA2034
:101DF000EA6E040EE76ED890EF36010EEB36020E57
:101E0000EB36030EEB36E706F6E1106A480E116E6C
:101E1000E80E126E010E136E10C004F011C005F032
:101E200012C006F013C007F0FB0EDBCF09F0FC0E6A
:101E3000DBCF0AF0FD0EDBCF0BF0FE0EDBCF0CF09C
:101E40003EEC1BF0FB0E04C0DBFFFC0E05C0DBFF0D
:101E5000FD0E06C0DBFFFE0E07C0DBFFFB0EDBCF77
:101E6000E6FFFC0EDBCFE6FFDFCFE6FF1EEC1AF04D
:101E7000E552E552E552D08E6B8E6C8A6C9EA38A39
:101E8000A58AE552E552E7CFD9FF1200D9CFE6FF88
:101E9000E1CFD9FFACA2FED70B010051002BEA6ABB
:101EA000030FE96E0B0EEA22FE0EDBCFEFFF0B01F4
:101EB000022B3C0E0B01005D02E30B01006B010ED7
:101EC00000D0E552E7CFD9FF1200D9CFE6FFE1CF2E
:101ED000D9FF6CA2FED70B017E517E2BEA6A810FDF
:101EE000E96E0B0EEA22FE0EDBCFEFFF0B01802B1B
:101EF0003C0E0B017E5D02E30B017E6B010E00D0F8
:101F0000E552E7CFD9FF1200D9CFE6FFE1CFD9FFE5
:101F1000060EE126010EF36E020EF3CFDBFF030E79
:101F2000DB6A020EDBCF10F0DB06030EDBCF11F015
:101F300001E2DB061050111006E0080EE66E52ECCE
:101F40001CF0E552EED7000E0B01E76E0219E8AE69
:101F500002D0023503D0E750D880025528E20B01A9
:101F60000151EA6A030FE96E0B0EEA22010EEFCF70
:101F7000DBFFACA2FED7010EDB50AD6EACA2FED7EC
:101F80000B01012B3C0E0B01015D02E30B01016B08
:101F9000000E0B01E76E0219E8AE02D0023503D045
:101FA000E750D880025502E20B010207CCD7010EA0
:101FB000F36E040EF3CFDBFF050EDB6A040EDBCFFE
:101FC00010F0DB06050EDBCF11F001E2DB0610504E
:101FD000111006E0080EE66E52EC1CF0E552EED74A
:101FE000106E060EE15C02E2E16AE552E16E10500D
:101FF000E552E7CFD9FF1200D9CFE6FFE1CFD9FFF5
:10200000060EE126010EF36E020EF3CFDBFF030E88
:10201000DB6A020EDBCF10F0DB06030EDBCF11F024
:1020200001E2DB061050111006E0080EE66E52ECDD
:102030001CF0E552EED7000E0B01E76E8019E8AEFA
:1020400002D0803503D0E750D880805528E20B01BC
:102050007F51EA6A810FE96E0B0EEA22010EEFCF83
:10206000DBFF6CA2FED7010EDB506D6E6CA2FED7BB
:102070000B017F2B3C0E0B017F5D02E30B017F6B9D
:10208000000E0B01E76E8019E8AE02D0803503D058
:10209000E750D880805502E20B018007CCD7010EB3
:1020A000F36E040EF3CFDBFF050EDB6A040EDBCF0D
:1020B00010F0DB06050EDBCF11F001E2DB0610505D
:1020C000111006E0080EE66E52EC1CF0E552EED759
:1020D000106E060EE15C02E2E16AE552E16E10501C
:1020E000E552E7CFD9FF1200D9CFE6FFE1CFD9FF04
:1020F000E652DF6AA39A000E0B01E76EBF19E8AE45
:1021000002D0BF3503D0E750D880BF5502E2010EA0
:10211000DF6EA38ADF5000D0E552E552E7CFD9FF4A
:102120001200D9CFE6FFE1CFD9FFE652DF6A9D9AD0
:10213000000E0B01E76E4119E8AE02D0413503D025
:10214000E750D880415502E2010EDF6E9D8ADF50D4
:1021500000D0E552E552E7CFD9FF1200D9CFE6FF14
:10216000E1CFD9FFE6529D9A0B014051402BEA6A1C
:10217000420FE96E0B0EEA22EFCFDFFF3C0E0B01A0
:10218000405D02E30B01406B000E0B01E76E41194D
:10219000E8AE02D0413503D0E750D880415502E285
:1021A0000B0141079D8ADF5000D0E552E552E7CF91
:1021B000D9FF1200D9CFE6FFE1CFD9FFE652A39AAB
:1021C0000B01BE51BE2BEA6AC00FE96E0B0EEA226C
:1021D000EFCFDFFF3C0E0B01BE5D02E30B01BE6BD8
:1021E000000E0B01E76EBF19E8AE02D0BF3503D079
:1021F000E750D880BF5502E20B01BF079D8ADF5030
:0C22000000D0E552E552E7CFD9FF1200F4
:04220C00D9CFE6FF41
:10221000E1CFD9FFFE0EDBCF01F2FD0EDBCF02F2E4
:10222000FC0EDBCF03F2FB0EDBCF04F2F90EDBCFAB
:1022300081F2FA0EDBCF82F204D8E552E7CFD9FF64
:102240001200E66A4B0EE66EE66AE66A7AEC0EF07B
:10225000E552E552E552E552E66A4B0EE66EE66A55
:10226000E66ADFEC0EF0E552E552E552E552020176
:102270007D6B02017E6B0201010E006F02017F6B1C
:102280000201050E806F87C283F288C284F289C280
:1022900085F28AC286F200C28BF2120002017D6BC7
:1022A00002017E6B0201010E006F02017F6B0201D1
:1022B000050E806F87C283F288C284F289C285F2DC
:1022C0008AC286F200C28BF21200D9CFE6FFE1CFBC
:1022D000D9FF060EE126DF6A0AEC17F004C087F288
:1022E00005C088F206C089F207C08AF2ABA207D007
:1022F000AB98080EE66E8FEC1CF0E552AB886BA233
:1023000007D06B98080EE66E8FEC1CF0E5526B88D8
:10231000830EE96E020EEA6EEE50020187190CE19F
:10232000EE500201881908E1EE500201891904E11A
:10233000EE5002018A1900E118E002010051020189
:102340008B5D0BE1020E0201005D07E102018007D7
:102350000201805102E175DFE0D087C283F288C2BA
:1023600084F289C285F28AC286F202010051030A10
:1023700001E1CCD0010A1FE0030A01E0CAD091ECD0
:1023800010F0000901E1C9D0AEEC10F0DF6EDFCF34
:10239000E6FF65EC0FF0E552FCEC0FF00201015195
:1023A000DF5C08E102017D6B0201020E006F020199
:1023B000050E806FB0D091EC10F0000901E1ADD0B6
:1023C000AEEC10F0DF6EDFCFE6FF65EC0FF0E5520C
:1023D000FCEC0FF002010251DF5C01E07BD0020E49
:1023E000DB6A030EDB68D950030FE66E000EDA20BD
:1023F000E66E9DD8E552E552E76E020EE7CFDBFFB1
:10240000020EDB50020A57E0030A05E0010A01E070
:102410005CD044DF82D00201815182114AE0D95060
:10242000040FE66E000EDA20E66E7F0EE66E020EF8
:10243000E66E070EE66E020EE66E05D082C2FAFF69
:1024400002018151F96EFADF106E060EE15E105046
:1024500002017E6F0201416902017E2B7FC242F2BE
:1024600002017E2BDE52020EDD6E02017E51F36E02
:10247000010EDBCFF4FFF350F45C1AE2040EDBCF65
:10248000E9FF050EDBCFEAFFEF50E66E010EDB50F1
:10249000EA6A410FE96E020EEA22E552E750EF6E5A
:1024A000040EDB2A050E01E3DB2A010EDB2ADDD751
:1024B00001D0F4DE0BD00201010E416F02017E2B30
:1024C0007FC242F202017E2B01D000D00201030E36
:1024D000006F1BD002017D517D2BEA6A050FE96E6A
:1024E000020EEA22DFCFEFFF3C0E02017D5D0DE31D
:1024F0000201010E416F02017E2B0201900E426F1C
:1025000002017E2B0201030E006F05D060D8C6DEEB
:1025100002D0C4DE00D000C28BF2060EE15C02E203
:10252000E16AE552E16EE552E7CFD9FF1200D9CF5B
:10253000E6FFE1CFD9FF020EE12602017D05EA6A3E
:10254000050FE96E020EEA22EFCFDFFF010EDB6A14
:102550000201050506E0FF0E0201055D02E0000E26
:102560002AD002017D05E66E050EE66E020EE66ECD
:102570009CD8E552E552E552E76E010EE7CFDBFF4E
:10258000010EDB50DF5C0DE102017D0702017D5190
:10259000EA6A050FE96E020EEA22EF6A010E0BD01D
:1025A0000AD0FD0EDBCFE9FFFE0EDBCFEAFF910E76
:1025B000EF6E000E00D0106E020EE15C02E2E16AE6
:1025C000E552E16E1050E552E7CFD9FF1200D9CFA6
:1025D000E6FFE1CFD9FF020EE126DF6A010EDB6ADA
:1025E0007EC2E6FF410EE66E020EE66E5ED8E55252
:1025F000E552E552DF6E03C2E6FF46EC0FF0E5520E
:10260000010EDB6A02017E51F36E010EDBCFF4FF97
:10261000F350F45C0FE2010EDB50EA6A410FE96E01
:10262000020EEA22EF50E66E46EC0FF0E552010E84
:10263000DB2AE8D7DFCFE6FF46EC0FF0E55204C215
:10264000E6FF46EC0FF0E55284EC0FF0020EE15C81
:1026500002E2E16AE552E16EE552E7CFD9FF1200EE
:10266000D9CFE6FFE1CFD9FFFD0EDBCFF6FFFE0E9F
:10267000DBCFF7FF0800F55012E0FD0EDBCFF6FFD1
:10268000FE0EDBCFF7FF0800F550E66E46EC0FF0CC
:10269000E552FD0EDB2AFE0E01E3DB2AE5D784ECD2
:1026A0000FF0E552E7CFD9FF1200D9CFE6FFE1CF17
:1026B000D9FF030EE126DF6A010EDB6AFC0EDB5058
:1026C000F36E010EDBCFF4FFF350F45C12E2010E67
:1026D000DB50E76EFD0EDBCFE9FFFE0EDBCFEAFF3E
:1026E000E750E926000EEA22EF50DF1A010EDB2A3E
:1026F000E5D7DF5000D0106E030EE15C02E2E16A24
:0E270000E552E16E1050E552E7CFD9FF12000E
:02270E000000C9
:102710000000000000002020202000002000505079
:102720005000000000005050F850F8505000207841
:10273000A07028F02000C0C81020409818006090B9
:10274000A040A89068006020400000000000102019
:102750004040402010004020101010204000002079
:10276000A870A8200000002020F820200000000011
:102770000000301020000000007C0000000000007D
:102780000000006060000008102040800000708899
:1027900098A8C88870002060A0202020F8007088C9
:1027A00008102040F800F810201008887000103041
:1027B0005090F8101000F880F0080808F000304041
:1027C00080F088887000F808102040404000708831
:1027D00088708888700070888878081060000060B1
:1027E0006000606000000060600060204000081031
:1027F0002040201008000000F800F80000004020F1
:1028000010081020400070880810200020007088F8
:102810000868A8A87000205088F888888800F08888
:1028200088F08888F0007088808080887000E09050
:1028300088888890E000F88080F08080F800F88038
:1028400080F080808000708880B8888878008888D0
:1028500088F888888800F82020202020F800381088
:102860001010109060008890A0C0A0908800808018
:1028700080808080F80088D8A8A888888800888808
:10288000C8A8988888007088888888887000F08830
:1028900088F08080800070888888A8906800F08820
:1028A00088F0A0908800788080700808F000F820F8
:1028B00020202020200088888888888870008888C8
:1028C000888888502000888888A8A8A85000888810
:1028D0005020508888008888885020202000F808E0
:1028E00010204080F8007040404040407000885008
:1028F000F820F820200070101010101070002050E8
:10290000880000000000000000000000F8004020E7
:1029100010000000000000007008788878008080B7
:10292000B0C88888F00000007080808870000808B7
:1029300068988888780000007088F88070003048B7
:1029400040E040404000007888887808700080802F
:10295000B0C888888800200060202020700008000F
:102960000808084830004040485060504800602047
:102970002020202070000000D0A8A8888800000037
:10298000B0C88888880000007088888870000000BF
:10299000F088F08080000000689878080800000047
:1029A000B0C880808000000070807008F000404057
:1029B000E0404048300000008888889868000000A7
:1029C00088888850200000008888A8A8500000004F
:1029D0008850205088000000888878087000000027
:1029E000F8102040F8001020204020201000202067
:1029F000202020202000201010081010200000208F
:102A000010F810200000002040F84020000030485E
:102A1000483000000000304848300000000008182E
:102A20003878381808000404040404040400FFFF84
:102A3000FFFFFFFFFF00000404000404000000800B
:102A40008000808000008080808080808000C0C006
:102A5000C0C0C0C0C000E0E0E0E0E0E0E000F0F0B6
:102A6000F0F0F0F0F000F8F8F8F8F8F8F800FCFCF6
:102A7000FCFCFCFCFC00FDFDFDFDFDFDFD002070EF
:102A8000F870707070003048848484483000844846
:102A90003030304884000070487040400000003002
:102AA000407010600000004040404078000000008E
:102AB0008005C004E003F002F801000008041803D8
:062AC00038027801F80065
:0A2AC600DACFE4FFE2CFDAFFE9CF38
:102AD000E4FFEACFE4FFF6CFE4FFF7CFE4FFF5CF62
:102AE000E4FFF3CFE4FFF4CFE4FFFACFE4FF00EE1E
:102AF00000F0100EE80403E3EECFE4FFFBD700EE96
:102B000010F00A0EE80403E3EECFE4FFFBD7E65231
:102B1000F29402019A2B000E9B2302019C2B000EC3
:102B20009D2302019E2B000E9F230201A02B000E6D
:102B3000A1230201A207000EA35B0201A33504E258
:102B4000A2510008000EA3550AE30201A42B000EB7
:102B5000A523A623A723C80E0201A26FA36B02011F
:102B60008E518F1107E005D08FC2FAFF02018E51FE
:102B7000F96EFADF8CC2E6FF8DC2E6FF1AEC1CF09C
:102B8000E552E552E55200EE19F00A0EE80403E3BF
:102B9000E5CFEDFFFBD700EE0FF0100EE80403E3E6
:102BA000E5CFEDFFFBD7E5CFFAFFE5CFF4FFE5CFAB
:102BB000F3FFE5CFF5FFE5CFF7FFE5CFF6FFE5CF74
:102BC000EAFFE5CFE9FFE5CFDAFF1100DACFE4FF56
:102BD000E2CFDAFFE9CFE4FFEACFE4FFF6CFE4FF8C
:102BE000F7CFE4FFF5CFE4FFF3CFE4FFF4CFE4FF4A
:102BF000FACFE4FF00EE00F0100EE80403E3EECF9E
:102C0000E4FFFBD700EE10F00A0EE80403E3EECF7A
:102C1000E4FFFBD7E6529E9090C2E6FF91C2E6FF2A
:102C2000FEEC1BF0E552E55202019251931107E0D0
:102C300005D093C2FAFF02019251F96EFADFE55214
:102C400000EE19F00A0EE80403E3E5CFEDFFFBD731
:102C500000EE0FF0100EE80403E3E5CFEDFFFBD725
:102C6000E5CFFAFFE5CFF4FFE5CFF3FFE5CFF5FFC2
:102C7000E5CFF7FFE5CFF6FFE5CFEAFFE5CFE9FFC8
:102C8000E5CFDAFF1100DACFE4FFE2CFDAFFE9CFD8
:102C9000E4FFEACFE4FFF6CFE4FFF7CFE4FFF5CFA0
:102CA000E4FFF3CFE4FFF4CFE4FFFACFE4FF00EE5C
:102CB00000F0100EE80403E3EECFE4FFFBD700EED4
:102CC00010F00A0EE80403E3EECFE4FFFBD7E65270
:102CD000A19294C2E6FF95C2E6FFFEEC1BF0E5521E
:102CE000E55202019651971107E005D097C2FAFF0D
:102CF00002019651F96EFADFE55200EE19F00A0E64
:102D0000E80403E3E5CFEDFFFBD700EE0FF0100E74
:102D1000E80403E3E5CFEDFFFBD7E5CFFAFFE5CF0E
:102D2000F4FFE5CFF3FFE5CFF5FFE5CFF7FFE5CF04
:102D3000F6FFE5CFEAFFE5CFE9FFE5CFDAFF1100C7
:102D4000D9CFE6FFE1CFD9FF9F0EE66E36EC1CF03F
:102D5000E552FD0EDBCF8CF2FE0EDBCF8DF2FB0ECB
:102D6000DBCF8EF2FC0EDBCF8FF2FD0EDBCFE6FF6A
:102D7000FE0EDBCFE6FF1AEC1CF0E552E552E55201
:102D8000E7CFD9FF1200D9CFE6FFE1CFD9FFC50EBB
:102D9000E66E83EC1BF0E552FD0EDBCFE6FFFE0E88
:102DA000DBCFE6FFFEEC1BF0E552E5529F80FD0E07
:102DB000DBCF90F2FE0EDBCF91F2FB0EDBCF92F277
:102DC000FC0EDBCF93F2E552E7CFD9FF1200D9CF4B
:102DD000E6FFE1CFD9FFCD0EE66E62EC1BF0E552C7
:102DE000FD0EDBCFE6FFFE0EDBCFE6FFE2EC1BF0D5
:102DF000E552E552FD0EDBCF94F2FE0EDBCF95F2ED
:102E0000FB0EDBCF96F2FC0EDBCF97F2E552E7CF5D
:102E1000D9FF1200D9CFE6FFE1CFD9FF040EE1269A
:102E2000F29AA4C2DFFF010EA5C2DBFF020EA6C20A
:102E3000DBFF030EA7C2DBFFF28ADECF04F0DECF9A
:102E400005F0DECF06F0DDCF07F0DD52DD5200D019
:102E5000040EE15C02E2E16AE552E16EE552E7CF81
:102E6000D9FF1200F29E0201A46BA56BA66BA76BA3
:042E7000F28E1200CC
:0C2E7400D9CFE6FFE1CFD9FFE652DF6ABC
:102E8000DFCFE6FFE66A10EC1BF0E552E552E66E96
:102E9000DF50EA6A000FE96E010EEA22E552E750C0
:102EA000EF6E9AEC1CF0DF50DF2AEA6A000FE96E41
:102EB000010EEA22EF50E4E1E66A19EC07F0E55270
:102EC0000101156B0101020E166F000EE66E010E78
:102ED000E66E10EC1AF0E552E552F3CF19F101015C
:102EE000000E176F010E186F0101030E1A6F150EF9
:102EF000E66E010EE66EE66AD0EC01F0E552E552B0
:102F0000E552E552E552E7CFD9FF1200D9CFE6FFEF
:102F1000E1CFD9FFE652010114052FE10101146B45
:102F2000DF6ADFCF10F010C0E6FF000EE66E010E84
:102F3000E66E10EC1AF0E552E552E552E7CF10F0DC
:102F4000F3CF11F0F4CF12F01050115C000E1258B4
:102F500014E3DF50EA6A000FE96E010EEA22EF5037
:102F6000E66EDFCFE6FFE66AA5EC1AF0E552E55221
:102F7000E5529AEC1CF0DF2AD4D7E552E552E7CFB0
:102F8000D9FF1200D9CFE6FFE1CFD9FF030EE1262A
:102F9000FD0EDBCFE9FFFE0EDBCFEAFF010EEFCF28
:102FA000DBFF020EDB6A010EDB50800A01E04BD032
:102FB0000101010E146F010EE76EFD0EDBCF10F064
:102FC000FE0EDBCF11F0E7501026000E112210C0CC
:102FD000E6FF11C0E6FF000EE66E010EE66EEFECB6
:102FE00019F0E552E552E552E552E66A19EC07F0B0
:102FF000E5520101156B0101020E166F000EE66E1F
:10300000010EE66E10EC1AF0E552E552F3CF19F11D
:103010000101000E176F010E186F0101030E1A6FE8
:10302000150EE66E010EE66EE66AD0EC01F0E55292
:10303000E552E552FB0EDBCFE9FFFC0EDBCFEAFFEA
:10304000800EEF6E01D000D0020EDB5000D0106E6B
:10305000030EE15C02E2E16AE552E16E1050E552D6
:06306000E7CFD9FF1200CA
:0A306600D9CFE6FFE1CFD9FF0C0E31
:10307000E126DE6A480EDE6EE80EDE6E010EDD6EC3
:10308000DD52DD52DECF05F0DECF06F0DECF07F0F9
:10309000DDCF08F0DD52DD52055007E1120E0618B3
:1030A00004E17A0E071801E1085010E0055008E12C
:1030B000480E061805E1E80E071802E1010E08188F
:1030C00001E004D0700ED3129B8C04D0700ED3128A
:1030D0009B9C00D0D9CFE9FFDACFEAFFEECF10F00A
:1030E000EECF11F0EECF12F0EFCF13F0020ED8902A
:1030F0001332123211321032E806F9E1040E10C018
:10310000DBFF050E11C0DBFF060E12C0DBFF070E52
:1031100013C0DBFFD950040FE96EDACFEAFFE80EE7
:10312000096E030E0A6E0B6A0C6AEECF04F0EECF46
:1031300005F0EECF06F0EFCF07F03EEC1BF007C036
:10314000EDFF06C0EDFF05C0EDFF04C0EFFF136803
:103150001468156A040EDBCF16F0050EDBCF17F0EE
:10316000186A1650135C106E17501458116E1850D0
:103170001558126E10C0B4F211C0B5F2050EF36E00
:10318000080EF3CFDBFF090EDB6A080EDBCF10F071
:10319000DB06090EDBCF11F001E2DB061050111047
:1031A00006E0080EE66E52EC1CF0E552EED7C26A5D
:1031B0000F0EC16EB50EC06E800E9C6E98908690FC
:1031C000989686969898869898929884949C948ECF
:1031D00097908580926A966A846A95928392959474
:1031E00083949596839695988398959A839A959CBF
:1031F000839C959E839E640EF36E0A0EF3CFDBFFD5
:103200000B0EDB6A0A0EDBCF10F0DB060B0EDBCFFA
:1032100011F001E2DB061050111006E0080EE66E18
:1032200052EC1CF0E552EED70C0EE15C02E2E16AD2
:0C323000E552E16EE552E7CFD9FF120035
:04323C00DACFE4FF02
:10324000E2CFDAFFE9CFE4FFEACFE4FFF6CFE4FF15
:10325000F7CFE4FFF5CFE4FFF3CFE4FFF4CFE4FFD3
:10326000FACFE4FF00EE00F0100EE80403E3EECF27
:10327000E4FFFBD700EE10F00A0EE80403E3EECF04
:10328000E4FFFBD7E652D9CFE6FFE1CFD9FFE65204
:10329000C3EC1BF0DF6E0B013F513F2BEA6A420F7C
:1032A000E96E0B0EEA22DFCFEFFF3C0E0B013F5D14
:1032B00002E30B013F6B0B01412B9E9AE552E55255
:1032C000E7CFD9FFE55200EE19F00A0EE80403E358
:1032D000E5CFEDFFFBD700EE0FF0100EE80403E39F
:1032E000E5CFEDFFFBD7E5CFFAFFE5CFF4FFE5CF64
:1032F000F3FFE5CFF5FFE5CFF7FFE5CFF6FFE5CF2D
:0C330000EAFFE5CFE9FFE5CFDAFF11009E
:04330C002A0EF66E21
:10331000000EF76E000EF86E02010900F550AD6F59
:103320000900F550AE6F03E1AD6701D03DD0090053
:10333000F550A86F0900F550A96F0900F550AA6F64
:1033400009000900F550E96E0900F550EA6E090020
:1033500009000900F550AB6F0900F550AC6F09008A
:103360000900F6CFAFF2F7CFB0F2F8CFB1F2A8C2B2
:10337000F6FFA9C2F7FFAAC2F8FF0201AB5302E1B0
:10338000AC5307E00900F550EE6EAB07F8E2AC076E
:10339000F9D7AFC2F6FFB0C2F7FFB1C2F8FF020122
:0A33A000AD07000EAE5BBFD71200B0
:0633AA00FE0EE3CFE9FF77
:1033B000FF0EE3CFEAFFE9CFF3FFEACFF4FFFB0E06
:1033C000E35003E1FC0EE35009E0FB0EE30602E2EA
:1033D000FC0EE306FD0EE350EE6EF1D71200D9CFDE
:1033E000E6FFDACFE6FFFA0EE3CFD9FFFB0EE3CF1D
:1033F000DAFFFC0EE3CFE9FFFD0EE3CFEAFFE9CFF2
:10340000F3FFEACFF4FFDECFEFFFEE66FCD7FF0E4F
:10341000E3CFDAFFE552FF0EE3CFD9FFE55212000A
:10342000FE0EE3CFE9FFFF0EE3CFEAFFF36AF46A93
:0C343000EE5203E0F34AF42AFBD712002E
:04343C00D9CFE6FFFF
:10344000DACFE6FFE1CFD9FFE2CFDAFF6C6A6B6A31
:10345000FD0EDBB06C88DBA202D06C8C6B8CDBB415
:103460006C8EDBA602D06B8801D06B8ADBA802D001
:103470006C8401D06C94DBBA6B86DBAC02D0A38A7F
:1034800001D0A39ADBAE02D0A38801D0A398FB0E93
:10349000DB506F6EFC0EDBCF11F011C010F0116A23
:1034A00010507D6E6C8A6B8E989298846C50100BC5
:1034B00004E06C50800B01E19882E552E5CFDAFF21
:0634C000E7CFD9FF120066
:0A34C600D9CFE6FFDACFE6FFE1CF31
:1034D000D9FFE2CFDAFFAC6AAB6AFD0EDBB0AC8895
:1034E000DBA202D0AC8CAB8CDBB4AC8EDBA602D002
:1034F000AB8801D0AB8ADBB8AC84DBBAAB86DBAC83
:1035000002D09D8A01D09D9ADBAE02D09D8801D069
:103510009D98FB0EDB50AF6EFC0EDBCF11F011C09F
:1035200010F0116A10507F6EAC8AAB8E949C948E12
:10353000AC50100B04E0AC50800B01E1948CE552D0
:0A354000E5CFDAFFE7CFD9FF120054
:06354A00D9CFE6FFDACF45
:10355000E6FFE1CFD9FFE2CFDAFFE652DF6AFD0EE8
:10356000DBCF11F011C010F0030E1114AA6EFF0E84
:10357000E76EFC0EDBCF10F0E7501016116A10500A
:10358000A96EFB0EDB50A86EA69EA69CA684F250E8
:10359000800B01E0010EDF6EF29E550EA76EAA0EA3
:1035A000A76EA682A6B2FED7DF50E8B0F28EE8A0E2
:1035B000F29EA694E552E552E5CFDAFFE7CFD9FFB8
:0235C0001200F7
:0E35C200D9CFE6FFE1CFD9FF020EE12633ECB0
:1035D00018F072EC1CF0000EE66EE66AB4C2E6FF6C
:1035E000B5C2E6FFA0EC16F0E552E552E552E55211
:1035F00011EC00F00201FA0E9A5D000E9B5905E3F2
:1036000075EC1CF002019A6B9B6BF4D7020EE15C27
:1036100002E2E16AE552E16EE552E7CFD9FF12001E
:10362000D9CFE6FFDACFE6FFE1CFD9FFE2CFDAFF6D
:10363000FC0EDBCF10F0FD0EDBCF11F011C010F04F
:10364000116A030E1014AA6EFF0EE76EFC0EDBCF9C
:1036500010F0FD0EDBCF11F0E7501016116A10507C
:10366000A96EA69CA69EA68000000000A85000D0CF
:0C367000E552E5CFDAFFE7CFD9FF1200EA
:04367C00036A026A71
:10368000016A006A200EE76ED890043605360636C9
:10369000073600360136023603360950005C0A5000
:1036A00001580B5002580C50035809E30950005EB2
:1036B0000A50015A0B50025A0C50035A042AE72EA2
:0436C000E4D7120039
:0C36C400D9CFE6FFDACFE6FFE1CFD9FF57
:1036D000E2CFDAFFFD0EDB50360BB16EB36AB26A91
:1036E000A192FD0EDBAE02D0A08201D0A092DBA0A1
:1036F00002D0B18E01D0B19EB180E552E5CFDAFFA4
:06370000E7CFD9FF120023
:0A370600D9CFE6FFDACFE6FFE1CFEE
:10371000D9FFE2CFDAFFFD0EDB507E0BCD6EFD0E42
:10372000DBAC02D0CD8E01D0CD9ECF6ACE6A9E900A
:10373000DBAE02D09D8001D09D90CD80E552E5CFDB
:08374000DAFFE7CFD9FF120008
:08374800D9CFE6FFDACFE6FF5E
:10375000E1CFD9FFE2CFDAFFE652F20E0201B6174F
:103760006BAC03D0B6916BB0B6816BB4B6856BB25F
:10377000B6876E50DF6EDF50E552E552E5CFDAFFD7
:06378000E7CFD9FF1200A3
:0A378600D9CFE6FFDACFE6FFE1CF6E
:10379000D9FFE2CFDAFFE652F20E0201B717ABAC67
:1037A00003D0B791ABB0B781ABB4B785ABB2B78735
:1037B000AE50DF6EDF50E552E552E5CFDAFFE7CFDE
:0437C000D9FF12001B
:0C37C400D9CFE6FFDACFE6FFE1CFD9FF56
:1037D000E2CFDAFFE652E652FC0EDBCFDEFFDBCFB4
:1037E000DDFF010EDB50B36EDF50B26EE552E552E5
:0C37F000E552E5CFDAFFE7CFD9FF120069
:0437FC00D9CFE6FF3C
:10380000DACFE6FFE1CFD9FFE2CFDAFFE652E652A8
:10381000FC0EDBCFDEFFDBCFDDFF010EDB50CF6E1A
:10382000DF50CE6EE552E552E552E5CFDAFFE7CF45
:04383000D9FF1200AA
:0C383400D9CFE6FFDACFE6FFE1CFD9FFE5
:10384000E2CFDAFFE652E652FC0EDBCFDEFFDBCF43
:10385000DDFF010EDB50D76EDF50D66EE552E5522C
:0C386000E552E5CFDAFFE7CFD9FF1200F8
:04386C00D9CFE6FFCB
:10387000DACFE6FFE1CFD9FFE2CFDAFFFD0EDB5072
:103880007F0BD56ED76AD66AF294FD0EDBAE02D0FE
:10389000F28A01D0F29AD58EE552E5CFDAFFE7CF72
:0438A000D9FF12003A
:0C38A400FF0EE3501A6E480E01D04C0ECF
:1038B000E76EE72EFED7E76AE72EFED71A2EF7D778
:0438C00000001200F2
:0C38C400600EF36E00EE00F00F0E01D855
:1038D0001200EA6002D0EE6AFCD7F350E9601200F1
:0438E000EE6AFCD7B9
:0C38E4000201B96B12000201B90504E1F9
:1038F0000201B96B869004D00201010EB96F868077
:023900001200B3
:0E3902001EEE00F02EEE00F0F86A0F9C86EC30
:0E39100019F003EC00F0E1EC1AF0FBD7120006
:02391E00FF0E9A
:10392000E350E84E1200000000D000D000D0E82E96
:04393000FAD71200B0
:06393400A6B2FED712004E
:06393A0000000000000087
:103940000000000000000000000000000000000077
:103950000000000000000000000000000000000067
:103960000000000000000000000000000000000057
:02397000000055
:0E397200000000000000000000000000000047
:103980000000000000000000000000000000000037
:103990000000000000000000000000000000000027
:1039A0000000000000000000000000000000000017
:1039B0000000000000000000000000000000000007
:1039C00000000000000000000000000000000000F7
:1039D00000000000000000000000000000000000E7
:1039E00000000000000000000000000000000000D7
:1039F00000000000000000000000000000000000C7
:103A000000000000000000000000000000000000B6
:103A100000000000000000000000000000000000A6
:103A20000000000000000000000000000000000096
:103A30000000000000000000000000000000000086
:103A40000000000000000000000000000000000076
:103A50000000000000000000000000000000000066
:0E3A6000000000000000000000000000000058
:023A6E00000056
:103A70000000000000000000000000000000000046
:103A80000000000000000000000000000000000036
:103A90000000000000000000000000000000000026
:103AA0000000000000000000000000000000000016
:103AB0000000000000000000000000000000000006
:103AC00000000000000000000000000000000000F6
:103AD00000000000000000000000000000000000E6
:103AE00000000000000000000000000000000000D6
:0A3AF00000000000000000000000CC
:063AFA00000000000000C6
:103B000000000000000000000000000000000000B5
:053B10000000000000B0
:0B3B15000000000000000000000000A5
:103B20000000000000000000000000C800000000CD
:013B30000094
:013B31000093
:023B3200FFFF93
:023B340000008F
:020000040030CA
:0100010008F6
:010002001BE2
:0100030012EA
:01000400F308
:010005008377
:010006008178
:01000800F106
:010009008076
:01000A00FFF6
:01000B00E014
:01000C00FFF4
:01000D0040B2
:00000001FF
