:020000040000FA
:0600000078EF2EF0120063
:020006001200E6
:08000800F2A402D0C2EF1FF0C8
:100010009EA002D045EF20F09EAA02D0DAEF25F094
:10002000A1A202D0F2EF2AF01200D08EF28EF28C52
:020030001200BC
:0E0032000800A85E00007B0100000B0000002B
:10004000A75E00009301000001000000665E000052
:100050006000000041000000645E000090010000AC
:1000600002000000485E00005F0100001C0000006C
:100070000B5E0000000100003D000000D85D0000A4
:10008000A100000033000000225D0000000300001A
:04009000B6000000B6
:0C009400D9CFE6FFE1CFD9FFE652FE0E07
:1000A000DBCFE6FF010EF36EFD0EDB5004E0D890CF
:1000B000F336E806FCE1F350E552E71402E0010EE6
:1000C00001D0000EDF6EDF5000D0E552E552E7CFE1
:1000D000D9FF1200D9CFE6FFE1CFD9FF010EF36EB1
:1000E000FC0EDB5004E0D890F336E806FCE1F35058
:1000F000146EFD0EDBCFE9FFFE0EDBCFEAFF1450DE
:10010000EF12E552E7CFD9FF1200D9CFE6FFE1CFDA
:10011000D9FF010EF36EFC0EDB5004E0D890F336ED
:10012000E806FCE1F350E81C146EFD0EDBCFE9FF9E
:10013000FE0EDBCFEAFF1450EF16E552E7CFD9FFF2
:100140001200D9CFE6FFE1CFD9FF030EE126DF6A27
:10015000010EDF5C01E31ED1DF28E66EDF50B50D36
:10016000F3CFE9FFF4CFEAFF000EE926030EEA22FF
:10017000E552E750EF6EDF50B50DF3CFE9FFF4CF56
:10018000EAFF000EE926030EEA22EE52EF6ADF5084
:10019000B50DF3CFE9FFF4CFEAFF000EE926030E19
:1001A000EA22030EE926000EEA22EE6AED6ADF502B
:1001B000B50DF3CFE9FFF4CFEAFF000EE926030EF9
:1001C000EA22050EE926000EEA22EF6ADF50B50D9D
:1001D000F3CFE9FFF4CFEAFF000EE926030EEA228F
:1001E000060EE926000EEA22EF6ADF50B50DF3CFC6
:1001F000E9FFF4CFEAFF000EE926030EEA22090E1A
:10020000E926000EEA22EF6ADF50B50DF3CFE9FFD1
:10021000F4CFEAFF000EE926030EEA220A0EE926D1
:10022000000EEA22EF6ADF50B50DF3CFE9FFF4CFFD
:10023000EAFF000EE926030EEA22070EE926000E69
:10024000EA22EF6ADF50B50DF3CFE9FFF4CFEAFF02
:10025000000EE926030EEA220B0EE926000EEA2222
:10026000EF6ADF50B50DF3CFE9FFF4CFEAFF000EE0
:10027000E926030EEA220C0EE926000EEA22EF6AB6
:10028000DF50B50DF3CFE9FFF4CFEAFF000EE9260A
:10029000030EEA22080EE926000EEA22EF6ADF507A
:1002A000B50DF3CFE9FFF4CFEAFF000EE926030E08
:1002B000EA22020EE926000EEA22EF6ADE52380E2A
:1002C000DD6E010EDBCFE6FFE66AE66ADF50B50DB4
:1002D000F3CFE9FFF4CFEAFF000EE926030EEA228E
:1002E0007D0EE926000EEA22E9CF14F0EACF15F0E0
:1002F00014C0E6FF15C0E6FF36EC2CF0166E050EB6
:10030000E15E1650010EDBCFE6FFE66AE66ADF50DB
:10031000B50DF3CFE9FFF4CFEAFF000EE926030E97
:10032000EA220D0EE926000EEA22E9CF14F0EACF08
:1003300015F014C0E6FF15C0E6FF36EC2CF0166E83
:10034000050EE15E1650010EDBCFE6FFE66AE66AB7
:10035000DF50B50DF3CFE9FFF4CFEAFF000EE92639
:10036000030EEA220D0EE926000EEA22E9CF14F070
:10037000EACF15F0380E1426000E152214C0E6FF41
:1003800015C0E6FF36EC2CF0166E050EE15E165039
:10039000DF2ADED6030EE15C02E2E16AE552E16E9D
:1003A000E552E7CFD9FF1200D9CFE6FFE1CFD9FF61
:1003B000070EE126010EF36EFE0EDBCFF4FFF350C5
:1003C000F45C1EE2FC0EDBCFE9FFFD0EDBCFEAFFA3
:1003D000EF50146E156AD890155004E6800E145C28
:1003E000000E15580DE2FC0EDBCFE9FFFD0EDBCF52
:1003F000EAFF020EE926000EEA22EE50ED1003E1BC
:10040000000EFCEF05F0FE0EDB50B50DF3CFE9FF5B
:10041000F4CFEAFF000EE926030EEA22EE52E9CFFE
:1004200014F0EACF15F0050E14C0DBFF060E15C060
:10043000DBFFFC0EDBCFE9FFFD0EDBCFEAFFEECFEB
:1004400014F0EECF15F0EECF16F0EECF17F0EECFA2
:1004500018F0EFCF19F0050EDBCFE9FF060EDBCF6A
:10046000EAFF14C0EEFF15C0EEFF16C0EEFF17C086
:10047000EEFF18C0EEFF19C0EEFFFE0EDB50B50D0B
:10048000F3CFE9FFF4CFEAFF000EE926030EEA22DC
:10049000060EE926000EEA22EF50E66EFE0EDB5055
:1004A000B50DF3CFE9FFF4CFEAFF000EE926030E06
:1004B000EA22070EE926000EEA22E552E750EF6E27
:1004C000380EDF6EDFCFE6FFE66AE66AFE0EDB502F
:1004D000B50DF3CFE9FFF4CFEAFF000EE926030ED6
:1004E000EA227D0EE926000EEA22E9CF14F0EACFD7
:1004F00015F014C0E6FF15C0E6FF36EC2CF0166EC2
:10050000050EE15E1650DFCFE6FFE66AE66AFE0EF4
:10051000DB50B50DF3CFE9FFF4CFEAFF000EE9267B
:10052000030EEA220D0EE926000EEA22E9CF14F0AE
:10053000EACF15F014C0E6FF15C0E6FF36EC2CF04C
:10054000166E050EE15E1650DFCFE6FFE66AE66A3C
:10055000FE0EDB50B50DF3CFE9FFF4CFEAFF000E3E
:10056000E926030EEA220D0EE926000EEA22E9CF63
:1005700014F0EACF15F0380E1426000E152214C020
:10058000E6FF15C0E6FF36EC2CF0166E050EE15EB8
:100590001650FE0EDB50B50DF3CFE9FFF4CFEAFFA6
:1005A000000EE926030EEA22060EE926000EEA22D4
:1005B000EF5001E088D1FE0EDB50B50DF3CFE9FF1F
:1005C000F4CFEAFF000EE926030EEA22080EE92620
:1005D000000EEA22EF6ADF6AFE0EDB50B50DF3CFA4
:1005E000E9FFF4CFEAFF000EE926030EEA22020E2D
:1005F000E926000EEA22EF50DF5C01E363D1FE0E34
:10060000DB50B50DF3CFE9FFF4CFEAFF000EE9268A
:10061000030EEA22080EE926000EEA22EF50EF2A26
:10062000146E156AFE0EDB50B50DF3CFE9FFF4CF63
:10063000EAFF000EE926030EEA22030EE926000E69
:10064000EA221450EE24E76E1550EE20EA6EE7CF52
:10065000E9FFEF50E00FE76E040EE7CFDBFF040E7B
:10066000DBCF14F014340EE2040EDBCF15F0630E72
:10067000E76E1518E8AE02D0153403D0E750D880E5
:10068000155402E2040EDB6AFE0EDB50B50DF3CF0B
:10069000E9FFF4CFEAFF000EE926030EEA22080E76
:1006A000E926000EEA22EFCF14F0FE0EDB50B50D66
:1006B000F3CFE9FFF4CFEAFF000EE926030EEA22AA
:1006C000050EE926000EEA22EF50145C10E3FE0E40
:1006D000DB50B50DF3CFE9FFF4CFEAFF000EE926BA
:1006E000030EEA22080EE926000EEA22EF6A010E46
:1006F000DB6A070EF36E010EDBCFF4FFF350F45C00
:1007000001E3DED0040EDBCF18F0196A18BE1968B9
:10071000030ED89018361936E806FBE1640E182649
:10072000460E1922010EDB500F011824F66E000E42
:100730001920F76E0800F550E66EFE0EDB50B50D81
:10074000F3CFE9FFF4CFEAFF000EE926030EEA2219
:100750007D0EE926000EEA22E9CF16F0EACF17F067
:10076000010EDB50080D1650F324146E1750F420C0
:10077000156EDF500F011424E96E000E1520EA6E8D
:10078000E552E750EF6EFE0EDB50B50DF3CFE9FFFB
:10079000F4CFEAFF000EE926030EEA227D0EE926D9
:1007A000000EEA22E9CF1AF0EACF1BF0010EDB506F
:1007B000080D1A50F324186E1B50F420196EDF50E8
:1007C0000F011824E96E000E1920EA6EEF50E66E54
:1007D000FE0EDB50B50DF3CFE9FFF4CFEAFF000EBC
:1007E000E926030EEA220D0EE926000EEA22E9CFE1
:1007F00016F0EACF17F0010EDB50080D1650F32467
:10080000146E1750F420156EDF500F011424E96E9A
:10081000000E1520EA6EE552E750EF6EFE0EDB503B
:10082000B50DF3CFE9FFF4CFEAFF000EE926030E82
:10083000EA227D0EE926000EEA22E9CF1AF0EACF7D
:100840001BF0010EDB50080D1A50F324186E1B50DC
:10085000F420196EDF500F011824E96E000E1920E4
:10086000EA6EEF50E66EFE0EDB50B50DF3CFE9FFFA
:10087000F4CFEAFF000EE926030EEA220D0EE92668
:10088000000EEA22E9CF16F0EACF17F0380E16264E
:10089000000E1722010EDB50080D1650F324146EC3
:1008A0001750F420156EDF500F011424E96E000E6E
:1008B0001520EA6EE552E750EF6E010EDB2A19D7DC
:1008C000DF2A8AD687D1FE0EDB50B50DF3CFE9FFC4
:1008D000F4CFEAFF000EE926030EEA22080EE9260D
:1008E000000EEA22EF6ADF6AFE0EDB50B50DF3CF91
:1008F000E9FFF4CFEAFF000EE926030EEA22020E1A
:10090000E926000EEA22EF50DF5C01E363D1FE0E20
:10091000DB50B50DF3CFE9FFF4CFEAFF000EE92677
:10092000030EEA22080EE926000EEA22EF50EF2A13
:10093000146E156AFE0EDB50B50DF3CFE9FFF4CF50
:10094000EAFF000EE926030EEA22030EE926000E56
:10095000EA221450EE24E76E1550EE20EA6EE7CF3F
:10096000E9FFEF50E00FE76E040EE7CFDBFF040E68
:10097000DBCF14F014340EE2040EDBCF15F0630E5F
:10098000E76E1518E8AE02D0153403D0E750D880D2
:10099000155402E2040EDB6AFE0EDB50B50DF3CFF8
:1009A000E9FFF4CFEAFF000EE926030EEA22080E63
:1009B000E926000EEA22EFCF14F0FE0EDB50B50D53
:1009C000F3CFE9FFF4CFEAFF000EE926030EEA2297
:1009D000050EE926000EEA22EF50145C10E3FE0E2D
:1009E000DB50B50DF3CFE9FFF4CFEAFF000EE926A7
:1009F000030EEA22080EE926000EEA22EF6A010E33
:100A0000DB6A070EF36E010EDBCFF4FFF350F45CEC
:100A100001E3DED0040EDBCF18F0196A18BE1968A6
:100A2000030ED89018361936E806FBE1640E182636
:100A3000460E1922010EDB500F011824F66E000E2F
:100A40001920F76E0800F550E66EFE0EDB50B50D6E
:100A5000F3CFE9FFF4CFEAFF000EE926030EEA2206
:100A60007D0EE926000EEA22E9CF16F0EACF17F054
:100A7000010EDB50080D1650F324146E1750F420AD
:100A8000156EDF500F011424E96E000E1520EA6E7A
:100A9000E552E750EF6EFE0EDB50B50DF3CFE9FFE8
:100AA000F4CFEAFF000EE926030EEA227D0EE926C6
:100AB000000EEA22E9CF1AF0EACF1BF0010EDB505C
:100AC000080D1A50F324186E1B50F420196EDF50D5
:100AD0000F011824E96E000E1920EA6EEF50E66E41
:100AE000FE0EDB50B50DF3CFE9FFF4CFEAFF000EA9
:100AF000E926030EEA220D0EE926000EEA22E9CFCE
:100B000016F0EACF17F0010EDB50080D1650F32453
:100B1000146E1750F420156EDF500F011424E96E87
:100B2000000E1520EA6EE552E750EF6EFE0EDB5028
:100B3000B50DF3CFE9FFF4CFEAFF000EE926030E6F
:100B4000EA227D0EE926000EEA22E9CF1AF0EACF6A
:100B50001BF0010EDB50080D1A50F324186E1B50C9
:100B6000F420196EDF500F011824E96E000E1920D1
:100B7000EA6EEF50E66EFE0EDB50B50DF3CFE9FFE7
:100B8000F4CFEAFF000EE926030EEA220D0EE92655
:100B9000000EEA22E9CF16F0EACF17F0380E16263B
:100BA000000E1722010EDB50080D1650F324146EB0
:100BB0001750F420156EDF500F011424E96E000E5B
:100BC0001520EA6EE552E750EF6E010EDB2A19D7C9
:100BD000DF2A8AD6FE0EDB50B50DF3CFE9FFF4CF46
:100BE000EAFF000EE926030EEA22080EE926000EAF
:100BF000EA22EF6A010E00D0146E070EE15C02E2F9
:100C0000E16AE552E16E1450E552E7CFD9FF1200D8
:100C1000D9CFE6FFE1CFD9FFFE0EDB50B50DF3CF04
:100C2000E9FFF4CFEAFF000EE926030EEA22060EE2
:100C3000E926000EEA22FD0EDBCFEFFFFE0EDB50B1
:100C4000B50DF3CFE9FFF4CFEAFF000EE926030E5E
:100C5000EA22070EE926000EEA22FD0EDBCFEFFFA7
:100C6000E552E7CFD9FF1200D9CFE6FFE1CFD9FF98
:100C7000020EE126FD0EDB50146E156AFE0EDB50EF
:100C8000B50DF3CFE9FFF4CFEAFF000EE926030E1E
:100C9000EA22030EE926000EEA221450EE24E76E43
:100CA0001550EE20EA6EE7CFE9FFEF50E00FE76E58
:100CB000010EE7CFDBFFDF6A070EDF5C01E3B5D093
:100CC000010EDB50080DF3CF18F0F4CF19F0640ECD
:100CD0001826460E1922DF500F011824F66E000E5A
:100CE0001920F76E0800F550E66EFE0EDB50B50DCC
:100CF000F3CFE9FFF4CFEAFF000EE926030EEA2264
:100D00007D0EE926000EEA22E9CF16F0EACF17F0B1
:100D1000DF50080D1650F324146E1750F420156E92
:100D2000FD0EDB500F011424E96E000E1520EA6E53
:100D3000E552E750EF6EDF50080DF3CF18F0F4CF17
:100D400019F07D0E1826030E1922FD0EDB500F013F
:100D50001824E96E000E1920EA6EEF50E66EFE0EC2
:100D6000DB50B50DF3CFE9FFF4CFEAFF000EE92623
:100D7000030EEA220D0EE926000EEA22E9CF16F054
:100D8000EACF17F0DF50080D1650F324146E1750F9
:100D9000F420156EFD0EDB500F011424E96E000ED9
:100DA0001520EA6EE552E750EF6EDF50080DF3CFE5
:100DB00018F0F4CF19F07D0E1826030E1922FD0E3F
:100DC000DB500F011824E96E000E1920EA6EEF5077
:100DD000E66EFE0EDB50B50DF3CFE9FFF4CFEAFF70
:100DE000000EE926030EEA220D0EE926000EEA2285
:100DF000E9CF16F0EACF17F0380E1626000E1722AC
:100E0000DF50080D1650F324146E1750F420156EA1
:100E1000FD0EDB500F011424E96E000E1520EA6E62
:100E2000E552E750EF6EDF2A47D7020EE15C02E29F
:100E3000E16AE552E16EE552E7CFD9FF1200D9CF62
:100E4000E6FFE1CFD9FFE652FE0EDB50B50DF3CF42
:100E5000E9FFF4CFEAFF000EE926030EEA22EE5284
:100E6000EF6AFE0EDB50B50DF3CFE9FFF4CFEAFFDA
:100E7000000EE926030EEA22030EE926000EEA22FE
:100E8000EE6AED6AFE0EDB50B50DF3CFE9FFF4CF4D
:100E9000EAFF000EE926030EEA22050EE926000EFF
:100EA000EA22EF6AFE0EDB50B50DF3CFE9FFF4CF77
:100EB000EAFF000EE926030EEA22060EE926000EDE
:100EC000EA22EF6AFE0EDB50B50DF3CFE9FFF4CF57
:100ED000EAFF000EE926030EEA22090EE926000EBB
:100EE000EA22EF6AFE0EDB50B50DF3CFE9FFF4CF37
:100EF000EAFF000EE926030EEA220A0EE926000E9A
:100F0000EA22EF6AFE0EDB50B50DF3CFE9FFF4CF16
:100F1000EAFF000EE926030EEA22070EE926000E7C
:100F2000EA22EF6AFE0EDB50B50DF3CFE9FFF4CFF6
:100F3000EAFF000EE926030EEA220B0EE926000E58
:100F4000EA22EF6AFE0EDB50B50DF3CFE9FFF4CFD6
:100F5000EAFF000EE926030EEA220C0EE926000E37
:100F6000EA22EF6AFE0EDB50B50DF3CFE9FFF4CFB6
:100F7000EAFF000EE926030EEA22080EE926000E1B
:100F8000EA22EF6AFE0EDB50B50DF3CFE9FFF4CF96
:100F9000EAFF000EE926030EEA22020EE926000E01
:100FA000EA22EF6A380EDF6EDFCFE6FFE66AE66A16
:100FB000FE0EDB50B50DF3CFE9FFF4CFEAFF000ED4
:100FC000E926030EEA227D0EE926000EEA22E9CF89
:100FD00014F0EACF15F014C0E6FF15C0E6FF36ECBA
:100FE0002CF0166E050EE15E1650DFCFE6FFE66AC6
:100FF000E66AFE0EDB50B50DF3CFE9FFF4CFEAFF52
:10100000000EE926030EEA220D0EE926000EEA2262
:10101000E9CF14F0EACF15F014C0E6FF15C0E6FFE3
:1010200036EC2CF0166E050EE15E1650DFCFE6FFB3
:10103000E66AE66AFE0EDB50B50DF3CFE9FFF4CFAA
:10104000EAFF000EE926030EEA220D0EE926000E45
:10105000EA22E9CF14F0EACF15F0380E1426000E7C
:10106000152214C0E6FF15C0E6FF36EC2CF0166E14
:10107000050EE15E1650E552E552E7CFD9FF1200AA
:10108000D9CFE6FFE1CFD9FF050EE126DF6A010ED9
:10109000DF5C01E3BED3DF50B50DF3CFE9FFF4CF42
:1010A000EAFF000EE926030EEA22060EE926000EEC
:1010B000EA22EF5021E0DF50B50DF3CFE9FFF4CF86
:1010C000EAFF000EE926030EEA22070EE926000ECB
:1010D000EA22EF06DF50B50DF3CFE9FFF4CFEAFFC8
:1010E000000EE926030EEA22070EE926000EEA2288
:1010F000EF50000801E28BD3DF50B50DF3CFE9FFCD
:10110000F4CFEAFF000EE926030EEA22060EE926D6
:10111000000EEA22EF50E66EDF50B50DF3CFE9FF87
:10112000F4CFEAFF000EE926030EEA22070EE926B5
:10113000000EEA22E552E750EF6E9D90DF50B50DAC
:10114000F3CFE9FFF4CFEAFF000EE926030EEA220F
:10115000090EE926000EEA22EF5025E1DF50B50D19
:10116000F3CFE9FFF4CFEAFF000EE926030EEA22EF
:101170000C0EE926000EEA22EF5002E1010E01D02A
:10118000000EE66EDF50B50DF3CFE9FFF4CFEAFFB6
:10119000000EE926030EEA220B0EE926000EEA22D3
:1011A000E552E750EF6EDF50B50DF3CFE9FFF4CF16
:1011B000EAFF000EE926030EEA22090EE926000ED8
:1011C000EA22EF0402E19D8022D39D80DF50B50D1D
:1011D000F3CFE9FFF4CFEAFF000EE926030EEA227F
:1011E000060EE926000EEA22EF5001E1FED2010EC2
:1011F000DB6A070EF36E010EDBCFF4FFF350F45CF5
:1012000001E383D2010EF36E020EF3CFDBFFDF505A
:10121000B50DF3CFE9FFF4CFEAFF000EE926030E88
:10122000EA22020EE926000EEA22EF50F36E020EC9
:10123000DBCFF4FFF350F45C01E313D1DF50B50DC5
:10124000F3CFE9FFF4CFEAFF000EE926030EEA220E
:101250007D0EE926000EEA22E9CF16F0EACF17F05C
:10126000010EDB50080D1650F324146E1750F420B5
:10127000156E020EDB040F011424E96E000E15201A
:10128000EA6EEF9EEF46070EE66EDF50B50DF3CF28
:10129000E9FFF4CFEAFF000EE926030EEA227D0EF5
:1012A000E926000EEA22E9CF16F0EACF17F0010E88
:1012B000DB50080D1650F324146E1750F420156EF1
:1012C000020EDB500F011424E96E000E1520EA6EA9
:1012D000EF50E66E4AEC00F0E552E55201082FE1CE
:1012E000030EE66EDF50B50DF3CFE9FFF4CFEAFF52
:1012F000000EE926030EEA227D0EE926000EEA2200
:10130000E9CF18F0EACF19F0010EDB50080D1850A4
:10131000F324166E1950F420176E020EDB04000140
:101320001624146E000E1720156E14C0E6FF15C0AB
:10133000E6FF6AEC00F0E552E552E5522ED0030ECE
:10134000E66EDF50B50DF3CFE9FFF4CFEAFF000EF4
:10135000E926030EEA227D0EE926000EEA22E9CFF5
:1013600018F0EACF19F0010EDB50080D1850F324E5
:10137000166E1950F420176E020EDB0400011624BD
:10138000146E000E1720156E14C0E6FF15C0E6FFA0
:1013900085EC00F0E552E552E552DF50B50DF3CF94
:1013A000E9FFF4CFEAFF000EE926030EEA227D0EE4
:1013B000E926000EEA22E9CF1CF0EACF1DF0010E6B
:1013C000DB50080D1C50F3241A6E1D50F4201B6EC8
:1013D000020EDB040F011A24E96E000E1B20EA6ED8
:1013E000EF50E66EDF50B50DF3CFE9FFF4CFEAFF23
:1013F000000EE926030EEA220D0EE926000EEA226F
:10140000E9CF18F0EACF19F0DF50B50DF3CFE9FFBF
:10141000F4CFEAFF000EE926030EEA220B0EE926BE
:10142000000EEA22EF50380D1850F324166E1950B2
:10143000F420176E010EDB50080D1650F324146EC5
:101440001750F420156E020EDB040F011424E96E10
:10145000000E1520EA6EE552E750EF6E020EDB2A11
:10146000D6D6DF50B50DF3CFE9FFF4CFEAFF000E7B
:10147000E926030EEA227D0EE926000EEA22E9CFD4
:1014800016F0EACF17F0010EDB50080D1650F324CA
:10149000146E1750F420156E020EDB040F01142495
:1014A000E96E000E1520EA6EEF9EEF46DF50B50D97
:1014B000F3CFE9FFF4CFEAFF000EE926030EEA229C
:1014C000080EE926000EEA22EF50146E156ADF506E
:1014D000B50DF3CFE9FFF4CFEAFF000EE926030EC6
:1014E000EA22030EE926000EEA221450EE24E76EEB
:1014F0001550EE20EA6EE7CFE9FFEF50E00FE76E00
:10150000030EE7CFDBFF000EF36E030EDBCFF4FF1D
:10151000F350F45C04E3030EDB50630802E2030EB5
:10152000DB6A030EDB50080DF3CF14F0F4CF15F097
:10153000640E1426460E1522010EDB500F011424F2
:10154000F66E000E1520F76E0800040EF5CFDBFFD7
:10155000070E146EDF50B50DF3CFE9FFF4CFEAFFAD
:10156000000EE926030EEA220A0EE926000EEA2200
:10157000EF50145CE66E040EDBCFE6FF4AEC00F0A1
:10158000E552E55201082FE1030EE66EDF50B50D7E
:10159000F3CFE9FFF4CFEAFF000EE926030EEA22BB
:1015A0007D0EE926000EEA22E9CF18F0EACF19F005
:1015B000010EDB50080D1850F324166E1950F4205C
:1015C000176E020EDB0400011624146E000E1720A5
:1015D000156E14C0E6FF15C0E6FF6AEC00F0E55298
:1015E000E552E5522ED0030EE66EDF50B50DF3CF77
:1015F000E9FFF4CFEAFF000EE926030EEA227D0E92
:10160000E926000EEA22E9CF18F0EACF19F0010E20
:10161000DB50080D1850F324166E1950F420176E85
:10162000020EDB0400011624146E000E1720156E46
:1016300014C0E6FF15C0E6FF85EC00F0E552E55268
:10164000E552DF50B50DF3CFE9FFF4CFEAFF000E0E
:10165000E926030EEA227D0EE926000EEA22E9CFF2
:101660001CF0EACF1DF0010EDB50080D1C50F324D6
:101670001A6E1D50F4201B6E020EDB040F011A249B
:10168000E96E000E1B20EA6EEF50E66EDF50B50DDE
:10169000F3CFE9FFF4CFEAFF000EE926030EEA22BA
:1016A0000D0EE926000EEA22E9CF18F0EACF19F074
:1016B000DF50B50DF3CFE9FFF4CFEAFF000EE926C6
:1016C000030EEA220B0EE926000EEA22EF50380D37
:1016D0001850F324166E1950F420176E010EDB50CB
:1016E000080D1650F324146E1750F420156E020ED8
:1016F000DB040F011424E96E000E1520EA6EE5529A
:10170000E750EF6E010EDB2A74D5DF50B50DF3CF35
:10171000E9FFF4CFEAFF000EE926030EEA220A0EE3
:10172000E926000EEA22EF2ADF50B50DF3CFE9FFDC
:10173000F4CFEAFF000EE926030EEA220A0EE9269C
:10174000000EEA22EFCF14F0050E145C4EE3DF50DA
:10175000B50DF3CFE9FFF4CFEAFF000EE926030E43
:10176000EA22080EE926000EEA22EF2ADF50B50D24
:10177000F3CFE9FFF4CFEAFF000EE926030EEA22D9
:10178000080EE926000EEA22EFCF14F0DF50B50D67
:10179000F3CFE9FFF4CFEAFF000EE926030EEA22B9
:1017A000050EE926000EEA22EF50145C0FE3DF502D
:1017B000B50DF3CFE9FFF4CFEAFF000EE926030EE3
:1017C000EA22080EE926000EEA22EF6ADF50B50D84
:1017D000F3CFE9FFF4CFEAFF000EE926030EEA2279
:1017E0000A0EE926000EEA22EF6A9D90DF50B50D41
:1017F000F3CFE9FFF4CFEAFF000EE926030EEA2259
:10180000090EE926000EEA22010EEF6E9D80DF2A06
:101810003ED4050EE15C02E2E16AE552E16EE5527A
:10182000E7CFD9FF1200D9CFE6FFE1CFD9FF040EF1
:10183000E12683908392839483968398839A839CF2
:10184000839E020EDB6A010EF36E020EDBCFF4FF05
:10185000F350F45C01E390D0030EDB6A020EDB5020
:10186000B50DF3CFE9FFF4CFEAFF000EE926030E32
:10187000EA22020EE926000EEA22EF50F36E030E72
:10188000DBCFF4FFF350F45C74E2020EDB50B50DD5
:10189000F3CFE9FFF4CFEAFF000EE926030EEA22B8
:1018A0000D0EE926000EEA22E9CF18F0EACF19F072
:1018B000020EDB50B50DF3CFE9FFF4CFEAFF000EC7
:1018C000E926030EEA220C0EE926000EEA22EF506A
:1018D000380D1850F324166E1950F420176E0301BA
:1018E000B551080D1650F324146E1750F420156EE0
:1018F000030EDB500F011424E96E000E1520EA6E72
:10190000EFCFDFFF030EDBCFE6FF020EDB50B50D9E
:10191000F3CFE9FFF4CFEAFF000EE926030EEA2237
:10192000EE52EF50E552E724E76E010EE7CFDBFF02
:10193000400EF36E010EDBCFF4FFF350F45C0AE3CC
:10194000800E146E010EDBCFE7FF1450E726010E68
:10195000E7CFDBFF010EDB50846EDF1C806E8298C8
:10196000080EE66E86EC2EF0E5528288030EDB2A26
:1019700075D7020EDB2A67D70301B551070A4EE07F
:10198000010A43E0030A38E0010A2DE0070A22E0D9
:10199000010A17E0030A0CE0010A01E048D0838045
:1019A0008392839483968398839A839C839E40D06A
:1019B00083908382839483968398839A839C839E67
:1019C00037D083908392838483968398839A839C71
:1019D000839E2ED083908392839483868398839A68
:1019E000839C839E25D0839083928394839683885F
:1019F000839A839C839E1CD0839083928394839646
:101A00008398838A839C839E13D08390839283944C
:101A100083968398839A838C839E0AD08390839243
:101A2000839483968398839A839C838E01D000D07D
:101A30000301B52B0301B551070802E20301B56BA1
:101A4000040EE15C02E2E16AE552E16EE552E7CFA5
:101A5000D9FF1200D9CFE6FFE1CFD9FF400EF36ED8
:101A6000FE0EDBCFF4FFF350F45C0AE3800E146E3D
:101A7000FE0EDBCFE7FF1450E726FE0EE7CFDBFFBD
:101A80008288FE0EDB50846EFD0EDB50806E8298E5
:101A9000500EE66E86EC2EF0E5528288E552E7CFD6
:041AA000D9FF120058
:0C1AA400D9CFE6FFE1CFD9FF040EE12608
:101AB000020EDB6AFB0EDBCFE9FFFC0EDBCFEAFF99
:101AC000050EEE1801E1ED5054E1010EE76EFD0E3A
:101AD000DBCFE9FFFE0EDBCFEAFFE750E926000E81
:101AE000EA22EF50000EF350DE6EDD6A020EE76E62
:101AF000FD0EDBCFE9FFFE0EDBCFEAFFE750E92664
:101B0000000EEA22EF50DF12DF2A010E01E3DB2A8A
:101B1000010EE66E010EE66EE66ADECFE6FFDDCF71
:101B2000E6FF030EE76EFD0EDBCF14F0FE0EDBCFFB
:101B300015F0E7501426000E152214C0E6FF15C05C
:101B4000E6FF60EC22F0166E070EE15E1650E76EBF
:101B5000030EE7CFDBFF030EDB500AE0030EDBCF03
:101B6000E6FFA2EC1FF0E552E76E020EE7CFDBFFC7
:101B700005D0030EF36E020EF3CFDBFF020EDB5037
:101B800000D0146E040EE15C02E2E16AE552E16EFF
:101B90001450E552E7CFD9FF1200D9CFE6FFE1CFCD
:101BA000D9FF070EE126050EDB6AFB0EDBCFE9FF4E
:101BB000FC0EDBCFEAFFEECF14F0EFCF15F0060EF0
:101BC000145C000E155801E2D9D0010EE76EFD0E2F
:101BD000DBCFE9FFFE0EDBCFEAFFE750E926000E80
:101BE000EA22EF50DE6EDD6AD9CFE9FFDACFEAFFF5
:101BF000EE50ED6EEF6A020EE76EFD0EDBCFE9FFF1
:101C0000FE0EDBCFEAFFE750E926000EEA22EF5096
:101C1000DF12DF2A010E01E3DB2A030EE76EFD0E61
:101C2000DBCFE9FFFE0EDBCFEAFFE750E926000E2F
:101C3000EA22EF50E66ED950020FE96EDACFEAFFE2
:101C4000E552E750EE6EED6AD950020FE96EDACF39
:101C5000EAFFEE50ED6EEF6A040EE76EFD0EDBCF8D
:101C6000E9FFFE0EDBCFEAFFE750E926000EEA228D
:101C7000EF50146E156AD950020FE96EDACFEAFF01
:101C80001450EE121550ED12050EE76EFD0EDBCF6F
:101C9000E9FFFE0EDBCFEAFFE750E926000EEA225D
:101CA000040EEFCFDBFF020EDBCF14F0030EDBCF11
:101CB00015F0010E145C000E15585AE3D950020FAE
:101CC000E96EDACFEAFF780ED880EE54000EED54BC
:101CD0004FE3020E086E096A020EDBCF0DF0030E11
:101CE000DBCF0EF0A5EC2DF00650F36E040EDB50AA
:101CF000F35C3EE1010EE66E020EDBCFE6FF030E63
:101D0000DBCFE6FFDECFE6FFDDCFE6FF060EE76EB8
:101D1000FD0EDBCF14F0FE0EDBCF15F0E7501426DE
:101D2000000E152214C0E6FF15C0E6FF60EC22F09D
:101D3000166E070EE15E1650E76E060EE7CFDBFF6C
:101D4000060EDB500BE0060EDBCFE6FFA2EC1FF029
:101D5000E552E76E050EE7CFDBFF09D0FB0EDBCFC8
:101D6000E9FFFC0EDBCFEAFF050EEE6EED6A05D053
:101D7000030EF36E050EF3CFDBFF05D0030EF36EFB
:101D8000050EF3CFDBFF050EDB5000D0146E070EFF
:101D9000E15C02E2E16AE552E16E1450E552E7CF00
:101DA000D9FF1200D9CFE6FFE1CFD9FF080EE12617
:101DB000060EDB6AFB0EDBCFE9FFFC0EDBCFEAFF92
:101DC000050EEE1801E1ED5001E006D1010EE76EBF
:101DD000FD0EDBCFE9FFFE0EDBCFEAFFE750E92681
:101DE000000EEA22EF50DE6EDD6AD9CFE9FFDACFCE
:101DF000EAFFEE50ED6EEF6A020EE76EFD0EDBCFEE
:101E0000E9FFFE0EDBCFEAFFE750E926000EEA22EB
:101E1000EF50DF12DF2A010E01E3DB2A030EE76E2B
:101E2000FD0EDBCFE9FFFE0EDBCFEAFFE750E92630
:101E3000000EEA22EF50E66ED950020FE96EDACFBB
:101E4000EAFFE552E750EE6EED6AD950020FE96EF7
:101E5000DACFEAFFEE50ED6EEF6A040EE76EFD0E8C
:101E6000DBCFE9FFFE0EDBCFEAFFE750E926000EED
:101E7000EA22EF50E66ED950020FE96EDACFEAFFA0
:101E8000E552E750EE6EED6A020EDBCF14F0030E62
:101E9000DBCF15F0010E145C000E155801E296D050
:101EA000D950020FE96EDACFEAFF7D0ED880EE54EA
:101EB000000EED5401E28AD0FD0EDBCF08F0FE0EDD
:101EC000DBCF09F0040E08C0DBFF050E09C0DBFF05
:101ED000FB0EDBCFE9FFFC0EDBCFEAFFEE6AED6A1B
:101EE000040EDBCFE9FFDB2A050EDBCFEAFF01E3BF
:101EF000DB2A030EEF6EFB0EDBCFE9FFFC0EDBCF20
:101F0000EAFFEE2A000EED22020E086E096A020EAA
:101F1000DBCF0DF0030EDBCF0EF0A5EC2DF006505D
:101F2000E66E040EDBCFE9FFDB2A050EDBCFEAFF0E
:101F300001E3DB2AE552E750EF6EFB0EDBCFE9FF52
:101F4000FC0EDBCFEAFFEE2A000EED22E66A020E5F
:101F5000DBCFE6FF030EDBCFE6FFDECFE6FFDDCF14
:101F6000E6FF040EDBCFE6FF050EDBCFE6FF60ECFD
:101F700022F0146E070EE15E1450E76E070EE7CFF5
:101F8000DBFF070EDB500BE0070EDBCFE6FFA2EC1A
:101F90001FF0E552E76E060EE7CFDBFF16D0020E0C
:101FA000DBCF14F0030EDBCF15F0010ED890143602
:101FB0001536E806FBE1FB0EDBCFE9FFFC0EDBCFBD
:101FC000EAFF1450EE261550ED2205D0030EF36EF5
:101FD000060EF3CFDBFF05D0030EF36E060EF3CF34
:101FE000DBFF060EDB5000D0146E080EE15C02E24F
:101FF000E16AE552E16E1450E552E7CFD9FF1200D5
:10200000D9CFE6FFE1CFD9FF0D0EE1260B0EDB6A3B
:10201000FB0EDBCFE9FFFC0EDBCFEAFFEECF14F0C7
:10202000EFCF15F00A0E145C000E155801E2D4D162
:10203000010EE76EFD0EDBCFE9FFFE0EDBCFEAFF00
:10204000E750E926000EEA22EF50000EF350DE6E54
:10205000DD6A020EE76EFD0EDBCFE9FFFE0EDBCF81
:10206000EAFFE750E926000EEA22EF50DF12DF2AEE
:10207000010E01E3DB2A030EE76EFD0EDBCFE9FF65
:10208000FE0EDBCFEAFFE750E926000EEA22EF5012
:10209000000EF350E66ED950020FE96EDACFEAFF78
:1020A000E552E750EE6EED6A040EE76EFD0EDBCFF3
:1020B000E9FFFE0EDBCFEAFFE750E926000EEA2239
:1020C000EF50146E156AD950020FE96EDACFEAFFAD
:1020D0001450EE121550ED12050EE76EFD0EDBCF1B
:1020E000E9FFFE0EDBCFEAFFE750E926000EEA2209
:1020F000EF50000EF350E66ED950040FE96EDACFC0
:10210000EAFFE552E750EE6EED6A060EE76EFD0E51
:10211000DBCFE9FFFE0EDBCFEAFFE750E926000E3A
:10212000EA22EF50146E156AD950040FE96EDACF27
:10213000EAFF1450EE121550ED12040EDB2A050EC4
:1021400001E3DB2A070EE76EFD0EDBCFE9FFFE0E93
:10215000DBCFEAFFE750E926000EEA22EF50000E3F
:10216000F350E66ED950060FE96EDACFEAFFE5527A
:10217000E750EE6EED6A080EE76EFD0EDBCFE9FF6D
:10218000FE0EDBCFEAFFE750E926000EEA22EF5011
:10219000146E156AD950060FE96EDACFEAFF1450B3
:1021A000EE121550ED12090EE76EFD0EDBCFE9FFC2
:1021B000FE0EDBCFEAFFE750E926000EEA22080E0A
:1021C000EFCFDBFF020EDBCF14F0030EDBCF15F0F9
:1021D000010E145C000E155801E2F9D0D950020F1F
:1021E000E96EDACFEAFF7D0ED880EE54000EED5492
:1021F00001E2EDD0060EDBCF16F0070EDBCF17F0B5
:10220000010E165C000E175801E2E1D0D950060FFE
:10221000E96EDACFEAFF790ED880EE54000EED5465
:1022200001E2D5D0020E086E096A060EDBCF0DF072
:10223000070EDBCF0EF0A5EC2DF006C018F007C09E
:1022400019F0080EDB501A6E1B6A1A50181802E1BA
:102250001B50191801E0BBD0010EE66E060EDBCF55
:10226000E6FF070EDBCFE6FF040EDBCFE6FF050E31
:10227000DBCFE6FF0A0EE76EFD0EDBCF14F0FE0E9D
:10228000DBCF15F0E7501426000E152214C0E6FF30
:1022900015C0E6FF60EC22F0166E070EE15E1650E8
:1022A000E76E0C0EE7CFDBFF0C0EDB5001E081D0B8
:1022B000FD0EDBCF08F0FE0EDBCF09F0090E08C0E3
:1022C000DBFF0A0E09C0DBFFFB0EDBCFE9FFFC0ED4
:1022D000DBCFEAFFEE6AED6A090EDBCFE9FFDB2A0E
:1022E0000A0EDBCFEAFF01E3DB2A170EEF6EFB0ECF
:1022F000DBCFE9FFFC0EDBCFEAFFEE2A000EED227A
:10230000020E086E096A020EDBCF0DF0030EDBCF62
:102310000EF0A5EC2DF00650E66E090EDBCFE9FFBE
:10232000DB2A0A0EDBCFEAFF01E3DB2AE552E750A6
:10233000EF6EFB0EDBCFE9FFFC0EDBCFEAFFEE2AF0
:10234000000EED22E66A020EDBCFE6FF030EDBCFC6
:10235000E6FFDECFE6FFDDCFE6FF090EDBCFE6FFCF
:102360000A0EDBCFE6FF60EC22F0146E070EE15E92
:102370001450E76E0C0EE7CFDBFF0C0EDB5019E1BB
:10238000020E086E096A020EDBCF0DF0030EDBCFE2
:102390000EF0A5EC2DF006C014F007C015F0FB0EF2
:1023A000DBCFE9FFFC0EDBCFEAFF1450EE26155021
:1023B000ED220C0EDB500AE00C0EDBCFE6FFA2ECA8
:1023C0001FF0E552E76E0B0EE7CFDBFF05D0030EE3
:1023D000F36E0B0EF3CFDBFF0B0EDB5000D0146E51
:1023E0000D0EE15C02E2E16AE552E16E1450E55245
:0623F000E7CFD9FF120047
:0A23F600D9CFE6FFE1CFD9FF050EB5
:10240000E126FE0EDB50140802E2000E68D0FE0E3C
:10241000DBCFCAF0DF6A0001CA51DF5C0AE2DF509D
:10242000EA6AB60FE96E000EEA2285C1EFFFDF2AE5
:10243000F2D70001A20ED06F000ED16FDF6A0B0E33
:10244000DF5C49E2010EDB6AFE0EDB50F36E010E2B
:10245000DBCFF4FFF350F45C15E2DF50EA6A7B0F48
:10246000E96E010EEA22EF50E66E010EDB50EA6AD9
:10247000A20FE96E000EEA22E552E750EF6E010E60
:10248000DB2AE2D7020EDB6A640EF36E020EDBCFAC
:10249000F4FFF350F45C1DE22ED8030EF36E030E2E
:1024A000F3CFDBFF040EDB6A030EDBCF14F0DB0699
:1024B000040EDBCF15F001E2DB061450151006E028
:1024C000080EE66E49EC2EF0E552EED7020EDB2A3E
:1024D000DBD7DF2AB4D70001CB6B010E00D0146E1E
:1024E000050EE15C02E2E16AE552E16E1450E5524C
:1024F000E7CFD9FF12000001A151010A24E0010A2F
:1025000001E064D00A0E0001CB250001EA6AD02563
:10251000E96ED151EA22EF50E66E0001CB51000185
:10252000EA6AD025E96ED151EA22EF50E66E49D928
:10253000E552E5520001CB2B0A0E0001CB5D02E310
:102540000001CB6B44D00A0E0001CB250001EA6AE2
:10255000D025E96ED151EA22EF50E66E0001CB5151
:102560000001EA6AD025E96ED151EA22EF50E66E09
:1025700028D9E552E5520001CB2B0A0E0001CB5DB4
:1025800002E30001CB6B0001CC2B000ECD23000138
:10259000CE510001CC5D0001CF510001CD5915E3B2
:1025A0000001CC6BCD6BA20E0001D01902E1000E30
:1025B000D11906E10001B60ED06F000ED16F05D023
:1025C0000001A20ED06F000ED16F01D000D012001A
:1025D000D9CFE6FFE1CFD9FFE652DF6ADF6A00011B
:1025E000CA51DF5C38E2DF50E76EFD0EDBCFE9FF5A
:1025F000FE0EDBCFEAFFE750E926000EEA22EF509D
:10260000200809E1DF50EA6AA20FE96E000EEA2213
:1026100085C1EFFF1ED0DF50E76EFD0EDBCFE9FF77
:10262000FE0EDBCFEAFFE750E926000EEA22EF506C
:10263000D00FEA6A7B0FE96E010EEA22EF50E66ED8
:10264000DF50EA6AA20FE96E000EEA22E552E75077
:10265000EF6EDF2AC4D70001CB6B010E00D0E5522C
:10266000E552E7CFD9FF1200D9CFE6FFE1CFD9FF7E
:10267000E652DF6ADF6A0001CA51DF5C19E2DF500F
:10268000E76EFD0EDBCFE9FFFE0EDBCFEAFFE75082
:10269000E926000EEA22EF50E66EDF50EA6AA20F4A
:1026A000E96E000EEA22E552E750EF6EDF2AE3D72B
:1026B0000001CB6BE552E552E7CFD9FF1200D9CF2D
:1026C000E6FFE1CFD9FFE652DF6AFE0EDBCF14F062
:1026D0000001CA51D880145402E2000E2DD0FD0E24
:1026E000DBCFE6FFD9D8E552000902E1000E24D085
:1026F000FD0EDB5020080AE1FE0EDB50EA6AA20F55
:10270000E96E000EEA2285C1EFFF14D0FD0EDB500A
:10271000D00FEA6A7B0FE96E010EEA22EF50E66EF7
:10272000FE0EDB50EA6AA20FE96E000EEA22E552C5
:10273000E750EF6E010E00D0E552E552E7CFD9FF2A
:102740001200D9CFE6FFE1CFD9FFFD0EDBCFCEF0EF
:10275000FE0EDBCFCFF0010E0F0B000105E0D8908D
:10276000CF33CE33E806FBE10001CC6BCD6B00012B
:10277000010EA16FE552E7CFD9FF12000001A20EB2
:10278000D06F000ED16F0001A16B1200D9CFE6FF10
:10279000E1CFD9FFE652DF6A0001CA51DF5C0AE2ED
:1027A000DF50EA6AA20FE96E000EEA2285C1EFFF50
:1027B000DF2AF2D70001CB6BE552E552E7CFD9FF14
:1027C0001200D9CFE6FFE1CFD9FFE652010EDF6E4E
:1027D000816885688280828282848286FE0EDB1C0C
:1027E000876EFD0EDB1C886E080E0001CB5D0DE2CE
:1027F0000001CB51070B04E0DF46DF90E806FCE167
:10280000DF1C816EDF1C856E0ED00001CB51090AE2
:1028100006E0010A01E006D08290829404D0829200
:10282000829601D000D0E552E552E7CFD9FF1200E1
:10283000D9CFE6FFE1CFD9FF020EE126FE0EDB5035
:10284000DF6EFE0EDBCFE6FFFD0EDB50E552E72428
:10285000DF5C18E2DF50EA6AA20FE96E000EEA229E
:10286000010EEFCFDBFF010EDB508009E66EDF507B
:10287000EA6AA20FE96E000EEA22E552E750EF6E17
:10288000DF2ADFD7020EE15C02E2E16AE552E16E87
:10289000E552E7CFD9FF1200D9CFE6FFE1CFD9FF4C
:1028A000E652DF6AFE0EDB50200803E1010EDF6E08
:1028B0000ED0300EF36EFE0EDBCFF4FFF350F45C5F
:1028C00006E3FE0EDB50390802E3010EDF6EDF5037
:1028D00000D0E552E552E7CFD9FF1200D9CFE6FF8D
:1028E000E1CFD9FF020EE126DF6A010EDB6ADF6A63
:1028F000FB0EDB50DF5C02E2DF2AFAD7FC0EDB5076
:10290000DF6EFB0EDBCFE6FFFC0EDB50E552E7246B
:10291000DF5C3BE2DF50E76EFD0EDBCFE9FFFE0E32
:10292000DBCFEAFFE750E926000EEA22EF5020084D
:1029300009E1DF50EA6AA20FE96E000EEA2285C1C2
:10294000EFFF1FD0010EDB50E76EFD0EDBCFE9FF7E
:10295000FE0EDBCFEAFFE750E926000EEA22EF5039
:10296000D00FEA6A7B0FE96E010EEA22EF50E66EA5
:10297000DF50EA6AA20FE96E000EEA22E552E75044
:10298000EF6EDF2A010EDB2ABCD70001CB6B010EF4
:1029900000D0146E020EE15C02E2E16AE552E16EE3
:1029A0001450E552E7CFD9FF1200D9CFE6FFE1CFAF
:1029B000D9FFE652FD0EDBCFCEF0FE0EDBCFCFF01F
:1029C000010E0F0B000105E0D890CF33CE33E8069F
:1029D000FBE10001CC6BCD6BFC0EDB500001D26F34
:1029E000D36BDF6A0001CA51DF5C1DE2DF50146E59
:1029F000156A0001D251141802E1D351151811E0E3
:102A0000DF50EA6AA20FE96E000EEA22EF50E66E8E
:102A1000DF50EA6AB60FE96E000EEA22E552E7508F
:102A2000EF6EDF2ADFD7B60E0001D225E96E000E69
:102A30000001D321EA6EEF6A0001010EA16FE55299
:082A4000E552E7CFD9FF1200B7
:082A4800D9CFE6FFE1CFD9FF71
:102A5000E652DF6AFD0EDB5013E0010EF36EFD0E51
:102A6000DBCFF4FFF350F45C0BE3FD0EDB50146E90
:102A7000156A153404E21450F708000E155403E2E9
:102A8000020EDF6E6BD0FD0EDBCFD4F0FE0EDB50FE
:102A900001E053D00001F40ED96F370EDA6F000158
:102AA000DB6B0001100EDC6F380EDD6F0001DE6B9A
:102AB0000001080ED66F390ED76F0001D86B0001E8
:102AC000260EDF6F380EE06F0001E16B0001E26B54
:102AD000E36BE46B0001220EE56F3A0EE66F000136
:102AE000E76B0001F40EE86F3A0EE96F0001EA6B44
:102AF0000001880EEB6F3B0EEC6F0001ED6BF70EE3
:102B0000DBCFE6FFD950F80FE96EFF0EDA20EA6E50
:102B1000EECFE6FFEECFE6FFEECFE6FFEFCFE6FF2C
:102B2000FC0EDBCFE6FFD4C0E6FF58EC1BF0146EC2
:102B3000070EE15E1450DF6E02D0020EDF6EDF5032
:102B40000DE1EFEC2CF0000903E1030EDF6E06D07F
:102B5000FE0EDBCFD5F00001010E606FDF5000D01C
:102B6000E552E552E7CFD9FF1200D9CFE6FFE1CF1A
:102B7000D9FF030EE126146AFE0EDB50145C01E35C
:102B8000ECD0FE0EDB507F0801E2E7D0F29EFB0E98
:102B9000DBCF14F0FC0EDBCF15F0FD0EDBCF16F013
:102BA00014501510161001E18BD0DE6ADD6ADECFFD
:102BB00014F0DDCF15F0D890155004E6100E145C1B
:102BC000000E15586CE2DECFE9FFDDCFEAFFD890AA
:102BD000E936EA36D890E936EA36610EE926000E83
:102BE000EA22EECF14F0EECF15F0EECF16F0EFCFD5
:102BF00017F0000115501610171022E0FB0EDBCF66
:102C000018F0FC0EDBCF19F0FD0EDBCF1AF0DECF93
:102C1000E9FFDDCFEAFFD890E936EA36D890E93609
:102C2000EA36610EE926000EEA22EE52EE5018183E
:102C300006E1EE50191803E1EE501A1800E12AE1FE
:102C4000DECFE9FFDDCFEAFFD890E936EA36D8904B
:102C5000E936EA36610EE926000EEA22FE0EDBCFE7
:102C6000EFFFDECFE9FFDDCFEAFFD890E936EA36A5
:102C7000D890E936EA36610EE926000EEA22EE52D5
:102C8000FB0EDBCFEEFFFC0EDBCFEEFFFD0EDBCF4E
:102C9000EEFF05D0DF2A010E01E3DB2A88D7D9CF6A
:102CA000E9FFDACFEAFF100EEE1801E1ED5002E085
:102CB000000E01D0040EE76E020EE7CFDBFF4BD013
:102CC000DE6ADD6ADECF14F0DDCF15F0D890155046
:102CD00004E6100E145C000E15583BE2DECFE9FF4F
:102CE000DDCFEAFFD890E936EA36D890E936EA3601
:102CF000610EE926000EEA22EFCF14F0FE0EDB5043
:102D0000145C22E1DECFE9FFDDCFEAFFD890E9369F
:102D1000EA36D890E936EA36610EE926000EEA2254
:102D2000EF6ADECFE9FFDDCFEAFFD890E936EA3679
:102D3000D890E936EA36610EE926000EEA22EE5214
:102D4000EE6AEE6AEE6A05D0DF2A010E01E3DB2AA5
:102D5000B9D7020EDB6AF28E05D0020EF36E020EB8
:102D6000F3CFDBFF020EDB5000D0146E030EE15CEC
:102D700002E2E16AE552E16E1450E552E7CFD9FF75
:102D80001200D9CFE6FFE1CFD9FFE652DF6A00019A
:102D900060050FE10001E251E311E41109E007D001
:102DA000E4C0FBFFE3C0FAFF0001E251F96EF8DF77
:102DB00002D0060EDF6EDF5000D0E552E552E7CFBD
:102DC000D9FF1200D9CFE6FFE1CFD9FFE652DF6A83
:102DD000000160050CE107D0DBC0FBFFDAC0FAFFA1
:102DE0000001D951F96EF8DF0001606B02D0060EC8
:102DF000DF6EDF5000D0E552E552E7CFD9FF120079
:102E0000D9CFE6FFE1CFD9FFE652000160510EE1D4
:102E100007D0DEC0FBFFDDC0FAFF0001DC51F96E18
:102E2000F8DF0001010E606FDF6A07D00001600566
:102E300002E1DF6A02D0060EDF6EDF5000D0E552FD
:102E4000E552E7CFD9FF1200D9CFE6FFE1CFD9FF96
:102E5000040EE126020EDB6A0001605102E0060E5C
:102E60000BD1D950030FE66E000EDA20E66E04ECAB
:102E70002DF0E552E552010801E0FCD0030EDB50D5
:102E8000030A01E1F6D0010A34E0030A04E0010A72
:102E900001E0F0D0EFD0F80EE66E000EE66EF40E14
:102EA000E66E000EE66EF60EE66E000EE66E07D0DB
:102EB000E1C0FBFFE0C0FAFF0001DF51F96EF8DF6F
:102EC000146E060EE15E1450E76E020EE7CFDBFFD4
:102ED000020EDB500DE10001D4510001F65D03E06C
:102EE0000001F65105E1020EE66EF4EC2CF0E5521D
:102EF000C1D0F4C0E9FFF5C0EAFFEFCFF7F0000161
:102F0000010EFA6FDE6ADD6ADECF14F0DDCF15F058
:102F1000D890155004E6100E145C000E155857E2B8
:102F2000DECFE9FFDDCFEAFFD890E936EA36D89068
:102F3000E936EA36610EE926000EEA22EF5002E198
:102F400046D040D0DECFE9FFDDCFEAFFD890E936AA
:102F5000EA36D890E936EA36610EE926000EEA2212
:102F6000EF500001F75D2EE1DECFE9FFDDCFEAFF94
:102F7000D890E936EA36D890E936EA36610EE92685
:102F8000000EEA22EECF14F0EECF15F0EECF16F0E1
:102F9000EFCF17F0F80EE66E000EE66EF4C0E6FF17
:102FA000F5C0E6FF07D017C0FBFF16C0FAFF00010F
:102FB0001550F96EF8DFE552E552E552E552000191
:102FC000FA6F05D0DF2A010E01E3DB2A9DD700014D
:102FD000F6514EE00001FA5130E00001F86BF96B58
:102FE000800E0001F711E66E0001F8C014F0F9C080
:102FF00015F0F82B000EF92300010001F451142400
:10300000E96E00010001F5511520EA6EE552E75026
:10301000EF6E0001F8C014F0F9C015F0F82B000EA7
:10302000F92300010001F4511424E96E00010001AC
:10303000F5511520EA6EFAC0EFFFF8C0E6FFF9C0BF
:10304000E6FFF4C0E6FFF5C0E6FFD4C0E6FF07D018
:10305000D8C0FBFFD7C0FAFF0001D651F96EF8DFE8
:10306000146E050EE15E1450E76E020EE7CFDBFF33
:1030700001D000D0000E00D0146E040EE15C02E21C
:10308000E16AE552E16E1450E552E7CFD9FF120034
:10309000D9CFE6FFE1CFD9FF090EE126070EDB6AA3
:1030A000FB0EDBCFE9FFFC0EDBCFEAFF050EEE18CF
:1030B00001E1ED5001E013D1010EE76EFD0EDBCF13
:1030C000E9FFFE0EDBCFEAFFE750E926000EEA2219
:1030D000EF50000EF350DE6EDD6A020EE76EFD0E5D
:1030E000DBCFE9FFFE0EDBCFEAFFE750E926000E5B
:1030F000EA22EF50DF12DF2A010E01E3DB2A030E82
:10310000E76EFD0EDBCFE9FFFE0EDBCFEAFFE750F7
:10311000E926000EEA22EF50000EF350E66ED95079
:10312000020FE96EDACFEAFFE552E750EE6EED6A84
:10313000040EE76EFD0EDBCFE9FFFE0EDBCFEAFFEC
:10314000E750E926000EEA22EF50146E156AD950B6
:10315000020FE96EDACFEAFF1450EE121550ED12AD
:10316000020EDBCF14F0030EDBCF15F0010E145C62
:10317000000E155801E2ADD0020EDBCF16F0030EA3
:10318000DBCF17F0D00E165C070E175801E3A1D065
:10319000FD0EDBCF08F0FE0EDBCF09F0050E08C0F8
:1031A000DBFF060E09C0DBFFFB0EDBCFE9FFFC0EE9
:1031B000DBCFEAFFEE6AED6A050EDBCFE9FFDB2A23
:1031C000060EDBCFEAFF01E3DB2A010EEF6EFB0EFA
:1031D000DBCFE9FFFC0EDBCFEAFFEE2A000EED228B
:1031E000020EDB50070B16E0020EDBCF14F0030ECD
:1031F000DBCF15F0030E0F0B05E0D890153214321B
:10320000E806FBE1010E1426000E1522040E14C080
:10321000DBFF12D0080E146E156A020EDBCF08F029
:10322000030EDBCF09F014C00DF015C00EF033EC27
:103230002EF0040E08C0DBFF050EDBCFE9FFDB2A12
:10324000060EDBCFEAFF01E3DB2A040EDBCFEFFF44
:10325000FB0EDBCFE9FFFC0EDBCFEAFFEE2A000E10
:10326000ED22E66A020EDBCFE6FF030EDBCFE6FFC0
:10327000DECFE6FFDDCFE6FF050EDBCFE6FF060E75
:10328000DBCFE6FF1EEC23F0146E070EE15E145058
:10329000E76E080EE7CFDBFF080EDB500BE0080EF1
:1032A000DBCFE6FFA2EC1FF0E552E76E070EE7CF9B
:1032B000DBFF0ED0040EDB50146E156AFB0EDBCF65
:1032C000E9FFFC0EDBCFEAFF1450EE261550ED228D
:1032D00005D0030EF36E070EF3CFDBFF05D0030E10
:1032E000F36E070EF3CFDBFF070EDB5000D0146E3A
:1032F000090EE15C02E2E16AE552E16E1450E5522A
:10330000E7CFD9FF1200D9CFE6FFE1CFD9FF060EF4
:10331000E126040EDB6AFB0EDBCFE9FFFC0EDBCF00
:10332000EAFF050EEE1801E1ED5001E094D0010E28
:10333000E76EFD0EDBCFE9FFFE0EDBCFEAFFE750C5
:10334000E926000EEA22EF50000EF350DE6EDD6A31
:10335000020EE76EFD0EDBCFE9FFFE0EDBCFEAFFCC
:10336000E750E926000EEA22EF50DF12DF2A010EB5
:1033700001E3DB2A040EE76EFD0EDBCFE9FFFE0E54
:10338000DBCFEAFFE750E926000EEA22EF505DE1CD
:10339000030EE76EFD0EDBCFE9FFFE0EDBCFEAFF8B
:1033A000E750E926000EEA22EF50FF080EE0030E78
:1033B000E76EFD0EDBCFE9FFFE0EDBCFEAFFE75045
:1033C000E926000EEA22EF5040E1030EDB6A030E0D
:1033D000E76EFD0EDBCFE9FFFE0EDBCFEAFFE75025
:1033E000E926000EEA22EF50FF0806E1010EF36E17
:1033F000020EF3CFDBFF02D0020EDB6A010EE66E97
:10340000010EE66EE66ADECFE6FFDDCFE6FFD950BD
:10341000020FE66E000EDA20E66E1EEC23F0146E4C
:10342000070EE15E1450E76E050EE7CFDBFF050ED9
:10343000DB500AE0050EDBCFE6FFA2EC1FF0E55201
:10344000E76E040EE7CFDBFF05D0030EF36E040E2C
:10345000F3CFDBFF05D0030EF36E040EF3CFDBFFDB
:10346000040EDB5000D0146E060EE15C02E2E16A4D
:10347000E552E16E1450E552E7CFD9FF1200D9CFE3
:10348000E6FFE1CFD9FF080EE126060EDB6AFB0E50
:10349000DBCFE9FFFC0EDBCFEAFF050ED880EE5450
:1034A000000EED5401E3F0D0010EE76EFD0EDBCF10
:1034B000E9FFFE0EDBCFEAFFE750E926000EEA2225
:1034C000EF50000EF350DE6EDD6A020EE76EFD0E69
:1034D000DBCFE9FFFE0EDBCFEAFFE750E926000E67
:1034E000EA22EF50DF12DF2A010E01E3DB2A030E8E
:1034F000E76EFD0EDBCFE9FFFE0EDBCFEAFFE75004
:10350000E926000EEA22EF50000EF350E66ED95085
:10351000020FE96EDACFEAFFE552E750EE6EED6A90
:10352000040EE76EFD0EDBCFE9FFFE0EDBCFEAFFF8
:10353000E750E926000EEA22EF50146E156AD950C2
:10354000020FE96EDACFEAFF1450EE121550ED12B9
:10355000050EE76EFD0EDBCFE9FFFE0EDBCFEAFFC7
:10356000E750E926000EEA22040EEFCFDBFF020E41
:10357000DB50070B16E0020EDBCF14F0030EDBCF9F
:1035800015F0030E0F0B05E0D89015321432E80643
:10359000FBE1010E1426000E1522050E14C0DBFF00
:1035A00012D0080E146E156A020EDBCF08F0030E5F
:1035B000DBCF09F014C00DF015C00EF033EC2EF087
:1035C000050E08C0DBFF020EDBCF14F0030EDBCFCD
:1035D00015F0010E145C000E155850E3D950020F7F
:1035E000E96EDACFEAFFB00ED880EE54070EED5444
:1035F00045E3040EDB50F36E050EDB50F35C3EE159
:10360000010EE66E020EDBCFE6FF030EDBCFE6FF18
:10361000DECFE6FFDDCFE6FF060EE76EFD0EDBCF69
:1036200014F0FE0EDBCF15F0E7501426000E152225
:1036300014C0E6FF15C0E6FF1EEC23F0166E070E61
:10364000E15E1650E76E070EE7CFDBFF070EDB509B
:103650000BE0070EDBCFE6FFA2EC1FF0E552E76EB2
:10366000060EE7CFDBFF09D0FB0EDBCFE9FFFC0E38
:10367000DBCFEAFF050EEE6EED6A05D0030EF36EAA
:10368000060EF3CFDBFF05D0030EF36E060EF3CF6D
:10369000DBFF060EDB5000D0146E080EE15C02E288
:1036A000E16AE552E16E1450E552E7CFD9FF12000E
:1036B000D9CFE6FFE1CFD9FF050EE126DF6A9D9A5B
:1036C000F80EDBCFE6FF080EE66ED950F90FE96E73
:1036D000FF0EDA20EA6EEECFE6FFEECFE6FFEECF8A
:1036E000E6FFEFCFE6FFFD0EDBCFE6FFE5EC24F0D3
:1036F000146E070EE15E1450010803E0030EDF6E46
:103700006AD0D950F90FE96EFF0EDA20EA6ED88040
:10371000800EEE54250EEE54000EEE54000EEE54C4
:103720000FE2A30EF36E010EF3CFDBFFBB0EF36EC1
:10373000020EF3CFDBFF030EDB6A040EDB6A3DD023
:10374000D950F90FE96EFF0EDA20EA6E600EEE181E
:1037500006E1090EEE1803E1EE5001E1EE500FE133
:10376000CF0EF36E010EF3CFDBFF710EF36E020E80
:10377000F3CFDBFF030EDB6A040EDB6A1ED0D950E9
:10378000F90FE96EFF0EDA20EA6E800EEE1806E100
:10379000250EEE1803E1EE5001E1EE500EE1E70ECA
:1037A000F36E010EF3CFDBFFB80EF36E020EF3CF14
:1037B000DBFF030EDB6A040EDB6A010EDBCFE6FFE4
:1037C000020EDBCFE6FFCEEC2AF0E552E55201080F
:1037D00002E0030EDF6E9D8ADF5000D0146E050EEE
:1037E000E15C02E2E16AE552E16E1450E552E7CF96
:1037F000D9FF12009D9A0101916BE66A010EE66EF7
:10380000CAEC24F0E552E552E5EC2AF09D8A12005C
:103810009D9AE66AE66ACAEC24F0E552E552F0ECBD
:103820002AF09D8A1200D9CFE6FFE1CFD9FF040E1E
:10383000E126DF6A010EDB6A9D9A0201FA0EFE5D47
:10384000000EFF5902E3050E53D00201040EFE5D87
:10385000000EFF5946E3FEC2E6FFFFC2E6FF000E80
:10386000E66E020EE66E50EC2AF0E552E552E552A5
:10387000E552020EF3CFDBFF030EF4CFDBFFD9508E
:10388000020FE96EDACFEAFFEE50ED1029E1FD0EEE
:10389000DBCFE9FFFE0EDBCFEAFF00C2EFFFFEC287
:1038A00014F0FFC215F01406000E155A020E145E35
:1038B000000E155AF90EDBCFE9FFFA0EDBCFEAFF57
:1038C00014C0EEFF15C0EDFFFB0EDBCFE9FFFC0ED1
:1038D000DBCFEAFF010EEE6E020EED6E010EDF6E23
:1038E00003D0DE52050EDD6E9D8A010EDB5000D046
:1038F000146E040EE15C02E2E16AE552E16E1450DE
:10390000E552E7CFD9FF1200D9CFE6FFE1CFD9FFCB
:10391000030EE126DF6A9D9A0101910571E1FC0E1B
:10392000DBCFFAF2FD0EDBCFFBF20201010EFA5FF4
:10393000000EFB5B010E0201FC6FFD6BFE0EDB5007
:10394000FAC2E9FFFBC2EAFFEF6EFA0EDBCF08F026
:10395000FB0EDBCF09F008500201FC2709500201E1
:10396000FD23FCC2E6FFFDC2E6FFFAC2E6FFFBC292
:10397000E6FF50EC2AF0E552E552E552E552DE5200
:10398000F3CFDEFFF4CFDDFFDD52FF0EE76E010E59
:10399000DBCF14F0020EDBCF15F0E7501416156ADA
:1039A0000201FCC2E9FFFDC2EAFFFC2B000EFD2371
:1039B000000EE926020EEA2214C0EFFF010EDBCF53
:1039C00014F0020EDBCF15F015C014F0156A0201D9
:1039D000FCC2E9FFFDC2EAFFFC2B000EFD23000E36
:1039E000E926020EEA2214C0EFFF0101010E906FDA
:1039F000010EE66EE66ACAEC24F0E552E55202D00A
:103A0000050EDF6E9D8ADF5000D0146E030EE15C60
:103A100002E2E16AE552E16E1450E552E7CFD9FFC8
:103A20001200D9CFE6FFE1CFD9FF020EE126DF6A0F
:103A30000101905102E0000E51D0D950010FE66E05
:103A4000000EDA20E66E6CEC25F0E552E55201013D
:103A50009151020A25E0030A0BE0020A06E0030A7C
:103A600001E03AD0E5EC2AF037D0E5EC2AF034D08A
:103A70000201FE6BFF6B0201FEC2E9FFFFC2EAFF1B
:103A8000FE2B000EFF23000EE926020EEA22010E95
:103A9000DBCFEFFF0101020E916FE5EC2AF01CD0A5
:103AA0000201FA0EFE5D000EFF5910E20201FEC295
:103AB000E9FFFFC2EAFFFE2B000EFF23000EE926FE
:103AC000020EEA22010EDBCFEFFF03D00101030E4D
:103AD000916FE5EC2AF000D0DF5000D0146E020E9A
:103AE000E15C02E2E16AE552E16E1450E552E7CF93
:103AF000D9FF1200D9CFE6FFE1CFD9FFE652DF6A46
:103B00000101910502E0000E3AD001019051010A35
:103B10000BE0010A01E031D0E66A010EE66ECAEC64
:103B200024F0E552E55229D00201000ED880FC5560
:103B3000000EFD5512E2FAC2E9FFFBC2EAFFEF50A8
:103B4000E66E51EC25F0E5520201FA2B000EFB2344
:103B50000201FC07000EFD5BE7D7030EE66EF4ECF6
:103B60002CF0E552DF6EE66A010EE66ECAEC24F038
:103B7000E552E5520101906B00D0DF5000D0E552D4
:103B8000E552E7CFD9FF1200D9CFE6FFE1CFD9FF49
:103B9000E652DF6A01019151030A12E0010A09E0CD
:103BA000020A01E00ED0E66AF4EC2CF0E552DF6E7A
:103BB00009D0010EE66EF4EC2CF0E552DF6E02D077
:103BC00001D000D0F0EC2AF00101010E916FDF501E
:0C3BD00000D0E552E552E7CFD9FF12000B
:043BDC00D9CFE6FF58
:103BE000E1CFD9FF0A0EE126F90EDB50E66ED9507F
:103BF000080FE96EDACFEAFFE552E750EE6EED6AA4
:103C0000FA0EDB50080801E2F1D0080E146E156AB6
:103C1000FB0EDBCF08F0FC0EDBCF09F014C00DF07B
:103C200015C00EF033EC2EF0040E08C0DBFF050EBD
:103C300009C0DBFFFB0EDBCF16F0FC0EDBCF17F06D
:103C4000080E086E096A040EDBCF0DF0050EDBCFFF
:103C50000EF0A5EC2DF00650165C146E07501758A8
:103C6000156E060E14C0DBFF070E15C0DBFF060E37
:103C7000DBCF14F0D950080FE96EDACFEAFF145009
:103C8000E85005E0D890EE36ED36E806FBE1FA0E96
:103C9000DB50166E010E165204E0E846FE0B1606C7
:103CA000FCE1FF0F146E156A14BE1568020E14C0F5
:103CB000DBFF030E15C0DBFFFB0EDBCF16F0FC0EA7
:103CC000DBCF17F0080E086E096A040EDBCF0DF08B
:103CD000050EDBCF0EF0A5EC2DF00650165C146E31
:103CE00007501758156ED950020FE96EDACFEAFF68
:103CF0001450E85005E0D890EE36ED36E806FBE1CA
:103D0000040EDBCF14F0050EDBCF15F0FD0EDB50FB
:103D10001424E96EFE0EDB501520EA6EEF50DE6EC5
:103D2000DD6A010EE76E040EDBCF14F0050EDBCF6B
:103D300015F0E7501426000E1522FD0EDB5014245A
:103D4000E96EFE0EDB501520EA6EEF50000EF350C8
:103D5000DF12020EDB1C186E030EDB1C196EDE5028
:103D60001814166EDD501914176E080EDB5016105D
:103D7000146E090EDB501710156E14C0DEFF15C04F
:103D8000DDFFDECF16F0DDCF17F0FF0E1616000EAA
:103D90001716040EDBCF14F0050EDBCF15F0FD0E69
:103DA000DB501424E96EFE0EDB501520EA6E16C0BF
:103DB000EFFFDECF16F0DDCF17F017C016F0176A51
:103DC000010EE76E040EDBCF14F0050EDBCF15F00D
:103DD000E7501426000E1522FD0EDB501424E96E68
:103DE000FE0EDB501520EA6E16C0EFFF0A0EE15CF6
:103DF00002E2E16AE552E16EE552E7CFD9FF120037
:103E0000D9CFE6FFE1CFD9FF080EE126080E146EE8
:103E1000156AFB0EDBCF08F0FC0EDBCF09F014C0F7
:103E20000DF015C00EF033EC2EF0040E08C0DBFFD1
:103E3000050E09C0DBFFFB0EDBCF16F0FC0EDBCF5F
:103E400017F0080E086E096A040EDBCF0DF0050EA0
:103E5000DBCF0EF0A5EC2DF00650165C146E07506B
:103E60001758156E060E14C0DBFF070E15C0DBFFDA
:103E7000FA0EDB50166E010E165204E0E846FE0BF9
:103E80001606FCE1FF0F146E156A14BE1568020ECB
:103E900014C0DBFF030E15C0DBFF040EDBCF14F0F4
:103EA000050EDBCF15F0FD0EDB501424E96EFE0E7F
:103EB000DB501520EA6EEF50DE6EDD6A010EE76E14
:103EC000040EDBCF14F0050EDBCF15F0E7501426FF
:103ED000000E1522FD0EDB501424E96EFE0EDB50A1
:103EE0001520EA6EEF50000EF350DF12060EDBCF06
:103EF00014F0D9CFE9FFDACFEAFF14500F0B06E038
:103F0000EC52D890ED32EF32E806FAE1020EDBCF48
:103F100014F0030EDBCF15F0D9CFE9FFDACFEAFFBB
:103F20001450EE161550ED16DF5000D0146E080E2A
:103F3000E15C02E2E16AE552E16E1450E552E7CF3E
:103F4000D9FF1200D9CFE6FFE1CFD9FFE652FE0E2E
:103F5000DB50070A0AE0060A05E0010A01E008D082
:103F6000DF6A09D0020EDF6E06D0060EDF6E03D0C8
:103F7000040EDF6E00D0DF5000D0E552E552E7CFEF
:043F8000D9FF120053
:0C3F8400DACFE4FFE2CFDAFFE9CFE4FF80
:103F9000EACFE4FFF6CFE4FFF7CFE4FFF5CFE4FF8D
:103FA000F3CFE4FFF4CFE4FFFACFE4FF00EE00F03C
:103FB000140EE80403E3EECFE4FFFBD700EE14F0A9
:103FC0000A0EE80403E3EECFE4FFFBD7E652F294D7
:103FD00001016D2B000E6E2301016F2B000E70236B
:103FE0000101712B000E72230101732B000E74234B
:103FF00001017507000E765B0101763504E275510B
:104000000008000E76550AE30101772B000E782395
:1040100079237A23C80E0101756F766B0101615116
:10402000621107E005D062C1FAFF01016151F96E2A
:10403000FADF5FC1E6FF60C1E6FFFBEC2DF0E55261
:10404000E552E55200EE1DF00A0EE80403E3E5CF69
:10405000EDFFFBD700EE13F0140EE80403E3E5CF09
:10406000EDFFFBD7E5CFFAFFE5CFF4FFE5CFF3FF98
:10407000E5CFF5FFE5CFF7FFE5CFF6FFE5CFEAFFA8
:10408000E5CFE9FFE5CFDAFF1100DACFE4FFE2CFB9
:10409000DAFFE9CFE4FFEACFE4FFF6CFE4FFF7CFA2
:1040A000E4FFF5CFE4FFF3CFE4FFF4CFE4FFFACF72
:1040B000E4FF00EE00F0140EE80403E3EECFE4FFAB
:1040C000FBD700EE14F00A0EE80403E3EECFE4FFA2
:1040D000FBD7E6529E9063C1E6FF64C1E6FFDFECCA
:1040E0002DF0E552E55201016551661107E005D05A
:1040F00066C1FAFF01016551F96EFADFE55200EE83
:104100001DF00A0EE80403E3E5CFEDFFFBD700EE58
:1041100013F0140EE80403E3E5CFEDFFFBD7E5CF82
:10412000FAFFE5CFF4FFE5CFF3FFE5CFF5FFE5CFED
:10413000F7FFE5CFF6FFE5CFEAFFE5CFE9FFE5CFF3
:10414000DAFF1100DACFE4FFE2CFDAFFE9CFE4FFD4
:10415000EACFE4FFF6CFE4FFF7CFE4FFF5CFE4FFCB
:10416000F3CFE4FFF4CFE4FFFACFE4FF00EE00F07A
:10417000140EE80403E3EECFE4FFFBD700EE14F0E7
:104180000A0EE80403E3EECFE4FFFBD7E652A19268
:1041900067C1E6FF68C1E6FFDFEC2DF0E552E552AE
:1041A000010169516A1107E005D06AC1FAFF0101F6
:1041B0006951F96EFADFE55200EE1DF00A0EE804CF
:1041C00003E3E5CFEDFFFBD700EE13F0140EE80498
:1041D00003E3E5CFEDFFFBD7E5CFFAFFE5CFF4FF33
:1041E000E5CFF3FFE5CFF5FFE5CFF7FFE5CFF6FF2E
:1041F000E5CFEAFFE5CFE9FFE5CFDAFF1100D9CF40
:10420000E6FFE1CFD9FF9F0EE66E17EC2EF0E552E8
:10421000FD0EDBCF5FF1FE0EDBCF60F1FB0EDBCFDF
:1042200061F1FC0EDBCF62F1FD0EDBCFE6FFFE0E8F
:10423000DBCFE6FFFBEC2DF0E552E552E552E7CF90
:10424000D9FF1200D9CFE6FFE1CFD9FFC50EE66E48
:1042500065EC2DF0E552FD0EDBCFE6FFFE0EDBCF69
:10426000E6FFDFEC2DF0E552E5529F80FD0EDBCF3F
:1042700063F1FE0EDBCF64F1FB0EDBCF65F1FC0ECC
:10428000DBCF66F1E552E7CFD9FF1200D9CFE6FFC9
:10429000E1CFD9FFCD0EE66E44EC2DF0E552FD0ED8
:1042A000DBCFE6FFFE0EDBCFE6FFC3EC2DF0E552E1
:1042B000E552FD0EDBCF67F1FE0EDBCF68F1FB0EA2
:1042C000DBCF69F1FC0EDBCF6AF1E552E7CFD9FF16
:1042D0001200D9CFE6FFE1CFD9FF040EE126F29A12
:1042E00077C1DFFF010E78C1DBFF020E79C1DBFF72
:1042F000030E7AC1DBFFF28ADECF06F0DECF07F0D5
:10430000DECF08F0DDCF09F0DD52DD5200D0040E23
:10431000E15C02E2E16AE552E16EE552E7CFD9FFE6
:02432000120089
:0E432200D9CFE6FFE1CFD9FF060EE126010E4E
:10433000DB6A4B0EF36E020EF3CFDBFF010EF36E62
:10434000030EF3CFDBFF040EDB6AE66A010EDBCF60
:1043500014F0020EDBCF15F0166A176A14C0E6FFE0
:1043600015C0E6FF16C0E6FF17C0E6FFE66A030EBB
:10437000DBCFE6FFE66A24EC15F0186E080EE15E6E
:104380001850E76E050EE7CFDBFFE2EC16F0E76EA4
:10439000050EE7CFDBFFDF6A080EDF5C2BE2DF50A4
:1043A000EA6A350FE96E010EEA22EF50E66EDF5041
:1043B000EA6A000FE96E010EEA22E552E750EF6E5D
:1043C000300EDF24E66EDF50EA6A270FE96E010E39
:1043D000EA22E552E750EF6E300EDF24E66EDF5042
:1043E000EA6A1F0FE96E010EEA22E552E750EF6E0E
:1043F000DF2AD2D7E66A1FEC07F0E55201012F6BE6
:104400000101080E306F000EE66E010EE66E50ECF4
:104410002CF0E552E552F3CF33F10101000E316F7C
:10442000010E326F0101346B2F0EE66E010EE66E47
:10443000E66AD4EC01F0E552E552E552080EE66E6C
:10444000E66A270EE66E010EE66E6EEC14F0E5529B
:10445000E552E552E552080EE66E080EE66E1F0EB6
:10446000E66E010EE66E6EEC14F0E552E552E55292
:10447000E552060EE15C02E2E16AE552E16EE552C8
:10448000E7CFD9FF1200D9CFE6FFE1CFD9FF030E66
:10449000E126030EE15C02E2E16AE552E16EE552DB
:1044A000E7CFD9FF1200D9CFE6FFE1CFD9FFE6521F
:1044B000DF6ADF5000D0E552E552E7CFD9FF1200A6
:1044C000D9CFE6FFE1CFD9FF040EE126FB0EDB508A
:1044D000DF6E020E086E096AF90EDBCF0DF0FA0EE0
:1044E000DBCF0EF0A5EC2DF0010E06C0DBFF020EB7
:1044F000DB6A030EDB6AF80EDB5024E0010A01E000
:1045000056D0010EDB5000081CE2FD0EDBCFE9FFA8
:10451000DB2AFE0EDBCFEAFF01E3DB2AEF50E66E7B
:10452000030EDBCFF3FFDB2AF350EA6A000FE96EDC
:10453000010EEA22E552E750EF6EDF2A010EDB069C
:10454000E0D735D0010EDB50000830E2FD0EDBCFA6
:10455000E9FFDB2AFE0EDBCFEAFF01E3DB2A410E97
:10456000EF6EFD0EDBCFE9FFDB2AFE0EDBCFEAFFAD
:1045700001E3DB2A420EEF6EFD0EDBCFE9FFDB2A03
:10458000FE0EDBCFEAFF01E3DB2A430EEF6EFD0EEA
:10459000DBCFE9FFDB2AFE0EDBCFEAFF01E3DB2AFC
:1045A000440EEF6EDF2A010EDB06CCD700D0020EE0
:1045B000E66EE66A000EE66E010EE66E6EEC14F034
:1045C000E552E552E552E552E66A1FEC07F0E55286
:1045D00001012F6B0101080E306F0101080E336FCE
:1045E0000101020E316F010E326F0101346B2F0E8B
:1045F000E66E010EE66EE66AD4EC01F0E552E55295
:10460000E552080EE66E020EE66E0A0EE66E010E2A
:10461000E66E6EEC14F0E552E552E552E552020EFC
:10462000DB5000D0146E040EE15C02E2E16AE55258
:10463000E16E1450E552E7CFD9FF1200D9CFE6FF63
:10464000E1CFD9FF010E00D0E552E7CFD9FF12002C
:10465000D9CFE6FFE1CFD9FF010E00D0E552E7CF79
:04466000D9FF12006C
:0C466400000000000000000020202020CA
:104670000000200050505000000000005050F85042
:10468000F85050002078A07028F02000C0C81020FA
:10469000409818006090A040A890680060204000FA
:1046A000000000001020404040201000402010106A
:1046B000102040000020A870A8200000002020F852
:1046C0002020000000000000301020000000007CCE
:1046D00000000000000000000060600000081020E2
:1046E0004080000030486878584830002060A020A2
:1046F0002020F800304808081020780070080830A2
:104700000808700010305090F81010007840407089
:10471000080870003048407048483000F808102001
:104720004040400030484830484830003048483821
:1047300008483000006060006060000000606000B9
:104740006020400008102040201008000000F80001
:10475000F800000040201008102040007088081069
:104760002000200070880868A8A8700030484878A9
:1047700048484800704848704848700038404040F9
:1047800040403800704848484848700078404070C1
:1047900040407800784040704040400030484058E9
:1047A0004848300048484878484848007020202051
:1047B000202070007020202020A060004850604021
:1047C00060504800404040404040700088D8A8A851
:1047D00088888800484868785848480030484848E1
:1047E00048483000704848704040400030484848D1
:1047F00068502800704848704848480030484030A9
:1048000008483000F8202020202020004848484850
:10481000484830008888888888502000888888A880
:10482000A8A85000484848304848480050505050C8
:104830002020200078081830604078007040404008
:10484000404070008850F820F820200070101010B0
:1048500010107000205088000000000000000000D0
:104860000000F80040201000000000000000700868
:10487000788878008080B0C88888F0000000708058
:104880008088700008086898888878000000708820
:10489000F8807000304840E0404040000078888850
:1048A000780870008080B0C8888888002000602068
:1048B0002020700008000808084830004040485098
:1048C0006050480060202020202070000000D0A808
:1048D000A88888000000B0C8888888000000708818
:1048E000888870000000F088F080800000006898E0
:1048F000780808000000B0C8808080000000708048
:104900007008F0004040E0404048300000008888D7
:1049100088986800000088888850200000008888F7
:10492000A8A8500000008850205088000000888807
:10493000780870000000F8102040F8001020204097
:1049400020201000202020202020200020101008EF
:1049500010102000002010F810200000002040F867
:104960004020000030484830000000003048483007
:10497000000000000818387838180800000080058A
:10498000C004E003F002F801000008041803380234
:044990007801F800B2
:0C499400D9CFE6FFE1CFD9FFFE0EDB50CB
:1049A00002E1AB9801D0AB88FD0EDB5001E109D0EC
:1049B00007D0EAC0FBFFE9C0FAFF0001E851F96E39
:1049C000F8DFE552E7CFD9FF1200D9CFE6FFE1CFFC
:1049D000D9FF050EE1263C0EDF6ED950FA0FE96EC5
:1049E000FF0EDA20EA6EEE2A000EEE22000EEE2214
:1049F000000EEE22D950FA0FE96EFF0EDA20EA6EB1
:104A0000040EE76ED890EF36010EEB36020EEB3651
:104A1000030EEB36E706F6E1146A480E156EE80E53
:104A2000166E010E176E14C006F015C007F016C002
:104A300008F017C009F0FA0EDBCF0BF0FB0EDBCF4E
:104A40000CF0FC0EDBCF0DF0FD0EDBCF0EF020ECFA
:104A50002DF0010E06C0DBFF020E07C0DBFF030EC8
:104A600008C0DBFF040E09C0DBFF010EDBCFE6FF51
:104A7000020EDBCFE6FFDFCFE6FFADEC2CF0E55218
:104A8000E552E5529F8A010E00D0146E050EE15CDE
:104A900002E2E16AE552E16E1450E552E7CFD9FF38
:104AA0001200D9CFE6FFE1CFD9FF8686500EE66E21
:104AB00086EC2EF0E552FE0EDB50AD6EACA2FED7BA
:104AC0008696500EE66E86EC2EF0E552010E00D072
:104AD000E552E7CFD9FF1200D9CFE6FFE1CFD9FFEA
:104AE000E65286EC2DF0DF6EFD0EDBCFE9FFFE0E09
:104AF000DBCFEAFFDFCFEFFF9E9A010E00D0E55239
:104B0000E552E7CFD9FF1200DACFE4FFE2CFDAFFB8
:104B1000E9CFE4FFEACFE4FFF6CFE4FFF7CFE4FF0D
:104B2000F5CFE4FFF3CFE4FFF4CFE4FFFACFE4FFE7
:104B3000FBCFE4FF00EE00F0140EE80403E3EECF39
:104B4000E4FFFBD700EE14F00A0EE80403E3EECF17
:104B5000E4FFFBD7E65207D0EAC0FBFFE9C0FAFF4B
:104B60000001E851F96EF8DFE55200EE1DF00A0E83
:104B7000E80403E3E5CFEDFFFBD700EE13F0140EDE
:104B8000E80403E3E5CFEDFFFBD7E5CFFBFFE5CF7F
:104B9000FAFFE5CFF4FFE5CFF3FFE5CFF5FFE5CF73
:104BA000F7FFE5CFF6FFE5CFEAFFE5CFE9FFE5CF79
:104BB000DAFF1100DACFE4FFE2CFDAFFE9CFE4FF5A
:104BC000EACFE4FFF6CFE4FFF7CFE4FFF5CFE4FF51
:104BD000F3CFE4FFF4CFE4FFFACFE4FFFBCFE4FF31
:104BE00000EE00F0140EE80403E3EECFE4FFFBD781
:104BF00000EE14F00A0EE80403E3EECFE4FFFBD767
:104C0000E65207D0E7C0FBFFE6C0FAFF0001E5511E
:104C1000F96EF8DFE55200EE1DF00A0EE80403E33A
:104C2000E5CFEDFFFBD700EE13F0140EE80403E32D
:104C3000E5CFEDFFFBD7E5CFFBFFE5CFFAFFE5CFF3
:104C4000F4FFE5CFF3FFE5CFF5FFE5CFF7FFE5CFC5
:104C5000F6FFE5CFEAFFE5CFE9FFE5CFDAFF110088
:104C6000D9CFE6FFE1CFD9FF090EE126070EDB6AB7
:104C7000FB0EDBCFE9FFFC0EDBCFEAFF050EEE18E3
:104C800001E1ED5001E012D1010EE76EFD0EDBCF28
:104C9000E9FFFE0EDBCFEAFFE750E926000EEA222D
:104CA000EF50000EF350DE6EDD6A020EE76EFD0E71
:104CB000DBCFE9FFFE0EDBCFEAFFE750E926000E6F
:104CC000EA22EF50DF12DF2A010E01E3DB2A030E96
:104CD000E76EFD0EDBCFE9FFFE0EDBCFEAFFE7500C
:104CE000E926000EEA22EF50000EF350E66ED9508E
:104CF000020FE96EDACFEAFFE552E750EE6EED6A99
:104D0000040EE76EFD0EDBCFE9FFFE0EDBCFEAFF00
:104D1000E750E926000EEA22EF50146E156AD950CA
:104D2000020FE96EDACFEAFF1450EE121550ED12C1
:104D3000020EDBCF14F0030EDBCF15F0010E145C76
:104D4000000E155801E2ACD0020EDBCF16F0030EB8
:104D5000DBCF17F0D00E165C070E175801E3A0D07A
:104D6000FD0EDBCF08F0FE0EDBCF09F0050E08C00C
:104D7000DBFF060E09C0DBFFFB0EDBCFE9FFFC0EFD
:104D8000DBCFEAFFEE6AED6A050EDBCFE9FFDB2A37
:104D9000060EDBCFEAFF01E3DB2A020EEF6EFB0E0D
:104DA000DBCFE9FFFC0EDBCFEAFFEE2A000EED229F
:104DB000020EDB50070B16E0020EDBCF14F0030EE1
:104DC000DBCF15F0030E0F0B05E0D890153214322F
:104DD000E806FBE1010E1426000E1522040E14C095
:104DE000DBFF12D0080E146E156A020EDBCF08F03E
:104DF000030EDBCF09F014C00DF015C00EF033EC3C
:104E00002EF0040E08C0DBFF050EDBCFE9FFDB2A26
:104E1000060EDBCFEAFF01E3DB2A040EDBCFEFFF58
:104E2000FB0EDBCFE9FFFC0EDBCFEAFFEE2A000E24
:104E3000ED22020EDBCFE6FF030EDBCFE6FFDECF77
:104E4000E6FFDDCFE6FF050EDBCFE6FF060EDBCF8C
:104E5000E6FF28EC23F0146E060EE15E1450E76EB8
:104E6000080EE7CFDBFF080EDB500BE0080EDBCFB0
:104E7000E6FFA2EC1FF0E552E76E070EE7CFDBFF7F
:104E80000ED0040EDB50146E156AFB0EDBCFE9FF6B
:104E9000FC0EDBCFEAFF1450EE261550ED2205D0B4
:104EA000030EF36E070EF3CFDBFF05D0030EF36E98
:104EB000070EF3CFDBFF070EDB5000D0146E090E98
:104EC000E15C02E2E16AE552E16E1450E552E7CF9F
:044ED000D9FF1200F4
:0C4ED400D9CFE6FFE1CFD9FF0A0EE1269E
:104EE000060EDB6AFB0EDBCFE9FFFC0EDBCFEAFF31
:104EF000050EEE1801E1ED5001E006D1010EE76E5E
:104F0000FD0EDBCFE9FFFE0EDBCFEAFFE750E9261F
:104F1000000EEA22EF50DE6EDD6AD9CFE9FFDACF6C
:104F2000EAFFEE50ED6EEF6A020EE76EFD0EDBCF8C
:104F3000E9FFFE0EDBCFEAFFE750E926000EEA228A
:104F4000EF50DF12DF2A010E01E3DB2A030EE76ECA
:104F5000FD0EDBCFE9FFFE0EDBCFEAFFE750E926CF
:104F6000000EEA22EF50E66ED950020FE96EDACF5A
:104F7000EAFFE552E750EE6EED6AD950020FE96E96
:104F8000DACFEAFFEE50ED6EEF6A040EE76EFD0E2B
:104F9000DBCFE9FFFE0EDBCFEAFFE750E926000E8C
:104FA000EA22EF50146E156AD950020FE96EDACF7B
:104FB000EAFF1450EE121550ED12020EDBCF14F082
:104FC000030EDBCF15F0010E145C000E155801E244
:104FD00095D0020EDBCF16F0030EDBCF17F07D0E5F
:104FE000165C000E175801E389D0FD0EDBCF08F0E8
:104FF000FE0EDBCF09F0040E08C0DBFF050E09C072
:10500000DBFFFB0EDBCFE9FFFC0EDBCFEAFFEE6A36
:10501000ED6A040EDBCFE9FFDB2A050EDBCFEAFFEA
:1050200001E3DB2A040EEF6EFB0EDBCFE9FFFC0E83
:10503000DBCFEAFFEE2A000EED22020E086E096AAF
:10504000020EDBCF0DF0030EDBCF0EF0A5EC2DF042
:105050000650E66E040EDBCFE9FFDB2A050EDBCF40
:10506000EAFF01E3DB2AE552E750EF6EFB0EDBCFF0
:10507000E9FFFC0EDBCFEAFFEE2A000EED22020E66
:10508000DBCFE6FF030EDBCFE6FFDECFE6FFDDCFB3
:10509000E6FF040EDBCFE6FF050EDBCFE6FF53ECA9
:1050A00022F0146E060EE15E1450E76E070EE7CF95
:1050B000DBFF070EDB500BE0070EDBCFE6FFA2ECB9
:1050C0001FF0E552E76E060EE7CFDBFF16D0020EAB
:1050D000DBCF14F0030EDBCF15F0010ED8901436A1
:1050E0001536E806FBE1FB0EDBCFE9FFFC0EDBCF5C
:1050F000EAFF1450EE261550ED2205D0030EF36E94
:10510000060EF3CFDBFF05D0030EF36E060EF3CFD2
:10511000DBFF060EDB5000D0146E0A0EE15C02E2EB
:10512000E16AE552E16E1450E552E7CFD9FF120073
:1051300000C1814001C0804101C0804100C1814067
:1051400001C0804100C1814000C1814001C0804157
:1051500001C0804100C1814000C1814001C0804147
:1051600000C1814001C0804101C0804100C1814037
:1051700001C0804100C1814000C1814001C0804127
:1051800000C1814001C0804101C0804100C1814017
:1051900000C1814001C0804101C0804100C1814007
:1051A00001C0804100C1814000C1814001C08041F7
:1051B00001C0804100C1814000C1814001C08041E7
:1051C00000C1814001C0804101C0804100C18140D7
:1051D00000C1814001C0804101C0804100C18140C7
:1051E00001C0804100C1814000C1814001C08041B7
:1051F00000C1814001C0804101C0804100C18140A7
:1052000001C0804100C1814000C1814001C0804196
:1052100001C0804100C1814000C1814001C0804186
:1052200000C1814001C0804101C0804100C1814076
:1052300000C0C101C30302C2C60607C705C5C40436
:10524000CC0C0DCD0FCFCE0E0ACACB0BC90908C8A6
:10525000D81819D91BDBDA1A1EDEDF1FDD1D1CDC96
:1052600014D4D515D71716D6D21213D311D1D01006
:10527000F03031F133F3F23236F6F737F53534F4F6
:105280003CFCFD3DFF3F3EFEFA3A3BFB39F9F83866
:1052900028E8E929EB2B2AEAEE2E2FEF2DEDEC2C56
:1052A000E42425E527E7E62622E2E323E12120E0C6
:1052B000A06061A163A3A26266A6A767A56564A4B6
:1052C0006CACAD6DAF6F6EAEAA6A6BAB69A9A86826
:1052D00078B8B979BB7B7ABABE7E7FBF7DBDBC7C16
:1052E000B47475B577B7B67672B2B373B17170B086
:1052F0005090915193535292965657975595945476
:105300009C5C5D9D5F9F9E5E5A9A9B5B99595898E5
:10531000884849894B8B8A4A4E8E8F4F8D4D4C8CD5
:105320004484854587474686824243834181804045
:10533000D9CFE6FFE1CFD9FFE652DF6A020EE76E72
:10534000F90EDBCF14F0FA0EDBCF15F0E750142680
:10535000000E1522200E145C000E15585FE20101AC
:105360005D6B5E6B01015DC1E9FF5EC1EAFF5D2B14
:10537000000E5E233D0EE926010EEA22FE0EDBCF73
:10538000EFFFFD0EDB5002E0FF0E01D0000EE66ED7
:1053900001015DC1E9FF5EC1EAFF5D2B000E5E23E6
:1053A0003D0EE926010EEA22E552E750EF6ED95094
:1053B000F90FE96EFF0EDA20EA6E000ED880EE5487
:1053C000000EED542AE2F90EDBCFE6FFFA0EDBCF3A
:1053D000E6FFFB0EDBCFE6FFFC0EDBCFE6FF3D0E6C
:1053E00001015D25146E010E01015E21156E14C0D0
:1053F000E6FF15C0E6FF0BEC2CF0166E060EE15E24
:105400001650F90EDBCF08F0FA0EDBCF09F008508A
:1054100001015D27095001015E2302D0040EDF6EF9
:10542000DF5000D0E552E552E7CFD9FF1200D9CFC7
:10543000E6FFE1CFD9FF5DC1E6FF5EC1E6FF3D0EAD
:10544000E66E010EE66E010EE76EFD0EDBCF14F088
:10545000FE0EDBCF15F0E7501426000E152214C007
:10546000E6FF15C0E6FF0BEC2CF0166E060EE15EB3
:105470001650010E0101156A5D25146E5E5115224C
:10548000FB0EDBCFE9FFFC0EDBCFEAFF14C0EEFF23
:1054900015C0EDFF000E00D0E552E7CFD9FF120096
:1054A000D9CFE6FFE1CFD9FF060EE126DF68010E76
:1054B000DB68020EDB6A030EDB6AFB0EDBCF14F047
:1054C000DB06FC0EDBCF15F001E2DB0614501510F5
:1054D00038E0010EDBCFE6FFFD0EDBCFE9FFDB2A74
:1054E000FE0EDBCFEAFF01E3DB2AEF50E552E718BF
:1054F000E66ED950040FE96EDACFEAFFE552E750C5
:10550000EE6EED6A040EDBCFF6FF050EDBCFF7FF84
:10551000300EF626510EF7220800F550DF18E76E20
:10552000010EE7CFDBFF040EDBCFF6FF050EDBCF6E
:10553000F7FF300EF626520EF7220800F550DF6E08
:10554000BCD7DFCF14F014C015F0146A020E14C0DB
:10555000DBFF030E15C0DBFF010EDB50146E156A76
:10556000D950020FE96EDACFEAFF1450EE1215504F
:10557000ED12020EDBCF14F0030EDBCF15F014C0DA
:10558000F3FF15C0F4FF00D0060EE15C02E2E16A11
:0C559000E552E16EE552E7CFD9FF1200B2
:04559C00D9CFE6FF7E
:1055A000E1CFD9FFC50EE66E44EC2DF0E552B19087
:1055B000A282FD0EDBCFFBF0FE0EDBCFFCF0010E76
:1055C00000D0E552E7CFD9FF1200B190FBC0E6FF53
:1055D000FCC0E6FFC3EC2DF0E552E552B1801200AD
:1055E000B1901200DACFE4FFE2CFDAFFE9CFE4FFB7
:1055F000EACFE4FFF6CFE4FFF7CFE4FFF5CFE4FF17
:10560000F3CFE4FFF4CFE4FFFACFE4FFFBCFE4FFF6
:1056100000EE00F0140EE80403E3EECFE4FFFBD746
:1056200000EE14F00A0EE80403E3EECFE4FFFBD72C
:10563000E652A19207D0EDC0FBFFECC0FAFF0001DB
:10564000EB51F96EF8DFE55200EE1DF00A0EE804AA
:1056500003E3E5CFEDFFFBD700EE13F0140EE804F3
:1056600003E3E5CFEDFFFBD7E5CFFBFFE5CFFAFF87
:10567000E5CFF4FFE5CFF3FFE5CFF5FFE5CFF7FF8B
:10568000E5CFF6FFE5CFEAFFE5CFE9FFE5CFDAFFAB
:02569000110007
:0E569200D9CFE6FFE1CFD9FF040EE126700E5E
:1056A000D36E9B8C050EDE6EDD6ADFCF14F0DF0655
:1056B000010EDBCF15F001E2DB061450151006E0F9
:1056C000080EE66E49EC2EF0E552EFD7C26A0F0ED7
:1056D000C16EB50EC06E800E9C6E989086909896A6
:1056E000869698988698949C948E9892988494988C
:1056F0008288926A966A846A959083909592839242
:10570000959483949596839695988398959A839A81
:10571000959C839C996A9A6A936A976A94909492EA
:1057200094949496640EF36E020EF3CFDBFF030E97
:10573000DB6A020EDBCF14F0DB06030EDBCF15F0C5
:1057400001E2DB061450151006E0080EE66E49EC87
:105750002EF0E552EED7040EE15C02E2E16AE5527A
:0A576000E16EE552E7CFD9FF120019
:06576A00D9CFE6FFE1CFFC
:10577000D9FF040EE126030EDB6A49EC2BF069EC3D
:105780002EF0140EE66EFBEC11F0E552A1EC00F0E9
:1057900091EC21F0F60EE66E240EE66E2F0EE66E0C
:1057A000F80EE66EFFEC20F0E552E552E552E552C8
:1057B000260EE66E180EE66EDF0EE66EB10EE66E93
:1057C00022EC21F0E552E552E552E55215EC00F0ED
:1057D0000101D00E6D5D070E6E5905E36CEC2EF0E5
:1057E00001016D6B6E6B01010A0E735D000E745941
:1057F00005E340EC08F00101736B746B24EC17F0C7
:10580000E7D7040EE15C02E2E16AE552E16EE5529F
:06581000E7CFD9FF1200F2
:0A581600D9CFE6FFDACFE6FFFA0E65
:10582000E3CFD9FFFB0EE3CFDAFFFC0EE3CFE9FFB6
:10583000FD0EE3CFEAFFE9CFF3FFEACFF4FFF80E66
:10584000E35003E1F90EE35008E0F80EE30602E24C
:10585000F90EE306DECFEEFFF2D7FF0EE3CFDAFF5D
:10586000E552FF0EE3CFD9FFE5521200FE0EE3CF63
:10587000E9FFFF0EE3CFEAFFE9CFF3FFEACFF4FF42
:10588000FB0EE35003E1FC0EE35009E0FB0EE306E0
:1058900002E2FC0EE306FD0EE350EE6EF1D71200BD
:1058A000FE0EE3CFE9FFFF0EE3CFEAFFF36AF46AEF
:0C58B000EE5203E0F34AF42AFBD712008A
:0458BC00320EF66E44
:1058C000000EF76E000EF86E01010900F5508B6FA7
:1058D0000900F5508C6F03E18B6701D03DD00900C2
:1058E000F550866F0900F550876F0900F550886FF5
:1058F00009000900F550E96E0900F550EA6E09004B
:1059000009000900F550896F0900F5508A6F0900F8
:105910000900F6CF8DF1F7CF8EF1F8CF8FF186C168
:10592000F6FF87C1F7FF88C1F8FF0101895302E143
:105930008A5307E00900F550EE6E8907F8E28A07FE
:10594000F9D78DC1F6FF8EC1F7FF8FC1F8FF0101B6
:0A5950008B07000E8C5BBFD712001E
:06595A00D9CFE6FFDACF11
:10596000E6FFE1CFD9FFE2CFDAFFAC6AAB6AFD0E0A
:10597000DBB0AC88DBA202D0AC8CAB8CDBB4AC8EE1
:10598000DBA602D0AB8801D0AB8ADBB8AC84DBBA33
:10599000AB86DBAC02D09D8A01D09D9ADBAE02D0F3
:1059A0009D8801D09D98FB0EDB50AF6EFC0EDBCFC7
:1059B00015F015C014F0156A14507F6EAC8AAB8ECA
:1059C000949C948EAC50100B04E0AC50800B01E121
:0E59D000948CE552E5CFDAFFE7CFD9FF120045
:0259DE000001C6
:1059E000FE6B010E00D01200D9CFE6FFE1CFD9FF48
:1059F0000001010EFE6FFE0EDBCFFDF0010E00D0A8
:105A0000E552E7CFD9FF1200D9CFE6FFE1CFD9FFAA
:105A1000E652DF6A0001FE510CE0FD0EDBCFE9FF2C
:105A2000FE0EDBCFEAFFFDC0EFFF0001FE6B010EB3
:105A3000DF6EDF5000D0E552E552E7CFD9FF12000C
:105A4000056A046A036A026A200EE76ED890063679
:105A500007360836093602360336043605360B504B
:105A6000025C0C5003580D5004580E50055809E3C1
:105A70000B50025E0C50035A0D50045A0E50055A3A
:085A8000062AE72EE4D712000C
